
booi.elf:     file format elf32-littlearm

Sections:
Idx Name          Size      VMA       LMA       File off  Algn
  0 .isr_vector   00000188  08000000  08000000  00010000  2**0
                  CONTENTS, ALLOC, LOAD, READONLY, DATA
  1 .text         00009578  08000190  08000190  00010190  2**4
                  CONTENTS, ALLOC, LOAD, READONLY, CODE
  2 .rodata       00000400  08009708  08009708  00019708  2**3
                  CONTENTS, ALLOC, LOAD, READONLY, DATA
  3 .init_array   00000004  08009b08  08009b08  00019b08  2**2
                  CONTENTS, ALLOC, LOAD, DATA
  4 .fini_array   00000004  08009b0c  08009b0c  00019b0c  2**2
                  CONTENTS, ALLOC, LOAD, DATA
  5 .data         000001e4  20000000  08009b10  00020000  2**2
                  CONTENTS, ALLOC, LOAD, DATA
  6 .ccmram       00000000  10000000  10000000  000201e4  2**0
                  CONTENTS
  7 .bss          000006d0  200001e8  200001e8  000201e8  2**3
                  ALLOC
  8 ._user_heap_stack 00000600  200008b8  200008b8  000201e8  2**0
                  ALLOC
  9 .ARM.attributes 00000030  00000000  00000000  000201e4  2**0
                  CONTENTS, READONLY
 10 .debug_info   00027860  00000000  00000000  00020214  2**0
                  CONTENTS, READONLY, DEBUGGING
 11 .debug_abbrev 00003cfc  00000000  00000000  00047a74  2**0
                  CONTENTS, READONLY, DEBUGGING
 12 .debug_loc    0000d86e  00000000  00000000  0004b770  2**0
                  CONTENTS, READONLY, DEBUGGING
 13 .debug_aranges 000012b0  00000000  00000000  00058fe0  2**3
                  CONTENTS, READONLY, DEBUGGING
 14 .debug_ranges 000011e0  00000000  00000000  0005a290  2**3
                  CONTENTS, READONLY, DEBUGGING
 15 .debug_line   00009707  00000000  00000000  0005b470  2**0
                  CONTENTS, READONLY, DEBUGGING
 16 .debug_str    000062a8  00000000  00000000  00064b77  2**0
                  CONTENTS, READONLY, DEBUGGING
 17 .comment      0000007c  00000000  00000000  0006ae1f  2**0
                  CONTENTS, READONLY
 18 .debug_frame  00004480  00000000  00000000  0006ae9c  2**2
                  CONTENTS, READONLY, DEBUGGING

Disassembly of section .text:

08000190 <__do_global_dtors_aux>:
 8000190:	b510      	push	{r4, lr}
 8000192:	4c05      	ldr	r4, [pc, #20]	; (80001a8 <__do_global_dtors_aux+0x18>)
 8000194:	7823      	ldrb	r3, [r4, #0]
 8000196:	b933      	cbnz	r3, 80001a6 <__do_global_dtors_aux+0x16>
 8000198:	4b04      	ldr	r3, [pc, #16]	; (80001ac <__do_global_dtors_aux+0x1c>)
 800019a:	b113      	cbz	r3, 80001a2 <__do_global_dtors_aux+0x12>
 800019c:	4804      	ldr	r0, [pc, #16]	; (80001b0 <__do_global_dtors_aux+0x20>)
 800019e:	f3af 8000 	nop.w
 80001a2:	2301      	movs	r3, #1
 80001a4:	7023      	strb	r3, [r4, #0]
 80001a6:	bd10      	pop	{r4, pc}
 80001a8:	200001e8 	.word	0x200001e8
 80001ac:	00000000 	.word	0x00000000
 80001b0:	080096f0 	.word	0x080096f0

080001b4 <frame_dummy>:
 80001b4:	b508      	push	{r3, lr}
 80001b6:	4b03      	ldr	r3, [pc, #12]	; (80001c4 <frame_dummy+0x10>)
 80001b8:	b11b      	cbz	r3, 80001c2 <frame_dummy+0xe>
 80001ba:	4903      	ldr	r1, [pc, #12]	; (80001c8 <frame_dummy+0x14>)
 80001bc:	4803      	ldr	r0, [pc, #12]	; (80001cc <frame_dummy+0x18>)
 80001be:	f3af 8000 	nop.w
 80001c2:	bd08      	pop	{r3, pc}
 80001c4:	00000000 	.word	0x00000000
 80001c8:	200001ec 	.word	0x200001ec
 80001cc:	080096f0 	.word	0x080096f0

080001d0 <strlen>:
 80001d0:	4603      	mov	r3, r0
 80001d2:	f813 2b01 	ldrb.w	r2, [r3], #1
 80001d6:	2a00      	cmp	r2, #0
 80001d8:	d1fb      	bne.n	80001d2 <strlen+0x2>
 80001da:	1a18      	subs	r0, r3, r0
 80001dc:	3801      	subs	r0, #1
 80001de:	4770      	bx	lr

080001e0 <memchr>:
 80001e0:	f001 01ff 	and.w	r1, r1, #255	; 0xff
 80001e4:	2a10      	cmp	r2, #16
 80001e6:	db2b      	blt.n	8000240 <memchr+0x60>
 80001e8:	f010 0f07 	tst.w	r0, #7
 80001ec:	d008      	beq.n	8000200 <memchr+0x20>
 80001ee:	f810 3b01 	ldrb.w	r3, [r0], #1
 80001f2:	3a01      	subs	r2, #1
 80001f4:	428b      	cmp	r3, r1
 80001f6:	d02d      	beq.n	8000254 <memchr+0x74>
 80001f8:	f010 0f07 	tst.w	r0, #7
 80001fc:	b342      	cbz	r2, 8000250 <memchr+0x70>
 80001fe:	d1f6      	bne.n	80001ee <memchr+0xe>
 8000200:	b4f0      	push	{r4, r5, r6, r7}
 8000202:	ea41 2101 	orr.w	r1, r1, r1, lsl #8
 8000206:	ea41 4101 	orr.w	r1, r1, r1, lsl #16
 800020a:	f022 0407 	bic.w	r4, r2, #7
 800020e:	f07f 0700 	mvns.w	r7, #0
 8000212:	2300      	movs	r3, #0
 8000214:	e8f0 5602 	ldrd	r5, r6, [r0], #8
 8000218:	3c08      	subs	r4, #8
 800021a:	ea85 0501 	eor.w	r5, r5, r1
 800021e:	ea86 0601 	eor.w	r6, r6, r1
 8000222:	fa85 f547 	uadd8	r5, r5, r7
 8000226:	faa3 f587 	sel	r5, r3, r7
 800022a:	fa86 f647 	uadd8	r6, r6, r7
 800022e:	faa5 f687 	sel	r6, r5, r7
 8000232:	b98e      	cbnz	r6, 8000258 <memchr+0x78>
 8000234:	d1ee      	bne.n	8000214 <memchr+0x34>
 8000236:	bcf0      	pop	{r4, r5, r6, r7}
 8000238:	f001 01ff 	and.w	r1, r1, #255	; 0xff
 800023c:	f002 0207 	and.w	r2, r2, #7
 8000240:	b132      	cbz	r2, 8000250 <memchr+0x70>
 8000242:	f810 3b01 	ldrb.w	r3, [r0], #1
 8000246:	3a01      	subs	r2, #1
 8000248:	ea83 0301 	eor.w	r3, r3, r1
 800024c:	b113      	cbz	r3, 8000254 <memchr+0x74>
 800024e:	d1f8      	bne.n	8000242 <memchr+0x62>
 8000250:	2000      	movs	r0, #0
 8000252:	4770      	bx	lr
 8000254:	3801      	subs	r0, #1
 8000256:	4770      	bx	lr
 8000258:	2d00      	cmp	r5, #0
 800025a:	bf06      	itte	eq
 800025c:	4635      	moveq	r5, r6
 800025e:	3803      	subeq	r0, #3
 8000260:	3807      	subne	r0, #7
 8000262:	f015 0f01 	tst.w	r5, #1
 8000266:	d107      	bne.n	8000278 <memchr+0x98>
 8000268:	3001      	adds	r0, #1
 800026a:	f415 7f80 	tst.w	r5, #256	; 0x100
 800026e:	bf02      	ittt	eq
 8000270:	3001      	addeq	r0, #1
 8000272:	f415 3fc0 	tsteq.w	r5, #98304	; 0x18000
 8000276:	3001      	addeq	r0, #1
 8000278:	bcf0      	pop	{r4, r5, r6, r7}
 800027a:	3801      	subs	r0, #1
 800027c:	4770      	bx	lr
 800027e:	bf00      	nop

08000280 <__aeabi_drsub>:
 8000280:	f081 4100 	eor.w	r1, r1, #2147483648	; 0x80000000
 8000284:	e002      	b.n	800028c <__adddf3>
 8000286:	bf00      	nop

08000288 <__aeabi_dsub>:
 8000288:	f083 4300 	eor.w	r3, r3, #2147483648	; 0x80000000

0800028c <__adddf3>:
 800028c:	b530      	push	{r4, r5, lr}
 800028e:	ea4f 0441 	mov.w	r4, r1, lsl #1
 8000292:	ea4f 0543 	mov.w	r5, r3, lsl #1
 8000296:	ea94 0f05 	teq	r4, r5
 800029a:	bf08      	it	eq
 800029c:	ea90 0f02 	teqeq	r0, r2
 80002a0:	bf1f      	itttt	ne
 80002a2:	ea54 0c00 	orrsne.w	ip, r4, r0
 80002a6:	ea55 0c02 	orrsne.w	ip, r5, r2
 80002aa:	ea7f 5c64 	mvnsne.w	ip, r4, asr #21
 80002ae:	ea7f 5c65 	mvnsne.w	ip, r5, asr #21
 80002b2:	f000 80e2 	beq.w	800047a <__adddf3+0x1ee>
 80002b6:	ea4f 5454 	mov.w	r4, r4, lsr #21
 80002ba:	ebd4 5555 	rsbs	r5, r4, r5, lsr #21
 80002be:	bfb8      	it	lt
 80002c0:	426d      	neglt	r5, r5
 80002c2:	dd0c      	ble.n	80002de <__adddf3+0x52>
 80002c4:	442c      	add	r4, r5
 80002c6:	ea80 0202 	eor.w	r2, r0, r2
 80002ca:	ea81 0303 	eor.w	r3, r1, r3
 80002ce:	ea82 0000 	eor.w	r0, r2, r0
 80002d2:	ea83 0101 	eor.w	r1, r3, r1
 80002d6:	ea80 0202 	eor.w	r2, r0, r2
 80002da:	ea81 0303 	eor.w	r3, r1, r3
 80002de:	2d36      	cmp	r5, #54	; 0x36
 80002e0:	bf88      	it	hi
 80002e2:	bd30      	pophi	{r4, r5, pc}
 80002e4:	f011 4f00 	tst.w	r1, #2147483648	; 0x80000000
 80002e8:	ea4f 3101 	mov.w	r1, r1, lsl #12
 80002ec:	f44f 1c80 	mov.w	ip, #1048576	; 0x100000
 80002f0:	ea4c 3111 	orr.w	r1, ip, r1, lsr #12
 80002f4:	d002      	beq.n	80002fc <__adddf3+0x70>
 80002f6:	4240      	negs	r0, r0
 80002f8:	eb61 0141 	sbc.w	r1, r1, r1, lsl #1
 80002fc:	f013 4f00 	tst.w	r3, #2147483648	; 0x80000000
 8000300:	ea4f 3303 	mov.w	r3, r3, lsl #12
 8000304:	ea4c 3313 	orr.w	r3, ip, r3, lsr #12
 8000308:	d002      	beq.n	8000310 <__adddf3+0x84>
 800030a:	4252      	negs	r2, r2
 800030c:	eb63 0343 	sbc.w	r3, r3, r3, lsl #1
 8000310:	ea94 0f05 	teq	r4, r5
 8000314:	f000 80a7 	beq.w	8000466 <__adddf3+0x1da>
 8000318:	f1a4 0401 	sub.w	r4, r4, #1
 800031c:	f1d5 0e20 	rsbs	lr, r5, #32
 8000320:	db0d      	blt.n	800033e <__adddf3+0xb2>
 8000322:	fa02 fc0e 	lsl.w	ip, r2, lr
 8000326:	fa22 f205 	lsr.w	r2, r2, r5
 800032a:	1880      	adds	r0, r0, r2
 800032c:	f141 0100 	adc.w	r1, r1, #0
 8000330:	fa03 f20e 	lsl.w	r2, r3, lr
 8000334:	1880      	adds	r0, r0, r2
 8000336:	fa43 f305 	asr.w	r3, r3, r5
 800033a:	4159      	adcs	r1, r3
 800033c:	e00e      	b.n	800035c <__adddf3+0xd0>
 800033e:	f1a5 0520 	sub.w	r5, r5, #32
 8000342:	f10e 0e20 	add.w	lr, lr, #32
 8000346:	2a01      	cmp	r2, #1
 8000348:	fa03 fc0e 	lsl.w	ip, r3, lr
 800034c:	bf28      	it	cs
 800034e:	f04c 0c02 	orrcs.w	ip, ip, #2
 8000352:	fa43 f305 	asr.w	r3, r3, r5
 8000356:	18c0      	adds	r0, r0, r3
 8000358:	eb51 71e3 	adcs.w	r1, r1, r3, asr #31
 800035c:	f001 4500 	and.w	r5, r1, #2147483648	; 0x80000000
 8000360:	d507      	bpl.n	8000372 <__adddf3+0xe6>
 8000362:	f04f 0e00 	mov.w	lr, #0
 8000366:	f1dc 0c00 	rsbs	ip, ip, #0
 800036a:	eb7e 0000 	sbcs.w	r0, lr, r0
 800036e:	eb6e 0101 	sbc.w	r1, lr, r1
 8000372:	f5b1 1f80 	cmp.w	r1, #1048576	; 0x100000
 8000376:	d31b      	bcc.n	80003b0 <__adddf3+0x124>
 8000378:	f5b1 1f00 	cmp.w	r1, #2097152	; 0x200000
 800037c:	d30c      	bcc.n	8000398 <__adddf3+0x10c>
 800037e:	0849      	lsrs	r1, r1, #1
 8000380:	ea5f 0030 	movs.w	r0, r0, rrx
 8000384:	ea4f 0c3c 	mov.w	ip, ip, rrx
 8000388:	f104 0401 	add.w	r4, r4, #1
 800038c:	ea4f 5244 	mov.w	r2, r4, lsl #21
 8000390:	f512 0f80 	cmn.w	r2, #4194304	; 0x400000
 8000394:	f080 809a 	bcs.w	80004cc <__adddf3+0x240>
 8000398:	f1bc 4f00 	cmp.w	ip, #2147483648	; 0x80000000
 800039c:	bf08      	it	eq
 800039e:	ea5f 0c50 	movseq.w	ip, r0, lsr #1
 80003a2:	f150 0000 	adcs.w	r0, r0, #0
 80003a6:	eb41 5104 	adc.w	r1, r1, r4, lsl #20
 80003aa:	ea41 0105 	orr.w	r1, r1, r5
 80003ae:	bd30      	pop	{r4, r5, pc}
 80003b0:	ea5f 0c4c 	movs.w	ip, ip, lsl #1
 80003b4:	4140      	adcs	r0, r0
 80003b6:	eb41 0101 	adc.w	r1, r1, r1
 80003ba:	f411 1f80 	tst.w	r1, #1048576	; 0x100000
 80003be:	f1a4 0401 	sub.w	r4, r4, #1
 80003c2:	d1e9      	bne.n	8000398 <__adddf3+0x10c>
 80003c4:	f091 0f00 	teq	r1, #0
 80003c8:	bf04      	itt	eq
 80003ca:	4601      	moveq	r1, r0
 80003cc:	2000      	moveq	r0, #0
 80003ce:	fab1 f381 	clz	r3, r1
 80003d2:	bf08      	it	eq
 80003d4:	3320      	addeq	r3, #32
 80003d6:	f1a3 030b 	sub.w	r3, r3, #11
 80003da:	f1b3 0220 	subs.w	r2, r3, #32
 80003de:	da0c      	bge.n	80003fa <__adddf3+0x16e>
 80003e0:	320c      	adds	r2, #12
 80003e2:	dd08      	ble.n	80003f6 <__adddf3+0x16a>
 80003e4:	f102 0c14 	add.w	ip, r2, #20
 80003e8:	f1c2 020c 	rsb	r2, r2, #12
 80003ec:	fa01 f00c 	lsl.w	r0, r1, ip
 80003f0:	fa21 f102 	lsr.w	r1, r1, r2
 80003f4:	e00c      	b.n	8000410 <__adddf3+0x184>
 80003f6:	f102 0214 	add.w	r2, r2, #20
 80003fa:	bfd8      	it	le
 80003fc:	f1c2 0c20 	rsble	ip, r2, #32
 8000400:	fa01 f102 	lsl.w	r1, r1, r2
 8000404:	fa20 fc0c 	lsr.w	ip, r0, ip
 8000408:	bfdc      	itt	le
 800040a:	ea41 010c 	orrle.w	r1, r1, ip
 800040e:	4090      	lslle	r0, r2
 8000410:	1ae4      	subs	r4, r4, r3
 8000412:	bfa2      	ittt	ge
 8000414:	eb01 5104 	addge.w	r1, r1, r4, lsl #20
 8000418:	4329      	orrge	r1, r5
 800041a:	bd30      	popge	{r4, r5, pc}
 800041c:	ea6f 0404 	mvn.w	r4, r4
 8000420:	3c1f      	subs	r4, #31
 8000422:	da1c      	bge.n	800045e <__adddf3+0x1d2>
 8000424:	340c      	adds	r4, #12
 8000426:	dc0e      	bgt.n	8000446 <__adddf3+0x1ba>
 8000428:	f104 0414 	add.w	r4, r4, #20
 800042c:	f1c4 0220 	rsb	r2, r4, #32
 8000430:	fa20 f004 	lsr.w	r0, r0, r4
 8000434:	fa01 f302 	lsl.w	r3, r1, r2
 8000438:	ea40 0003 	orr.w	r0, r0, r3
 800043c:	fa21 f304 	lsr.w	r3, r1, r4
 8000440:	ea45 0103 	orr.w	r1, r5, r3
 8000444:	bd30      	pop	{r4, r5, pc}
 8000446:	f1c4 040c 	rsb	r4, r4, #12
 800044a:	f1c4 0220 	rsb	r2, r4, #32
 800044e:	fa20 f002 	lsr.w	r0, r0, r2
 8000452:	fa01 f304 	lsl.w	r3, r1, r4
 8000456:	ea40 0003 	orr.w	r0, r0, r3
 800045a:	4629      	mov	r1, r5
 800045c:	bd30      	pop	{r4, r5, pc}
 800045e:	fa21 f004 	lsr.w	r0, r1, r4
 8000462:	4629      	mov	r1, r5
 8000464:	bd30      	pop	{r4, r5, pc}
 8000466:	f094 0f00 	teq	r4, #0
 800046a:	f483 1380 	eor.w	r3, r3, #1048576	; 0x100000
 800046e:	bf06      	itte	eq
 8000470:	f481 1180 	eoreq.w	r1, r1, #1048576	; 0x100000
 8000474:	3401      	addeq	r4, #1
 8000476:	3d01      	subne	r5, #1
 8000478:	e74e      	b.n	8000318 <__adddf3+0x8c>
 800047a:	ea7f 5c64 	mvns.w	ip, r4, asr #21
 800047e:	bf18      	it	ne
 8000480:	ea7f 5c65 	mvnsne.w	ip, r5, asr #21
 8000484:	d029      	beq.n	80004da <__adddf3+0x24e>
 8000486:	ea94 0f05 	teq	r4, r5
 800048a:	bf08      	it	eq
 800048c:	ea90 0f02 	teqeq	r0, r2
 8000490:	d005      	beq.n	800049e <__adddf3+0x212>
 8000492:	ea54 0c00 	orrs.w	ip, r4, r0
 8000496:	bf04      	itt	eq
 8000498:	4619      	moveq	r1, r3
 800049a:	4610      	moveq	r0, r2
 800049c:	bd30      	pop	{r4, r5, pc}
 800049e:	ea91 0f03 	teq	r1, r3
 80004a2:	bf1e      	ittt	ne
 80004a4:	2100      	movne	r1, #0
 80004a6:	2000      	movne	r0, #0
 80004a8:	bd30      	popne	{r4, r5, pc}
 80004aa:	ea5f 5c54 	movs.w	ip, r4, lsr #21
 80004ae:	d105      	bne.n	80004bc <__adddf3+0x230>
 80004b0:	0040      	lsls	r0, r0, #1
 80004b2:	4149      	adcs	r1, r1
 80004b4:	bf28      	it	cs
 80004b6:	f041 4100 	orrcs.w	r1, r1, #2147483648	; 0x80000000
 80004ba:	bd30      	pop	{r4, r5, pc}
 80004bc:	f514 0480 	adds.w	r4, r4, #4194304	; 0x400000
 80004c0:	bf3c      	itt	cc
 80004c2:	f501 1180 	addcc.w	r1, r1, #1048576	; 0x100000
 80004c6:	bd30      	popcc	{r4, r5, pc}
 80004c8:	f001 4500 	and.w	r5, r1, #2147483648	; 0x80000000
 80004cc:	f045 41fe 	orr.w	r1, r5, #2130706432	; 0x7f000000
 80004d0:	f441 0170 	orr.w	r1, r1, #15728640	; 0xf00000
 80004d4:	f04f 0000 	mov.w	r0, #0
 80004d8:	bd30      	pop	{r4, r5, pc}
 80004da:	ea7f 5c64 	mvns.w	ip, r4, asr #21
 80004de:	bf1a      	itte	ne
 80004e0:	4619      	movne	r1, r3
 80004e2:	4610      	movne	r0, r2
 80004e4:	ea7f 5c65 	mvnseq.w	ip, r5, asr #21
 80004e8:	bf1c      	itt	ne
 80004ea:	460b      	movne	r3, r1
 80004ec:	4602      	movne	r2, r0
 80004ee:	ea50 3401 	orrs.w	r4, r0, r1, lsl #12
 80004f2:	bf06      	itte	eq
 80004f4:	ea52 3503 	orrseq.w	r5, r2, r3, lsl #12
 80004f8:	ea91 0f03 	teqeq	r1, r3
 80004fc:	f441 2100 	orrne.w	r1, r1, #524288	; 0x80000
 8000500:	bd30      	pop	{r4, r5, pc}
 8000502:	bf00      	nop

08000504 <__aeabi_ui2d>:
 8000504:	f090 0f00 	teq	r0, #0
 8000508:	bf04      	itt	eq
 800050a:	2100      	moveq	r1, #0
 800050c:	4770      	bxeq	lr
 800050e:	b530      	push	{r4, r5, lr}
 8000510:	f44f 6480 	mov.w	r4, #1024	; 0x400
 8000514:	f104 0432 	add.w	r4, r4, #50	; 0x32
 8000518:	f04f 0500 	mov.w	r5, #0
 800051c:	f04f 0100 	mov.w	r1, #0
 8000520:	e750      	b.n	80003c4 <__adddf3+0x138>
 8000522:	bf00      	nop

08000524 <__aeabi_i2d>:
 8000524:	f090 0f00 	teq	r0, #0
 8000528:	bf04      	itt	eq
 800052a:	2100      	moveq	r1, #0
 800052c:	4770      	bxeq	lr
 800052e:	b530      	push	{r4, r5, lr}
 8000530:	f44f 6480 	mov.w	r4, #1024	; 0x400
 8000534:	f104 0432 	add.w	r4, r4, #50	; 0x32
 8000538:	f010 4500 	ands.w	r5, r0, #2147483648	; 0x80000000
 800053c:	bf48      	it	mi
 800053e:	4240      	negmi	r0, r0
 8000540:	f04f 0100 	mov.w	r1, #0
 8000544:	e73e      	b.n	80003c4 <__adddf3+0x138>
 8000546:	bf00      	nop

08000548 <__aeabi_f2d>:
 8000548:	0042      	lsls	r2, r0, #1
 800054a:	ea4f 01e2 	mov.w	r1, r2, asr #3
 800054e:	ea4f 0131 	mov.w	r1, r1, rrx
 8000552:	ea4f 7002 	mov.w	r0, r2, lsl #28
 8000556:	bf1f      	itttt	ne
 8000558:	f012 437f 	andsne.w	r3, r2, #4278190080	; 0xff000000
 800055c:	f093 4f7f 	teqne	r3, #4278190080	; 0xff000000
 8000560:	f081 5160 	eorne.w	r1, r1, #939524096	; 0x38000000
 8000564:	4770      	bxne	lr
 8000566:	f092 0f00 	teq	r2, #0
 800056a:	bf14      	ite	ne
 800056c:	f093 4f7f 	teqne	r3, #4278190080	; 0xff000000
 8000570:	4770      	bxeq	lr
 8000572:	b530      	push	{r4, r5, lr}
 8000574:	f44f 7460 	mov.w	r4, #896	; 0x380
 8000578:	f001 4500 	and.w	r5, r1, #2147483648	; 0x80000000
 800057c:	f021 4100 	bic.w	r1, r1, #2147483648	; 0x80000000
 8000580:	e720      	b.n	80003c4 <__adddf3+0x138>
 8000582:	bf00      	nop

08000584 <__aeabi_ul2d>:
 8000584:	ea50 0201 	orrs.w	r2, r0, r1
 8000588:	bf08      	it	eq
 800058a:	4770      	bxeq	lr
 800058c:	b530      	push	{r4, r5, lr}
 800058e:	f04f 0500 	mov.w	r5, #0
 8000592:	e00a      	b.n	80005aa <__aeabi_l2d+0x16>

08000594 <__aeabi_l2d>:
 8000594:	ea50 0201 	orrs.w	r2, r0, r1
 8000598:	bf08      	it	eq
 800059a:	4770      	bxeq	lr
 800059c:	b530      	push	{r4, r5, lr}
 800059e:	f011 4500 	ands.w	r5, r1, #2147483648	; 0x80000000
 80005a2:	d502      	bpl.n	80005aa <__aeabi_l2d+0x16>
 80005a4:	4240      	negs	r0, r0
 80005a6:	eb61 0141 	sbc.w	r1, r1, r1, lsl #1
 80005aa:	f44f 6480 	mov.w	r4, #1024	; 0x400
 80005ae:	f104 0432 	add.w	r4, r4, #50	; 0x32
 80005b2:	ea5f 5c91 	movs.w	ip, r1, lsr #22
 80005b6:	f43f aedc 	beq.w	8000372 <__adddf3+0xe6>
 80005ba:	f04f 0203 	mov.w	r2, #3
 80005be:	ea5f 0cdc 	movs.w	ip, ip, lsr #3
 80005c2:	bf18      	it	ne
 80005c4:	3203      	addne	r2, #3
 80005c6:	ea5f 0cdc 	movs.w	ip, ip, lsr #3
 80005ca:	bf18      	it	ne
 80005cc:	3203      	addne	r2, #3
 80005ce:	eb02 02dc 	add.w	r2, r2, ip, lsr #3
 80005d2:	f1c2 0320 	rsb	r3, r2, #32
 80005d6:	fa00 fc03 	lsl.w	ip, r0, r3
 80005da:	fa20 f002 	lsr.w	r0, r0, r2
 80005de:	fa01 fe03 	lsl.w	lr, r1, r3
 80005e2:	ea40 000e 	orr.w	r0, r0, lr
 80005e6:	fa21 f102 	lsr.w	r1, r1, r2
 80005ea:	4414      	add	r4, r2
 80005ec:	e6c1      	b.n	8000372 <__adddf3+0xe6>
 80005ee:	bf00      	nop

080005f0 <__aeabi_dmul>:
 80005f0:	b570      	push	{r4, r5, r6, lr}
 80005f2:	f04f 0cff 	mov.w	ip, #255	; 0xff
 80005f6:	f44c 6ce0 	orr.w	ip, ip, #1792	; 0x700
 80005fa:	ea1c 5411 	ands.w	r4, ip, r1, lsr #20
 80005fe:	bf1d      	ittte	ne
 8000600:	ea1c 5513 	andsne.w	r5, ip, r3, lsr #20
 8000604:	ea94 0f0c 	teqne	r4, ip
 8000608:	ea95 0f0c 	teqne	r5, ip
 800060c:	f000 f8de 	bleq	80007cc <__aeabi_dmul+0x1dc>
 8000610:	442c      	add	r4, r5
 8000612:	ea81 0603 	eor.w	r6, r1, r3
 8000616:	ea21 514c 	bic.w	r1, r1, ip, lsl #21
 800061a:	ea23 534c 	bic.w	r3, r3, ip, lsl #21
 800061e:	ea50 3501 	orrs.w	r5, r0, r1, lsl #12
 8000622:	bf18      	it	ne
 8000624:	ea52 3503 	orrsne.w	r5, r2, r3, lsl #12
 8000628:	f441 1180 	orr.w	r1, r1, #1048576	; 0x100000
 800062c:	f443 1380 	orr.w	r3, r3, #1048576	; 0x100000
 8000630:	d038      	beq.n	80006a4 <__aeabi_dmul+0xb4>
 8000632:	fba0 ce02 	umull	ip, lr, r0, r2
 8000636:	f04f 0500 	mov.w	r5, #0
 800063a:	fbe1 e502 	umlal	lr, r5, r1, r2
 800063e:	f006 4200 	and.w	r2, r6, #2147483648	; 0x80000000
 8000642:	fbe0 e503 	umlal	lr, r5, r0, r3
 8000646:	f04f 0600 	mov.w	r6, #0
 800064a:	fbe1 5603 	umlal	r5, r6, r1, r3
 800064e:	f09c 0f00 	teq	ip, #0
 8000652:	bf18      	it	ne
 8000654:	f04e 0e01 	orrne.w	lr, lr, #1
 8000658:	f1a4 04ff 	sub.w	r4, r4, #255	; 0xff
 800065c:	f5b6 7f00 	cmp.w	r6, #512	; 0x200
 8000660:	f564 7440 	sbc.w	r4, r4, #768	; 0x300
 8000664:	d204      	bcs.n	8000670 <__aeabi_dmul+0x80>
 8000666:	ea5f 0e4e 	movs.w	lr, lr, lsl #1
 800066a:	416d      	adcs	r5, r5
 800066c:	eb46 0606 	adc.w	r6, r6, r6
 8000670:	ea42 21c6 	orr.w	r1, r2, r6, lsl #11
 8000674:	ea41 5155 	orr.w	r1, r1, r5, lsr #21
 8000678:	ea4f 20c5 	mov.w	r0, r5, lsl #11
 800067c:	ea40 505e 	orr.w	r0, r0, lr, lsr #21
 8000680:	ea4f 2ece 	mov.w	lr, lr, lsl #11
 8000684:	f1b4 0cfd 	subs.w	ip, r4, #253	; 0xfd
 8000688:	bf88      	it	hi
 800068a:	f5bc 6fe0 	cmphi.w	ip, #1792	; 0x700
 800068e:	d81e      	bhi.n	80006ce <__aeabi_dmul+0xde>
 8000690:	f1be 4f00 	cmp.w	lr, #2147483648	; 0x80000000
 8000694:	bf08      	it	eq
 8000696:	ea5f 0e50 	movseq.w	lr, r0, lsr #1
 800069a:	f150 0000 	adcs.w	r0, r0, #0
 800069e:	eb41 5104 	adc.w	r1, r1, r4, lsl #20
 80006a2:	bd70      	pop	{r4, r5, r6, pc}
 80006a4:	f006 4600 	and.w	r6, r6, #2147483648	; 0x80000000
 80006a8:	ea46 0101 	orr.w	r1, r6, r1
 80006ac:	ea40 0002 	orr.w	r0, r0, r2
 80006b0:	ea81 0103 	eor.w	r1, r1, r3
 80006b4:	ebb4 045c 	subs.w	r4, r4, ip, lsr #1
 80006b8:	bfc2      	ittt	gt
 80006ba:	ebd4 050c 	rsbsgt	r5, r4, ip
 80006be:	ea41 5104 	orrgt.w	r1, r1, r4, lsl #20
 80006c2:	bd70      	popgt	{r4, r5, r6, pc}
 80006c4:	f441 1180 	orr.w	r1, r1, #1048576	; 0x100000
 80006c8:	f04f 0e00 	mov.w	lr, #0
 80006cc:	3c01      	subs	r4, #1
 80006ce:	f300 80ab 	bgt.w	8000828 <__aeabi_dmul+0x238>
 80006d2:	f114 0f36 	cmn.w	r4, #54	; 0x36
 80006d6:	bfde      	ittt	le
 80006d8:	2000      	movle	r0, #0
 80006da:	f001 4100 	andle.w	r1, r1, #2147483648	; 0x80000000
 80006de:	bd70      	pople	{r4, r5, r6, pc}
 80006e0:	f1c4 0400 	rsb	r4, r4, #0
 80006e4:	3c20      	subs	r4, #32
 80006e6:	da35      	bge.n	8000754 <__aeabi_dmul+0x164>
 80006e8:	340c      	adds	r4, #12
 80006ea:	dc1b      	bgt.n	8000724 <__aeabi_dmul+0x134>
 80006ec:	f104 0414 	add.w	r4, r4, #20
 80006f0:	f1c4 0520 	rsb	r5, r4, #32
 80006f4:	fa00 f305 	lsl.w	r3, r0, r5
 80006f8:	fa20 f004 	lsr.w	r0, r0, r4
 80006fc:	fa01 f205 	lsl.w	r2, r1, r5
 8000700:	ea40 0002 	orr.w	r0, r0, r2
 8000704:	f001 4200 	and.w	r2, r1, #2147483648	; 0x80000000
 8000708:	f021 4100 	bic.w	r1, r1, #2147483648	; 0x80000000
 800070c:	eb10 70d3 	adds.w	r0, r0, r3, lsr #31
 8000710:	fa21 f604 	lsr.w	r6, r1, r4
 8000714:	eb42 0106 	adc.w	r1, r2, r6
 8000718:	ea5e 0e43 	orrs.w	lr, lr, r3, lsl #1
 800071c:	bf08      	it	eq
 800071e:	ea20 70d3 	biceq.w	r0, r0, r3, lsr #31
 8000722:	bd70      	pop	{r4, r5, r6, pc}
 8000724:	f1c4 040c 	rsb	r4, r4, #12
 8000728:	f1c4 0520 	rsb	r5, r4, #32
 800072c:	fa00 f304 	lsl.w	r3, r0, r4
 8000730:	fa20 f005 	lsr.w	r0, r0, r5
 8000734:	fa01 f204 	lsl.w	r2, r1, r4
 8000738:	ea40 0002 	orr.w	r0, r0, r2
 800073c:	f001 4100 	and.w	r1, r1, #2147483648	; 0x80000000
 8000740:	eb10 70d3 	adds.w	r0, r0, r3, lsr #31
 8000744:	f141 0100 	adc.w	r1, r1, #0
 8000748:	ea5e 0e43 	orrs.w	lr, lr, r3, lsl #1
 800074c:	bf08      	it	eq
 800074e:	ea20 70d3 	biceq.w	r0, r0, r3, lsr #31
 8000752:	bd70      	pop	{r4, r5, r6, pc}
 8000754:	f1c4 0520 	rsb	r5, r4, #32
 8000758:	fa00 f205 	lsl.w	r2, r0, r5
 800075c:	ea4e 0e02 	orr.w	lr, lr, r2
 8000760:	fa20 f304 	lsr.w	r3, r0, r4
 8000764:	fa01 f205 	lsl.w	r2, r1, r5
 8000768:	ea43 0302 	orr.w	r3, r3, r2
 800076c:	fa21 f004 	lsr.w	r0, r1, r4
 8000770:	f001 4100 	and.w	r1, r1, #2147483648	; 0x80000000
 8000774:	fa21 f204 	lsr.w	r2, r1, r4
 8000778:	ea20 0002 	bic.w	r0, r0, r2
 800077c:	eb00 70d3 	add.w	r0, r0, r3, lsr #31
 8000780:	ea5e 0e43 	orrs.w	lr, lr, r3, lsl #1
 8000784:	bf08      	it	eq
 8000786:	ea20 70d3 	biceq.w	r0, r0, r3, lsr #31
 800078a:	bd70      	pop	{r4, r5, r6, pc}
 800078c:	f094 0f00 	teq	r4, #0
 8000790:	d10f      	bne.n	80007b2 <__aeabi_dmul+0x1c2>
 8000792:	f001 4600 	and.w	r6, r1, #2147483648	; 0x80000000
 8000796:	0040      	lsls	r0, r0, #1
 8000798:	eb41 0101 	adc.w	r1, r1, r1
 800079c:	f411 1f80 	tst.w	r1, #1048576	; 0x100000
 80007a0:	bf08      	it	eq
 80007a2:	3c01      	subeq	r4, #1
 80007a4:	d0f7      	beq.n	8000796 <__aeabi_dmul+0x1a6>
 80007a6:	ea41 0106 	orr.w	r1, r1, r6
 80007aa:	f095 0f00 	teq	r5, #0
 80007ae:	bf18      	it	ne
 80007b0:	4770      	bxne	lr
 80007b2:	f003 4600 	and.w	r6, r3, #2147483648	; 0x80000000
 80007b6:	0052      	lsls	r2, r2, #1
 80007b8:	eb43 0303 	adc.w	r3, r3, r3
 80007bc:	f413 1f80 	tst.w	r3, #1048576	; 0x100000
 80007c0:	bf08      	it	eq
 80007c2:	3d01      	subeq	r5, #1
 80007c4:	d0f7      	beq.n	80007b6 <__aeabi_dmul+0x1c6>
 80007c6:	ea43 0306 	orr.w	r3, r3, r6
 80007ca:	4770      	bx	lr
 80007cc:	ea94 0f0c 	teq	r4, ip
 80007d0:	ea0c 5513 	and.w	r5, ip, r3, lsr #20
 80007d4:	bf18      	it	ne
 80007d6:	ea95 0f0c 	teqne	r5, ip
 80007da:	d00c      	beq.n	80007f6 <__aeabi_dmul+0x206>
 80007dc:	ea50 0641 	orrs.w	r6, r0, r1, lsl #1
 80007e0:	bf18      	it	ne
 80007e2:	ea52 0643 	orrsne.w	r6, r2, r3, lsl #1
 80007e6:	d1d1      	bne.n	800078c <__aeabi_dmul+0x19c>
 80007e8:	ea81 0103 	eor.w	r1, r1, r3
 80007ec:	f001 4100 	and.w	r1, r1, #2147483648	; 0x80000000
 80007f0:	f04f 0000 	mov.w	r0, #0
 80007f4:	bd70      	pop	{r4, r5, r6, pc}
 80007f6:	ea50 0641 	orrs.w	r6, r0, r1, lsl #1
 80007fa:	bf06      	itte	eq
 80007fc:	4610      	moveq	r0, r2
 80007fe:	4619      	moveq	r1, r3
 8000800:	ea52 0643 	orrsne.w	r6, r2, r3, lsl #1
 8000804:	d019      	beq.n	800083a <__aeabi_dmul+0x24a>
 8000806:	ea94 0f0c 	teq	r4, ip
 800080a:	d102      	bne.n	8000812 <__aeabi_dmul+0x222>
 800080c:	ea50 3601 	orrs.w	r6, r0, r1, lsl #12
 8000810:	d113      	bne.n	800083a <__aeabi_dmul+0x24a>
 8000812:	ea95 0f0c 	teq	r5, ip
 8000816:	d105      	bne.n	8000824 <__aeabi_dmul+0x234>
 8000818:	ea52 3603 	orrs.w	r6, r2, r3, lsl #12
 800081c:	bf1c      	itt	ne
 800081e:	4610      	movne	r0, r2
 8000820:	4619      	movne	r1, r3
 8000822:	d10a      	bne.n	800083a <__aeabi_dmul+0x24a>
 8000824:	ea81 0103 	eor.w	r1, r1, r3
 8000828:	f001 4100 	and.w	r1, r1, #2147483648	; 0x80000000
 800082c:	f041 41fe 	orr.w	r1, r1, #2130706432	; 0x7f000000
 8000830:	f441 0170 	orr.w	r1, r1, #15728640	; 0xf00000
 8000834:	f04f 0000 	mov.w	r0, #0
 8000838:	bd70      	pop	{r4, r5, r6, pc}
 800083a:	f041 41fe 	orr.w	r1, r1, #2130706432	; 0x7f000000
 800083e:	f441 0178 	orr.w	r1, r1, #16252928	; 0xf80000
 8000842:	bd70      	pop	{r4, r5, r6, pc}

08000844 <__aeabi_ddiv>:
 8000844:	b570      	push	{r4, r5, r6, lr}
 8000846:	f04f 0cff 	mov.w	ip, #255	; 0xff
 800084a:	f44c 6ce0 	orr.w	ip, ip, #1792	; 0x700
 800084e:	ea1c 5411 	ands.w	r4, ip, r1, lsr #20
 8000852:	bf1d      	ittte	ne
 8000854:	ea1c 5513 	andsne.w	r5, ip, r3, lsr #20
 8000858:	ea94 0f0c 	teqne	r4, ip
 800085c:	ea95 0f0c 	teqne	r5, ip
 8000860:	f000 f8a7 	bleq	80009b2 <__aeabi_ddiv+0x16e>
 8000864:	eba4 0405 	sub.w	r4, r4, r5
 8000868:	ea81 0e03 	eor.w	lr, r1, r3
 800086c:	ea52 3503 	orrs.w	r5, r2, r3, lsl #12
 8000870:	ea4f 3101 	mov.w	r1, r1, lsl #12
 8000874:	f000 8088 	beq.w	8000988 <__aeabi_ddiv+0x144>
 8000878:	ea4f 3303 	mov.w	r3, r3, lsl #12
 800087c:	f04f 5580 	mov.w	r5, #268435456	; 0x10000000
 8000880:	ea45 1313 	orr.w	r3, r5, r3, lsr #4
 8000884:	ea43 6312 	orr.w	r3, r3, r2, lsr #24
 8000888:	ea4f 2202 	mov.w	r2, r2, lsl #8
 800088c:	ea45 1511 	orr.w	r5, r5, r1, lsr #4
 8000890:	ea45 6510 	orr.w	r5, r5, r0, lsr #24
 8000894:	ea4f 2600 	mov.w	r6, r0, lsl #8
 8000898:	f00e 4100 	and.w	r1, lr, #2147483648	; 0x80000000
 800089c:	429d      	cmp	r5, r3
 800089e:	bf08      	it	eq
 80008a0:	4296      	cmpeq	r6, r2
 80008a2:	f144 04fd 	adc.w	r4, r4, #253	; 0xfd
 80008a6:	f504 7440 	add.w	r4, r4, #768	; 0x300
 80008aa:	d202      	bcs.n	80008b2 <__aeabi_ddiv+0x6e>
 80008ac:	085b      	lsrs	r3, r3, #1
 80008ae:	ea4f 0232 	mov.w	r2, r2, rrx
 80008b2:	1ab6      	subs	r6, r6, r2
 80008b4:	eb65 0503 	sbc.w	r5, r5, r3
 80008b8:	085b      	lsrs	r3, r3, #1
 80008ba:	ea4f 0232 	mov.w	r2, r2, rrx
 80008be:	f44f 1080 	mov.w	r0, #1048576	; 0x100000
 80008c2:	f44f 2c00 	mov.w	ip, #524288	; 0x80000
 80008c6:	ebb6 0e02 	subs.w	lr, r6, r2
 80008ca:	eb75 0e03 	sbcs.w	lr, r5, r3
 80008ce:	bf22      	ittt	cs
 80008d0:	1ab6      	subcs	r6, r6, r2
 80008d2:	4675      	movcs	r5, lr
 80008d4:	ea40 000c 	orrcs.w	r0, r0, ip
 80008d8:	085b      	lsrs	r3, r3, #1
 80008da:	ea4f 0232 	mov.w	r2, r2, rrx
 80008de:	ebb6 0e02 	subs.w	lr, r6, r2
 80008e2:	eb75 0e03 	sbcs.w	lr, r5, r3
 80008e6:	bf22      	ittt	cs
 80008e8:	1ab6      	subcs	r6, r6, r2
 80008ea:	4675      	movcs	r5, lr
 80008ec:	ea40 005c 	orrcs.w	r0, r0, ip, lsr #1
 80008f0:	085b      	lsrs	r3, r3, #1
 80008f2:	ea4f 0232 	mov.w	r2, r2, rrx
 80008f6:	ebb6 0e02 	subs.w	lr, r6, r2
 80008fa:	eb75 0e03 	sbcs.w	lr, r5, r3
 80008fe:	bf22      	ittt	cs
 8000900:	1ab6      	subcs	r6, r6, r2
 8000902:	4675      	movcs	r5, lr
 8000904:	ea40 009c 	orrcs.w	r0, r0, ip, lsr #2
 8000908:	085b      	lsrs	r3, r3, #1
 800090a:	ea4f 0232 	mov.w	r2, r2, rrx
 800090e:	ebb6 0e02 	subs.w	lr, r6, r2
 8000912:	eb75 0e03 	sbcs.w	lr, r5, r3
 8000916:	bf22      	ittt	cs
 8000918:	1ab6      	subcs	r6, r6, r2
 800091a:	4675      	movcs	r5, lr
 800091c:	ea40 00dc 	orrcs.w	r0, r0, ip, lsr #3
 8000920:	ea55 0e06 	orrs.w	lr, r5, r6
 8000924:	d018      	beq.n	8000958 <__aeabi_ddiv+0x114>
 8000926:	ea4f 1505 	mov.w	r5, r5, lsl #4
 800092a:	ea45 7516 	orr.w	r5, r5, r6, lsr #28
 800092e:	ea4f 1606 	mov.w	r6, r6, lsl #4
 8000932:	ea4f 03c3 	mov.w	r3, r3, lsl #3
 8000936:	ea43 7352 	orr.w	r3, r3, r2, lsr #29
 800093a:	ea4f 02c2 	mov.w	r2, r2, lsl #3
 800093e:	ea5f 1c1c 	movs.w	ip, ip, lsr #4
 8000942:	d1c0      	bne.n	80008c6 <__aeabi_ddiv+0x82>
 8000944:	f411 1f80 	tst.w	r1, #1048576	; 0x100000
 8000948:	d10b      	bne.n	8000962 <__aeabi_ddiv+0x11e>
 800094a:	ea41 0100 	orr.w	r1, r1, r0
 800094e:	f04f 0000 	mov.w	r0, #0
 8000952:	f04f 4c00 	mov.w	ip, #2147483648	; 0x80000000
 8000956:	e7b6      	b.n	80008c6 <__aeabi_ddiv+0x82>
 8000958:	f411 1f80 	tst.w	r1, #1048576	; 0x100000
 800095c:	bf04      	itt	eq
 800095e:	4301      	orreq	r1, r0
 8000960:	2000      	moveq	r0, #0
 8000962:	f1b4 0cfd 	subs.w	ip, r4, #253	; 0xfd
 8000966:	bf88      	it	hi
 8000968:	f5bc 6fe0 	cmphi.w	ip, #1792	; 0x700
 800096c:	f63f aeaf 	bhi.w	80006ce <__aeabi_dmul+0xde>
 8000970:	ebb5 0c03 	subs.w	ip, r5, r3
 8000974:	bf04      	itt	eq
 8000976:	ebb6 0c02 	subseq.w	ip, r6, r2
 800097a:	ea5f 0c50 	movseq.w	ip, r0, lsr #1
 800097e:	f150 0000 	adcs.w	r0, r0, #0
 8000982:	eb41 5104 	adc.w	r1, r1, r4, lsl #20
 8000986:	bd70      	pop	{r4, r5, r6, pc}
 8000988:	f00e 4e00 	and.w	lr, lr, #2147483648	; 0x80000000
 800098c:	ea4e 3111 	orr.w	r1, lr, r1, lsr #12
 8000990:	eb14 045c 	adds.w	r4, r4, ip, lsr #1
 8000994:	bfc2      	ittt	gt
 8000996:	ebd4 050c 	rsbsgt	r5, r4, ip
 800099a:	ea41 5104 	orrgt.w	r1, r1, r4, lsl #20
 800099e:	bd70      	popgt	{r4, r5, r6, pc}
 80009a0:	f441 1180 	orr.w	r1, r1, #1048576	; 0x100000
 80009a4:	f04f 0e00 	mov.w	lr, #0
 80009a8:	3c01      	subs	r4, #1
 80009aa:	e690      	b.n	80006ce <__aeabi_dmul+0xde>
 80009ac:	ea45 0e06 	orr.w	lr, r5, r6
 80009b0:	e68d      	b.n	80006ce <__aeabi_dmul+0xde>
 80009b2:	ea0c 5513 	and.w	r5, ip, r3, lsr #20
 80009b6:	ea94 0f0c 	teq	r4, ip
 80009ba:	bf08      	it	eq
 80009bc:	ea95 0f0c 	teqeq	r5, ip
 80009c0:	f43f af3b 	beq.w	800083a <__aeabi_dmul+0x24a>
 80009c4:	ea94 0f0c 	teq	r4, ip
 80009c8:	d10a      	bne.n	80009e0 <__aeabi_ddiv+0x19c>
 80009ca:	ea50 3401 	orrs.w	r4, r0, r1, lsl #12
 80009ce:	f47f af34 	bne.w	800083a <__aeabi_dmul+0x24a>
 80009d2:	ea95 0f0c 	teq	r5, ip
 80009d6:	f47f af25 	bne.w	8000824 <__aeabi_dmul+0x234>
 80009da:	4610      	mov	r0, r2
 80009dc:	4619      	mov	r1, r3
 80009de:	e72c      	b.n	800083a <__aeabi_dmul+0x24a>
 80009e0:	ea95 0f0c 	teq	r5, ip
 80009e4:	d106      	bne.n	80009f4 <__aeabi_ddiv+0x1b0>
 80009e6:	ea52 3503 	orrs.w	r5, r2, r3, lsl #12
 80009ea:	f43f aefd 	beq.w	80007e8 <__aeabi_dmul+0x1f8>
 80009ee:	4610      	mov	r0, r2
 80009f0:	4619      	mov	r1, r3
 80009f2:	e722      	b.n	800083a <__aeabi_dmul+0x24a>
 80009f4:	ea50 0641 	orrs.w	r6, r0, r1, lsl #1
 80009f8:	bf18      	it	ne
 80009fa:	ea52 0643 	orrsne.w	r6, r2, r3, lsl #1
 80009fe:	f47f aec5 	bne.w	800078c <__aeabi_dmul+0x19c>
 8000a02:	ea50 0441 	orrs.w	r4, r0, r1, lsl #1
 8000a06:	f47f af0d 	bne.w	8000824 <__aeabi_dmul+0x234>
 8000a0a:	ea52 0543 	orrs.w	r5, r2, r3, lsl #1
 8000a0e:	f47f aeeb 	bne.w	80007e8 <__aeabi_dmul+0x1f8>
 8000a12:	e712      	b.n	800083a <__aeabi_dmul+0x24a>

08000a14 <__gedf2>:
 8000a14:	f04f 3cff 	mov.w	ip, #4294967295
 8000a18:	e006      	b.n	8000a28 <__cmpdf2+0x4>
 8000a1a:	bf00      	nop

08000a1c <__ledf2>:
 8000a1c:	f04f 0c01 	mov.w	ip, #1
 8000a20:	e002      	b.n	8000a28 <__cmpdf2+0x4>
 8000a22:	bf00      	nop

08000a24 <__cmpdf2>:
 8000a24:	f04f 0c01 	mov.w	ip, #1
 8000a28:	f84d cd04 	str.w	ip, [sp, #-4]!
 8000a2c:	ea4f 0c41 	mov.w	ip, r1, lsl #1
 8000a30:	ea7f 5c6c 	mvns.w	ip, ip, asr #21
 8000a34:	ea4f 0c43 	mov.w	ip, r3, lsl #1
 8000a38:	bf18      	it	ne
 8000a3a:	ea7f 5c6c 	mvnsne.w	ip, ip, asr #21
 8000a3e:	d01b      	beq.n	8000a78 <__cmpdf2+0x54>
 8000a40:	b001      	add	sp, #4
 8000a42:	ea50 0c41 	orrs.w	ip, r0, r1, lsl #1
 8000a46:	bf0c      	ite	eq
 8000a48:	ea52 0c43 	orrseq.w	ip, r2, r3, lsl #1
 8000a4c:	ea91 0f03 	teqne	r1, r3
 8000a50:	bf02      	ittt	eq
 8000a52:	ea90 0f02 	teqeq	r0, r2
 8000a56:	2000      	moveq	r0, #0
 8000a58:	4770      	bxeq	lr
 8000a5a:	f110 0f00 	cmn.w	r0, #0
 8000a5e:	ea91 0f03 	teq	r1, r3
 8000a62:	bf58      	it	pl
 8000a64:	4299      	cmppl	r1, r3
 8000a66:	bf08      	it	eq
 8000a68:	4290      	cmpeq	r0, r2
 8000a6a:	bf2c      	ite	cs
 8000a6c:	17d8      	asrcs	r0, r3, #31
 8000a6e:	ea6f 70e3 	mvncc.w	r0, r3, asr #31
 8000a72:	f040 0001 	orr.w	r0, r0, #1
 8000a76:	4770      	bx	lr
 8000a78:	ea4f 0c41 	mov.w	ip, r1, lsl #1
 8000a7c:	ea7f 5c6c 	mvns.w	ip, ip, asr #21
 8000a80:	d102      	bne.n	8000a88 <__cmpdf2+0x64>
 8000a82:	ea50 3c01 	orrs.w	ip, r0, r1, lsl #12
 8000a86:	d107      	bne.n	8000a98 <__cmpdf2+0x74>
 8000a88:	ea4f 0c43 	mov.w	ip, r3, lsl #1
 8000a8c:	ea7f 5c6c 	mvns.w	ip, ip, asr #21
 8000a90:	d1d6      	bne.n	8000a40 <__cmpdf2+0x1c>
 8000a92:	ea52 3c03 	orrs.w	ip, r2, r3, lsl #12
 8000a96:	d0d3      	beq.n	8000a40 <__cmpdf2+0x1c>
 8000a98:	f85d 0b04 	ldr.w	r0, [sp], #4
 8000a9c:	4770      	bx	lr
 8000a9e:	bf00      	nop

08000aa0 <__aeabi_cdrcmple>:
 8000aa0:	4684      	mov	ip, r0
 8000aa2:	4610      	mov	r0, r2
 8000aa4:	4662      	mov	r2, ip
 8000aa6:	468c      	mov	ip, r1
 8000aa8:	4619      	mov	r1, r3
 8000aaa:	4663      	mov	r3, ip
 8000aac:	e000      	b.n	8000ab0 <__aeabi_cdcmpeq>
 8000aae:	bf00      	nop

08000ab0 <__aeabi_cdcmpeq>:
 8000ab0:	b501      	push	{r0, lr}
 8000ab2:	f7ff ffb7 	bl	8000a24 <__cmpdf2>
 8000ab6:	2800      	cmp	r0, #0
 8000ab8:	bf48      	it	mi
 8000aba:	f110 0f00 	cmnmi.w	r0, #0
 8000abe:	bd01      	pop	{r0, pc}

08000ac0 <__aeabi_dcmpeq>:
 8000ac0:	f84d ed08 	str.w	lr, [sp, #-8]!
 8000ac4:	f7ff fff4 	bl	8000ab0 <__aeabi_cdcmpeq>
 8000ac8:	bf0c      	ite	eq
 8000aca:	2001      	moveq	r0, #1
 8000acc:	2000      	movne	r0, #0
 8000ace:	f85d fb08 	ldr.w	pc, [sp], #8
 8000ad2:	bf00      	nop

08000ad4 <__aeabi_dcmplt>:
 8000ad4:	f84d ed08 	str.w	lr, [sp, #-8]!
 8000ad8:	f7ff ffea 	bl	8000ab0 <__aeabi_cdcmpeq>
 8000adc:	bf34      	ite	cc
 8000ade:	2001      	movcc	r0, #1
 8000ae0:	2000      	movcs	r0, #0
 8000ae2:	f85d fb08 	ldr.w	pc, [sp], #8
 8000ae6:	bf00      	nop

08000ae8 <__aeabi_dcmple>:
 8000ae8:	f84d ed08 	str.w	lr, [sp, #-8]!
 8000aec:	f7ff ffe0 	bl	8000ab0 <__aeabi_cdcmpeq>
 8000af0:	bf94      	ite	ls
 8000af2:	2001      	movls	r0, #1
 8000af4:	2000      	movhi	r0, #0
 8000af6:	f85d fb08 	ldr.w	pc, [sp], #8
 8000afa:	bf00      	nop

08000afc <__aeabi_dcmpge>:
 8000afc:	f84d ed08 	str.w	lr, [sp, #-8]!
 8000b00:	f7ff ffce 	bl	8000aa0 <__aeabi_cdrcmple>
 8000b04:	bf94      	ite	ls
 8000b06:	2001      	movls	r0, #1
 8000b08:	2000      	movhi	r0, #0
 8000b0a:	f85d fb08 	ldr.w	pc, [sp], #8
 8000b0e:	bf00      	nop

08000b10 <__aeabi_dcmpgt>:
 8000b10:	f84d ed08 	str.w	lr, [sp, #-8]!
 8000b14:	f7ff ffc4 	bl	8000aa0 <__aeabi_cdrcmple>
 8000b18:	bf34      	ite	cc
 8000b1a:	2001      	movcc	r0, #1
 8000b1c:	2000      	movcs	r0, #0
 8000b1e:	f85d fb08 	ldr.w	pc, [sp], #8
 8000b22:	bf00      	nop

08000b24 <__aeabi_dcmpun>:
 8000b24:	ea4f 0c41 	mov.w	ip, r1, lsl #1
 8000b28:	ea7f 5c6c 	mvns.w	ip, ip, asr #21
 8000b2c:	d102      	bne.n	8000b34 <__aeabi_dcmpun+0x10>
 8000b2e:	ea50 3c01 	orrs.w	ip, r0, r1, lsl #12
 8000b32:	d10a      	bne.n	8000b4a <__aeabi_dcmpun+0x26>
 8000b34:	ea4f 0c43 	mov.w	ip, r3, lsl #1
 8000b38:	ea7f 5c6c 	mvns.w	ip, ip, asr #21
 8000b3c:	d102      	bne.n	8000b44 <__aeabi_dcmpun+0x20>
 8000b3e:	ea52 3c03 	orrs.w	ip, r2, r3, lsl #12
 8000b42:	d102      	bne.n	8000b4a <__aeabi_dcmpun+0x26>
 8000b44:	f04f 0000 	mov.w	r0, #0
 8000b48:	4770      	bx	lr
 8000b4a:	f04f 0001 	mov.w	r0, #1
 8000b4e:	4770      	bx	lr

08000b50 <__aeabi_d2iz>:
 8000b50:	ea4f 0241 	mov.w	r2, r1, lsl #1
 8000b54:	f512 1200 	adds.w	r2, r2, #2097152	; 0x200000
 8000b58:	d215      	bcs.n	8000b86 <__aeabi_d2iz+0x36>
 8000b5a:	d511      	bpl.n	8000b80 <__aeabi_d2iz+0x30>
 8000b5c:	f46f 7378 	mvn.w	r3, #992	; 0x3e0
 8000b60:	ebb3 5262 	subs.w	r2, r3, r2, asr #21
 8000b64:	d912      	bls.n	8000b8c <__aeabi_d2iz+0x3c>
 8000b66:	ea4f 23c1 	mov.w	r3, r1, lsl #11
 8000b6a:	f043 4300 	orr.w	r3, r3, #2147483648	; 0x80000000
 8000b6e:	ea43 5350 	orr.w	r3, r3, r0, lsr #21
 8000b72:	f011 4f00 	tst.w	r1, #2147483648	; 0x80000000
 8000b76:	fa23 f002 	lsr.w	r0, r3, r2
 8000b7a:	bf18      	it	ne
 8000b7c:	4240      	negne	r0, r0
 8000b7e:	4770      	bx	lr
 8000b80:	f04f 0000 	mov.w	r0, #0
 8000b84:	4770      	bx	lr
 8000b86:	ea50 3001 	orrs.w	r0, r0, r1, lsl #12
 8000b8a:	d105      	bne.n	8000b98 <__aeabi_d2iz+0x48>
 8000b8c:	f011 4000 	ands.w	r0, r1, #2147483648	; 0x80000000
 8000b90:	bf08      	it	eq
 8000b92:	f06f 4000 	mvneq.w	r0, #2147483648	; 0x80000000
 8000b96:	4770      	bx	lr
 8000b98:	f04f 0000 	mov.w	r0, #0
 8000b9c:	4770      	bx	lr
 8000b9e:	bf00      	nop

08000ba0 <__aeabi_d2uiz>:
 8000ba0:	004a      	lsls	r2, r1, #1
 8000ba2:	d211      	bcs.n	8000bc8 <__aeabi_d2uiz+0x28>
 8000ba4:	f512 1200 	adds.w	r2, r2, #2097152	; 0x200000
 8000ba8:	d211      	bcs.n	8000bce <__aeabi_d2uiz+0x2e>
 8000baa:	d50d      	bpl.n	8000bc8 <__aeabi_d2uiz+0x28>
 8000bac:	f46f 7378 	mvn.w	r3, #992	; 0x3e0
 8000bb0:	ebb3 5262 	subs.w	r2, r3, r2, asr #21
 8000bb4:	d40e      	bmi.n	8000bd4 <__aeabi_d2uiz+0x34>
 8000bb6:	ea4f 23c1 	mov.w	r3, r1, lsl #11
 8000bba:	f043 4300 	orr.w	r3, r3, #2147483648	; 0x80000000
 8000bbe:	ea43 5350 	orr.w	r3, r3, r0, lsr #21
 8000bc2:	fa23 f002 	lsr.w	r0, r3, r2
 8000bc6:	4770      	bx	lr
 8000bc8:	f04f 0000 	mov.w	r0, #0
 8000bcc:	4770      	bx	lr
 8000bce:	ea50 3001 	orrs.w	r0, r0, r1, lsl #12
 8000bd2:	d102      	bne.n	8000bda <__aeabi_d2uiz+0x3a>
 8000bd4:	f04f 30ff 	mov.w	r0, #4294967295
 8000bd8:	4770      	bx	lr
 8000bda:	f04f 0000 	mov.w	r0, #0
 8000bde:	4770      	bx	lr

08000be0 <HAL_InitTick>:
  *         implementation  in user file.
  * @param TickPriority Tick interrupt priority.
  * @retval HAL status
  */
__weak HAL_StatusTypeDef HAL_InitTick(uint32_t TickPriority)
{
 8000be0:	b510      	push	{r4, lr}
 8000be2:	4604      	mov	r4, r0
  /* Configure the SysTick to have interrupt in 1ms time basis*/
  if (HAL_SYSTICK_Config(SystemCoreClock / (1000U / uwTickFreq)) > 0U)
 8000be4:	4b0e      	ldr	r3, [pc, #56]	; (8000c20 <HAL_InitTick+0x40>)
 8000be6:	7818      	ldrb	r0, [r3, #0]
 8000be8:	f44f 737a 	mov.w	r3, #1000	; 0x3e8
 8000bec:	fbb3 f3f0 	udiv	r3, r3, r0
 8000bf0:	4a0c      	ldr	r2, [pc, #48]	; (8000c24 <HAL_InitTick+0x44>)
 8000bf2:	6810      	ldr	r0, [r2, #0]
 8000bf4:	fbb0 f0f3 	udiv	r0, r0, r3
 8000bf8:	f000 ff94 	bl	8001b24 <HAL_SYSTICK_Config>
 8000bfc:	b968      	cbnz	r0, 8000c1a <HAL_InitTick+0x3a>
  {
    return HAL_ERROR;
  }

  /* Configure the SysTick IRQ priority */
  if (TickPriority < (1UL << __NVIC_PRIO_BITS))
 8000bfe:	2c0f      	cmp	r4, #15
 8000c00:	d901      	bls.n	8000c06 <HAL_InitTick+0x26>
    HAL_NVIC_SetPriority(SysTick_IRQn, TickPriority, 0U);
    uwTickPrio = TickPriority;
  }
  else
  {
    return HAL_ERROR;
 8000c02:	2001      	movs	r0, #1
  }
   /* Return function status */
  return HAL_OK;
}
 8000c04:	bd10      	pop	{r4, pc}
    HAL_NVIC_SetPriority(SysTick_IRQn, TickPriority, 0U);
 8000c06:	2200      	movs	r2, #0
 8000c08:	4621      	mov	r1, r4
 8000c0a:	f04f 30ff 	mov.w	r0, #4294967295
 8000c0e:	f000 ff4b 	bl	8001aa8 <HAL_NVIC_SetPriority>
    uwTickPrio = TickPriority;
 8000c12:	4b05      	ldr	r3, [pc, #20]	; (8000c28 <HAL_InitTick+0x48>)
 8000c14:	601c      	str	r4, [r3, #0]
  return HAL_OK;
 8000c16:	2000      	movs	r0, #0
 8000c18:	bd10      	pop	{r4, pc}
    return HAL_ERROR;
 8000c1a:	2001      	movs	r0, #1
 8000c1c:	bd10      	pop	{r4, pc}
 8000c1e:	bf00      	nop
 8000c20:	20000000 	.word	0x20000000
 8000c24:	20000008 	.word	0x20000008
 8000c28:	20000004 	.word	0x20000004

08000c2c <HAL_Init>:
{
 8000c2c:	b508      	push	{r3, lr}
  __HAL_FLASH_PREFETCH_BUFFER_ENABLE();
 8000c2e:	4a07      	ldr	r2, [pc, #28]	; (8000c4c <HAL_Init+0x20>)
 8000c30:	6813      	ldr	r3, [r2, #0]
 8000c32:	f043 0310 	orr.w	r3, r3, #16
 8000c36:	6013      	str	r3, [r2, #0]
  HAL_NVIC_SetPriorityGrouping(NVIC_PRIORITYGROUP_4);
 8000c38:	2003      	movs	r0, #3
 8000c3a:	f000 ff23 	bl	8001a84 <HAL_NVIC_SetPriorityGrouping>
  HAL_InitTick(TICK_INT_PRIORITY);
 8000c3e:	2000      	movs	r0, #0
 8000c40:	f7ff ffce 	bl	8000be0 <HAL_InitTick>
  HAL_MspInit();
 8000c44:	f005 f946 	bl	8005ed4 <HAL_MspInit>
}
 8000c48:	2000      	movs	r0, #0
 8000c4a:	bd08      	pop	{r3, pc}
 8000c4c:	40022000 	.word	0x40022000

08000c50 <HAL_IncTick>:
  *         implementations  in user file.
  * @retval None
  */
__weak void HAL_IncTick(void)
{
  uwTick += uwTickFreq;
 8000c50:	4a03      	ldr	r2, [pc, #12]	; (8000c60 <HAL_IncTick+0x10>)
 8000c52:	6811      	ldr	r1, [r2, #0]
 8000c54:	4b03      	ldr	r3, [pc, #12]	; (8000c64 <HAL_IncTick+0x14>)
 8000c56:	781b      	ldrb	r3, [r3, #0]
 8000c58:	440b      	add	r3, r1
 8000c5a:	6013      	str	r3, [r2, #0]
 8000c5c:	4770      	bx	lr
 8000c5e:	bf00      	nop
 8000c60:	2000028c 	.word	0x2000028c
 8000c64:	20000000 	.word	0x20000000

08000c68 <HAL_GetTick>:
  *         implementations  in user file.
  * @retval tick value
  */
__weak uint32_t HAL_GetTick(void)
{
  return uwTick;  
 8000c68:	4b01      	ldr	r3, [pc, #4]	; (8000c70 <HAL_GetTick+0x8>)
 8000c6a:	6818      	ldr	r0, [r3, #0]
}
 8000c6c:	4770      	bx	lr
 8000c6e:	bf00      	nop
 8000c70:	2000028c 	.word	0x2000028c

08000c74 <HAL_ADC_ConvCpltCallback>:
  * @brief  Conversion complete callback in non blocking mode 
  * @param  hadc ADC handle
  * @retval None
  */
__weak void HAL_ADC_ConvCpltCallback(ADC_HandleTypeDef* hadc)
{
 8000c74:	4770      	bx	lr

08000c76 <HAL_ADC_LevelOutOfWindowCallback>:
  * @brief  Analog watchdog callback in non blocking mode. 
  * @param  hadc ADC handle
  * @retval None
  */
__weak void HAL_ADC_LevelOutOfWindowCallback(ADC_HandleTypeDef* hadc)
{
 8000c76:	4770      	bx	lr

08000c78 <HAL_ADC_ErrorCallback>:
  *        (ADC conversion with interruption or transfer by DMA)
  * @param  hadc ADC handle
  * @retval None
  */
__weak void HAL_ADC_ErrorCallback(ADC_HandleTypeDef *hadc)
{
 8000c78:	4770      	bx	lr

08000c7a <ADC_Disable>:
  *         stopped.
  * @param  hadc ADC handle
  * @retval HAL status.
  */
static HAL_StatusTypeDef ADC_Disable(ADC_HandleTypeDef* hadc)
{
 8000c7a:	b538      	push	{r3, r4, r5, lr}
  uint32_t tickstart = 0U;
  
  /* Verification if ADC is not already disabled:                             */
  /* Note: forbidden to disable ADC (set bit ADC_CR_ADDIS) if ADC is already  */
  /* disabled.                                                                */
  if (ADC_IS_ENABLE(hadc) != RESET )
 8000c7c:	6802      	ldr	r2, [r0, #0]
 8000c7e:	6893      	ldr	r3, [r2, #8]
 8000c80:	f003 0303 	and.w	r3, r3, #3
 8000c84:	2b01      	cmp	r3, #1
 8000c86:	d011      	beq.n	8000cac <ADC_Disable+0x32>
 8000c88:	2300      	movs	r3, #0
 8000c8a:	2b00      	cmp	r3, #0
 8000c8c:	d037      	beq.n	8000cfe <ADC_Disable+0x84>
  {
    /* Check if conditions to disable the ADC are fulfilled */
    if (ADC_DISABLING_CONDITIONS(hadc) != RESET)
 8000c8e:	6893      	ldr	r3, [r2, #8]
 8000c90:	f003 030d 	and.w	r3, r3, #13
 8000c94:	2b01      	cmp	r3, #1
 8000c96:	d011      	beq.n	8000cbc <ADC_Disable+0x42>
      __HAL_ADC_DISABLE(hadc);
    }
    else
    {
      /* Update ADC state machine to error */
      SET_BIT(hadc->State, HAL_ADC_STATE_ERROR_INTERNAL);
 8000c98:	6c43      	ldr	r3, [r0, #68]	; 0x44
 8000c9a:	f043 0310 	orr.w	r3, r3, #16
 8000c9e:	6443      	str	r3, [r0, #68]	; 0x44
      
      /* Set ADC error code to ADC IP internal error */
      SET_BIT(hadc->ErrorCode, HAL_ADC_ERROR_INTERNAL);
 8000ca0:	6c83      	ldr	r3, [r0, #72]	; 0x48
 8000ca2:	f043 0301 	orr.w	r3, r3, #1
 8000ca6:	6483      	str	r3, [r0, #72]	; 0x48
      
      return HAL_ERROR;
 8000ca8:	2001      	movs	r0, #1
 8000caa:	bd38      	pop	{r3, r4, r5, pc}
  if (ADC_IS_ENABLE(hadc) != RESET )
 8000cac:	6813      	ldr	r3, [r2, #0]
 8000cae:	f013 0f01 	tst.w	r3, #1
 8000cb2:	d101      	bne.n	8000cb8 <ADC_Disable+0x3e>
 8000cb4:	2300      	movs	r3, #0
 8000cb6:	e7e8      	b.n	8000c8a <ADC_Disable+0x10>
 8000cb8:	2301      	movs	r3, #1
 8000cba:	e7e6      	b.n	8000c8a <ADC_Disable+0x10>
 8000cbc:	4604      	mov	r4, r0
      __HAL_ADC_DISABLE(hadc);
 8000cbe:	6893      	ldr	r3, [r2, #8]
 8000cc0:	f043 0302 	orr.w	r3, r3, #2
 8000cc4:	6093      	str	r3, [r2, #8]
 8000cc6:	6803      	ldr	r3, [r0, #0]
 8000cc8:	2203      	movs	r2, #3
 8000cca:	601a      	str	r2, [r3, #0]
    }
     
    /* Wait for ADC effectively disabled */
    tickstart = HAL_GetTick();
 8000ccc:	f7ff ffcc 	bl	8000c68 <HAL_GetTick>
 8000cd0:	4605      	mov	r5, r0
    
    while(HAL_IS_BIT_SET(hadc->Instance->CR, ADC_CR_ADEN))
 8000cd2:	6823      	ldr	r3, [r4, #0]
 8000cd4:	689b      	ldr	r3, [r3, #8]
 8000cd6:	f013 0f01 	tst.w	r3, #1
 8000cda:	d00e      	beq.n	8000cfa <ADC_Disable+0x80>
    {
      if((HAL_GetTick() - tickstart) > ADC_DISABLE_TIMEOUT)
 8000cdc:	f7ff ffc4 	bl	8000c68 <HAL_GetTick>
 8000ce0:	1b40      	subs	r0, r0, r5
 8000ce2:	2802      	cmp	r0, #2
 8000ce4:	d9f5      	bls.n	8000cd2 <ADC_Disable+0x58>
      {
        /* Update ADC state machine to error */
        SET_BIT(hadc->State, HAL_ADC_STATE_ERROR_INTERNAL);
 8000ce6:	6c63      	ldr	r3, [r4, #68]	; 0x44
 8000ce8:	f043 0310 	orr.w	r3, r3, #16
 8000cec:	6463      	str	r3, [r4, #68]	; 0x44
        
        /* Set ADC error code to ADC IP internal error */
        SET_BIT(hadc->ErrorCode, HAL_ADC_ERROR_INTERNAL);
 8000cee:	6ca3      	ldr	r3, [r4, #72]	; 0x48
 8000cf0:	f043 0301 	orr.w	r3, r3, #1
 8000cf4:	64a3      	str	r3, [r4, #72]	; 0x48
        
        return HAL_ERROR;
 8000cf6:	2001      	movs	r0, #1
 8000cf8:	bd38      	pop	{r3, r4, r5, pc}
      }
    }
  }
  
  /* Return HAL status */
  return HAL_OK;
 8000cfa:	2000      	movs	r0, #0
 8000cfc:	bd38      	pop	{r3, r4, r5, pc}
 8000cfe:	2000      	movs	r0, #0
}
 8000d00:	bd38      	pop	{r3, r4, r5, pc}
	...

08000d04 <ADC_ConversionStop>:
  assert_param(IS_ADC_ALL_INSTANCE(hadc->Instance));
  assert_param(IS_ADC_CONVERSION_GROUP(ConversionGroup));
    
  /* Verification if ADC is not already stopped (on regular and injected      */
  /* groups) to bypass this function if not needed.                           */
  if (ADC_IS_CONVERSION_ONGOING_REGULAR_INJECTED(hadc))
 8000d04:	6803      	ldr	r3, [r0, #0]
 8000d06:	689a      	ldr	r2, [r3, #8]
 8000d08:	f012 0f0c 	tst.w	r2, #12
 8000d0c:	d062      	beq.n	8000dd4 <ADC_ConversionStop+0xd0>
{
 8000d0e:	b570      	push	{r4, r5, r6, lr}
 8000d10:	4604      	mov	r4, r0
    /* auto-delay mode.                                                       */
    /* In auto-injection mode, regular group stop ADC_CR_ADSTP is used (not   */
    /* injected group stop ADC_CR_JADSTP).                                    */
    /* Procedure to be followed: Wait until JEOS=1U, clear JEOS, set ADSTP=1   */
    /* (see reference manual).                                                */
    if ((HAL_IS_BIT_SET(hadc->Instance->CFGR, ADC_CFGR_JAUTO)) &&
 8000d12:	68da      	ldr	r2, [r3, #12]
 8000d14:	f012 7f00 	tst.w	r2, #33554432	; 0x2000000
 8000d18:	d002      	beq.n	8000d20 <ADC_ConversionStop+0x1c>
         (hadc->Init.ContinuousConvMode==ENABLE)               &&
 8000d1a:	69c2      	ldr	r2, [r0, #28]
    if ((HAL_IS_BIT_SET(hadc->Instance->CFGR, ADC_CFGR_JAUTO)) &&
 8000d1c:	2a01      	cmp	r2, #1
 8000d1e:	d038      	beq.n	8000d92 <ADC_ConversionStop+0x8e>
      /* Clear JEOS */
      __HAL_ADC_CLEAR_FLAG(hadc, ADC_FLAG_JEOS);
    }
    
    /* Stop potential conversion on going on regular group */
    if (ConversionGroup != ADC_INJECTED_GROUP)
 8000d20:	2960      	cmp	r1, #96	; 0x60
 8000d22:	d00c      	beq.n	8000d3e <ADC_ConversionStop+0x3a>
    {
      /* Software is allowed to set ADSTP only when ADSTART=1 and ADDIS=0U */
      if (HAL_IS_BIT_SET(hadc->Instance->CR, ADC_CR_ADSTART) && 
 8000d24:	6823      	ldr	r3, [r4, #0]
 8000d26:	689a      	ldr	r2, [r3, #8]
 8000d28:	f012 0f04 	tst.w	r2, #4
 8000d2c:	d007      	beq.n	8000d3e <ADC_ConversionStop+0x3a>
          HAL_IS_BIT_CLR(hadc->Instance->CR, ADC_CR_ADDIS)     )
 8000d2e:	689a      	ldr	r2, [r3, #8]
      if (HAL_IS_BIT_SET(hadc->Instance->CR, ADC_CR_ADSTART) && 
 8000d30:	f012 0f02 	tst.w	r2, #2
 8000d34:	d103      	bne.n	8000d3e <ADC_ConversionStop+0x3a>
      {
        /* Stop conversions on regular group */
        hadc->Instance->CR |= ADC_CR_ADSTP;
 8000d36:	689a      	ldr	r2, [r3, #8]
 8000d38:	f042 0210 	orr.w	r2, r2, #16
 8000d3c:	609a      	str	r2, [r3, #8]
      }
    }

    /* Stop potential conversion on going on injected group */
    if (ConversionGroup != ADC_REGULAR_GROUP)
 8000d3e:	290c      	cmp	r1, #12
 8000d40:	d00c      	beq.n	8000d5c <ADC_ConversionStop+0x58>
    {
      /* Software is allowed to set JADSTP only when JADSTART=1 and ADDIS=0U */
      if (HAL_IS_BIT_SET(hadc->Instance->CR, ADC_CR_JADSTART) && 
 8000d42:	6823      	ldr	r3, [r4, #0]
 8000d44:	689a      	ldr	r2, [r3, #8]
 8000d46:	f012 0f08 	tst.w	r2, #8
 8000d4a:	d007      	beq.n	8000d5c <ADC_ConversionStop+0x58>
          HAL_IS_BIT_CLR(hadc->Instance->CR, ADC_CR_ADDIS)      )
 8000d4c:	689a      	ldr	r2, [r3, #8]
      if (HAL_IS_BIT_SET(hadc->Instance->CR, ADC_CR_JADSTART) && 
 8000d4e:	f012 0f02 	tst.w	r2, #2
 8000d52:	d103      	bne.n	8000d5c <ADC_ConversionStop+0x58>
      {
        /* Stop conversions on injected group */
        hadc->Instance->CR |= ADC_CR_JADSTP;
 8000d54:	689a      	ldr	r2, [r3, #8]
 8000d56:	f042 0220 	orr.w	r2, r2, #32
 8000d5a:	609a      	str	r2, [r3, #8]
      }
    }

    /* Selection of start and stop bits in function of regular or injected group */
    switch(ConversionGroup)
 8000d5c:	2960      	cmp	r1, #96	; 0x60
 8000d5e:	d035      	beq.n	8000dcc <ADC_ConversionStop+0xc8>
 8000d60:	296c      	cmp	r1, #108	; 0x6c
 8000d62:	d131      	bne.n	8000dc8 <ADC_ConversionStop+0xc4>
    {
    case ADC_REGULAR_INJECTED_GROUP:
        tmp_ADC_CR_ADSTART_JADSTART = (ADC_CR_ADSTART | ADC_CR_JADSTART);
 8000d64:	250c      	movs	r5, #12
        tmp_ADC_CR_ADSTART_JADSTART = ADC_CR_ADSTART;
        break;
    }
    
    /* Wait for conversion effectively stopped */
    tickstart = HAL_GetTick();
 8000d66:	f7ff ff7f 	bl	8000c68 <HAL_GetTick>
 8000d6a:	4606      	mov	r6, r0
      
    while((hadc->Instance->CR & tmp_ADC_CR_ADSTART_JADSTART) != RESET)
 8000d6c:	6823      	ldr	r3, [r4, #0]
 8000d6e:	689b      	ldr	r3, [r3, #8]
 8000d70:	421d      	tst	r5, r3
 8000d72:	d02d      	beq.n	8000dd0 <ADC_ConversionStop+0xcc>
    {
      if((HAL_GetTick() - tickstart) > ADC_STOP_CONVERSION_TIMEOUT)
 8000d74:	f7ff ff78 	bl	8000c68 <HAL_GetTick>
 8000d78:	1b80      	subs	r0, r0, r6
 8000d7a:	280b      	cmp	r0, #11
 8000d7c:	d9f6      	bls.n	8000d6c <ADC_ConversionStop+0x68>
      {
        /* Update ADC state machine to error */
        SET_BIT(hadc->State, HAL_ADC_STATE_ERROR_INTERNAL);
 8000d7e:	6c63      	ldr	r3, [r4, #68]	; 0x44
 8000d80:	f043 0310 	orr.w	r3, r3, #16
 8000d84:	6463      	str	r3, [r4, #68]	; 0x44
        
        /* Set ADC error code to ADC IP internal error */
        SET_BIT(hadc->ErrorCode, HAL_ADC_ERROR_INTERNAL);
 8000d86:	6ca3      	ldr	r3, [r4, #72]	; 0x48
 8000d88:	f043 0301 	orr.w	r3, r3, #1
 8000d8c:	64a3      	str	r3, [r4, #72]	; 0x48
        
        return HAL_ERROR;
 8000d8e:	2001      	movs	r0, #1
 8000d90:	bd70      	pop	{r4, r5, r6, pc}
         (hadc->Init.LowPowerAutoWait==ENABLE)                   )
 8000d92:	6982      	ldr	r2, [r0, #24]
         (hadc->Init.ContinuousConvMode==ENABLE)               &&
 8000d94:	2a01      	cmp	r2, #1
 8000d96:	d1c3      	bne.n	8000d20 <ADC_ConversionStop+0x1c>
 8000d98:	2200      	movs	r2, #0
      while(__HAL_ADC_GET_FLAG(hadc, ADC_FLAG_JEOS) == RESET)
 8000d9a:	6819      	ldr	r1, [r3, #0]
 8000d9c:	f011 0f40 	tst.w	r1, #64	; 0x40
 8000da0:	d10e      	bne.n	8000dc0 <ADC_ConversionStop+0xbc>
        if (Conversion_Timeout_CPU_cycles >= (ADC_CONVERSION_TIME_MAX_CPU_CYCLES *4U))
 8000da2:	490d      	ldr	r1, [pc, #52]	; (8000dd8 <ADC_ConversionStop+0xd4>)
 8000da4:	428a      	cmp	r2, r1
 8000da6:	d801      	bhi.n	8000dac <ADC_ConversionStop+0xa8>
        Conversion_Timeout_CPU_cycles ++;
 8000da8:	3201      	adds	r2, #1
 8000daa:	e7f6      	b.n	8000d9a <ADC_ConversionStop+0x96>
          SET_BIT(hadc->State, HAL_ADC_STATE_ERROR_INTERNAL);
 8000dac:	6c63      	ldr	r3, [r4, #68]	; 0x44
 8000dae:	f043 0310 	orr.w	r3, r3, #16
 8000db2:	6463      	str	r3, [r4, #68]	; 0x44
          SET_BIT(hadc->ErrorCode, HAL_ADC_ERROR_INTERNAL);
 8000db4:	6ca3      	ldr	r3, [r4, #72]	; 0x48
 8000db6:	f043 0301 	orr.w	r3, r3, #1
 8000dba:	64a3      	str	r3, [r4, #72]	; 0x48
          return HAL_ERROR;
 8000dbc:	2001      	movs	r0, #1
 8000dbe:	bd70      	pop	{r4, r5, r6, pc}
      __HAL_ADC_CLEAR_FLAG(hadc, ADC_FLAG_JEOS);
 8000dc0:	2240      	movs	r2, #64	; 0x40
 8000dc2:	601a      	str	r2, [r3, #0]
      ConversionGroup = ADC_REGULAR_GROUP;
 8000dc4:	210c      	movs	r1, #12
 8000dc6:	e7ab      	b.n	8000d20 <ADC_ConversionStop+0x1c>
        tmp_ADC_CR_ADSTART_JADSTART = ADC_CR_ADSTART;
 8000dc8:	2504      	movs	r5, #4
        break;
 8000dca:	e7cc      	b.n	8000d66 <ADC_ConversionStop+0x62>
        tmp_ADC_CR_ADSTART_JADSTART = ADC_CR_JADSTART;
 8000dcc:	2508      	movs	r5, #8
 8000dce:	e7ca      	b.n	8000d66 <ADC_ConversionStop+0x62>
    }
    
  }
   
  /* Return HAL status */
  return HAL_OK;
 8000dd0:	2000      	movs	r0, #0
 8000dd2:	bd70      	pop	{r4, r5, r6, pc}
 8000dd4:	2000      	movs	r0, #0
 8000dd6:	4770      	bx	lr
 8000dd8:	000993ff 	.word	0x000993ff

08000ddc <ADC_Enable>:
{
 8000ddc:	b538      	push	{r3, r4, r5, lr}
  if (ADC_IS_ENABLE(hadc) == RESET)
 8000dde:	6802      	ldr	r2, [r0, #0]
 8000de0:	6893      	ldr	r3, [r2, #8]
 8000de2:	f003 0303 	and.w	r3, r3, #3
 8000de6:	2b01      	cmp	r3, #1
 8000de8:	d010      	beq.n	8000e0c <ADC_Enable+0x30>
 8000dea:	2300      	movs	r3, #0
 8000dec:	2b00      	cmp	r3, #0
 8000dee:	d133      	bne.n	8000e58 <ADC_Enable+0x7c>
    if (ADC_ENABLING_CONDITIONS(hadc) == RESET)
 8000df0:	6891      	ldr	r1, [r2, #8]
 8000df2:	4b1a      	ldr	r3, [pc, #104]	; (8000e5c <ADC_Enable+0x80>)
 8000df4:	4219      	tst	r1, r3
 8000df6:	d011      	beq.n	8000e1c <ADC_Enable+0x40>
      SET_BIT(hadc->State, HAL_ADC_STATE_ERROR_INTERNAL);
 8000df8:	6c43      	ldr	r3, [r0, #68]	; 0x44
 8000dfa:	f043 0310 	orr.w	r3, r3, #16
 8000dfe:	6443      	str	r3, [r0, #68]	; 0x44
      SET_BIT(hadc->ErrorCode, HAL_ADC_ERROR_INTERNAL);
 8000e00:	6c83      	ldr	r3, [r0, #72]	; 0x48
 8000e02:	f043 0301 	orr.w	r3, r3, #1
 8000e06:	6483      	str	r3, [r0, #72]	; 0x48
      return HAL_ERROR;
 8000e08:	2001      	movs	r0, #1
 8000e0a:	bd38      	pop	{r3, r4, r5, pc}
  if (ADC_IS_ENABLE(hadc) == RESET)
 8000e0c:	6813      	ldr	r3, [r2, #0]
 8000e0e:	f013 0f01 	tst.w	r3, #1
 8000e12:	d101      	bne.n	8000e18 <ADC_Enable+0x3c>
 8000e14:	2300      	movs	r3, #0
 8000e16:	e7e9      	b.n	8000dec <ADC_Enable+0x10>
 8000e18:	2301      	movs	r3, #1
 8000e1a:	e7e7      	b.n	8000dec <ADC_Enable+0x10>
 8000e1c:	4604      	mov	r4, r0
    __HAL_ADC_ENABLE(hadc);
 8000e1e:	6893      	ldr	r3, [r2, #8]
 8000e20:	f043 0301 	orr.w	r3, r3, #1
 8000e24:	6093      	str	r3, [r2, #8]
    tickstart = HAL_GetTick();  
 8000e26:	f7ff ff1f 	bl	8000c68 <HAL_GetTick>
 8000e2a:	4605      	mov	r5, r0
    while(__HAL_ADC_GET_FLAG(hadc, ADC_FLAG_RDY) == RESET)
 8000e2c:	6823      	ldr	r3, [r4, #0]
 8000e2e:	681b      	ldr	r3, [r3, #0]
 8000e30:	f013 0f01 	tst.w	r3, #1
 8000e34:	d10e      	bne.n	8000e54 <ADC_Enable+0x78>
      if((HAL_GetTick() - tickstart) > ADC_ENABLE_TIMEOUT)
 8000e36:	f7ff ff17 	bl	8000c68 <HAL_GetTick>
 8000e3a:	1b40      	subs	r0, r0, r5
 8000e3c:	2802      	cmp	r0, #2
 8000e3e:	d9f5      	bls.n	8000e2c <ADC_Enable+0x50>
        SET_BIT(hadc->State, HAL_ADC_STATE_ERROR_INTERNAL);
 8000e40:	6c63      	ldr	r3, [r4, #68]	; 0x44
 8000e42:	f043 0310 	orr.w	r3, r3, #16
 8000e46:	6463      	str	r3, [r4, #68]	; 0x44
        SET_BIT(hadc->ErrorCode, HAL_ADC_ERROR_INTERNAL);
 8000e48:	6ca3      	ldr	r3, [r4, #72]	; 0x48
 8000e4a:	f043 0301 	orr.w	r3, r3, #1
 8000e4e:	64a3      	str	r3, [r4, #72]	; 0x48
        return HAL_ERROR;
 8000e50:	2001      	movs	r0, #1
 8000e52:	bd38      	pop	{r3, r4, r5, pc}
  return HAL_OK;
 8000e54:	2000      	movs	r0, #0
 8000e56:	bd38      	pop	{r3, r4, r5, pc}
 8000e58:	2000      	movs	r0, #0
}
 8000e5a:	bd38      	pop	{r3, r4, r5, pc}
 8000e5c:	8000003f 	.word	0x8000003f

08000e60 <HAL_ADC_Init>:
{
 8000e60:	b530      	push	{r4, r5, lr}
 8000e62:	b097      	sub	sp, #92	; 0x5c
  __IO uint32_t wait_loop_index = 0U;
 8000e64:	2300      	movs	r3, #0
 8000e66:	9300      	str	r3, [sp, #0]
  if(hadc == NULL)
 8000e68:	2800      	cmp	r0, #0
 8000e6a:	f000 80fb 	beq.w	8001064 <HAL_ADC_Init+0x204>
 8000e6e:	4604      	mov	r4, r0
  if (HAL_IS_BIT_CLR(hadc->State, HAL_ADC_STATE_ERROR_INTERNAL))
 8000e70:	6c43      	ldr	r3, [r0, #68]	; 0x44
 8000e72:	f013 0f10 	tst.w	r3, #16
 8000e76:	d151      	bne.n	8000f1c <HAL_ADC_Init+0xbc>
    if (hadc->State == HAL_ADC_STATE_RESET)
 8000e78:	6c43      	ldr	r3, [r0, #68]	; 0x44
 8000e7a:	b1ab      	cbz	r3, 8000ea8 <HAL_ADC_Init+0x48>
  HAL_StatusTypeDef tmp_hal_status = HAL_OK;
 8000e7c:	2000      	movs	r0, #0
    if (HAL_IS_BIT_CLR(hadc->Instance->CR, ADC_CR_ADVREGEN_0) ||
 8000e7e:	6823      	ldr	r3, [r4, #0]
 8000e80:	689a      	ldr	r2, [r3, #8]
 8000e82:	f012 5f80 	tst.w	r2, #268435456	; 0x10000000
 8000e86:	d003      	beq.n	8000e90 <HAL_ADC_Init+0x30>
        HAL_IS_BIT_SET(hadc->Instance->CR, ADC_CR_ADVREGEN_1)   )
 8000e88:	689b      	ldr	r3, [r3, #8]
    if (HAL_IS_BIT_CLR(hadc->Instance->CR, ADC_CR_ADVREGEN_0) ||
 8000e8a:	f013 5f00 	tst.w	r3, #536870912	; 0x20000000
 8000e8e:	d046      	beq.n	8000f1e <HAL_ADC_Init+0xbe>
      ADC_STATE_CLR_SET(hadc->State,
 8000e90:	6c63      	ldr	r3, [r4, #68]	; 0x44
 8000e92:	f023 0312 	bic.w	r3, r3, #18
 8000e96:	f043 0310 	orr.w	r3, r3, #16
 8000e9a:	6463      	str	r3, [r4, #68]	; 0x44
      SET_BIT(hadc->ErrorCode, HAL_ADC_ERROR_INTERNAL);
 8000e9c:	6ca3      	ldr	r3, [r4, #72]	; 0x48
 8000e9e:	f043 0301 	orr.w	r3, r3, #1
 8000ea2:	64a3      	str	r3, [r4, #72]	; 0x48
      tmp_hal_status = HAL_ERROR;
 8000ea4:	2001      	movs	r0, #1
 8000ea6:	e03a      	b.n	8000f1e <HAL_ADC_Init+0xbe>
      ADC_CLEAR_ERRORCODE(hadc);
 8000ea8:	6483      	str	r3, [r0, #72]	; 0x48
      hadc->InjectionConfig.ChannelCount = 0U;
 8000eaa:	6503      	str	r3, [r0, #80]	; 0x50
      hadc->InjectionConfig.ContextQueue = 0U;
 8000eac:	64c3      	str	r3, [r0, #76]	; 0x4c
      hadc->Lock = HAL_UNLOCKED;
 8000eae:	f880 3040 	strb.w	r3, [r0, #64]	; 0x40
      HAL_ADC_MspInit(hadc);
 8000eb2:	f005 f82d 	bl	8005f10 <HAL_ADC_MspInit>
      if (HAL_IS_BIT_CLR(hadc->Instance->CR, ADC_CR_ADVREGEN_0))
 8000eb6:	6823      	ldr	r3, [r4, #0]
 8000eb8:	689b      	ldr	r3, [r3, #8]
 8000eba:	f013 5f80 	tst.w	r3, #268435456	; 0x10000000
 8000ebe:	d001      	beq.n	8000ec4 <HAL_ADC_Init+0x64>
  HAL_StatusTypeDef tmp_hal_status = HAL_OK;
 8000ec0:	2000      	movs	r0, #0
 8000ec2:	e7dc      	b.n	8000e7e <HAL_ADC_Init+0x1e>
        tmp_hal_status = ADC_Disable(hadc);
 8000ec4:	4620      	mov	r0, r4
 8000ec6:	f7ff fed8 	bl	8000c7a <ADC_Disable>
        if (HAL_IS_BIT_CLR(hadc->State, HAL_ADC_STATE_ERROR_INTERNAL) &&
 8000eca:	6c63      	ldr	r3, [r4, #68]	; 0x44
 8000ecc:	f013 0f10 	tst.w	r3, #16
 8000ed0:	d1d5      	bne.n	8000e7e <HAL_ADC_Init+0x1e>
 8000ed2:	2800      	cmp	r0, #0
 8000ed4:	d1d3      	bne.n	8000e7e <HAL_ADC_Init+0x1e>
          ADC_STATE_CLR_SET(hadc->State,
 8000ed6:	6c63      	ldr	r3, [r4, #68]	; 0x44
 8000ed8:	f423 5388 	bic.w	r3, r3, #4352	; 0x1100
 8000edc:	f023 0302 	bic.w	r3, r3, #2
 8000ee0:	f043 0302 	orr.w	r3, r3, #2
 8000ee4:	6463      	str	r3, [r4, #68]	; 0x44
          CLEAR_BIT(hadc->Instance->CR, (ADC_CR_ADVREGEN_1 | ADC_CR_ADVREGEN_0));
 8000ee6:	6822      	ldr	r2, [r4, #0]
 8000ee8:	6893      	ldr	r3, [r2, #8]
 8000eea:	f023 5340 	bic.w	r3, r3, #805306368	; 0x30000000
 8000eee:	6093      	str	r3, [r2, #8]
          SET_BIT(hadc->Instance->CR, ADC_CR_ADVREGEN_0);
 8000ef0:	6822      	ldr	r2, [r4, #0]
 8000ef2:	6893      	ldr	r3, [r2, #8]
 8000ef4:	f043 5380 	orr.w	r3, r3, #268435456	; 0x10000000
 8000ef8:	6093      	str	r3, [r2, #8]
          wait_loop_index = (ADC_STAB_DELAY_US * (SystemCoreClock / 1000000U));
 8000efa:	4b5b      	ldr	r3, [pc, #364]	; (8001068 <HAL_ADC_Init+0x208>)
 8000efc:	681b      	ldr	r3, [r3, #0]
 8000efe:	4a5b      	ldr	r2, [pc, #364]	; (800106c <HAL_ADC_Init+0x20c>)
 8000f00:	fba2 2303 	umull	r2, r3, r2, r3
 8000f04:	0c9b      	lsrs	r3, r3, #18
 8000f06:	eb03 0383 	add.w	r3, r3, r3, lsl #2
 8000f0a:	005a      	lsls	r2, r3, #1
 8000f0c:	9200      	str	r2, [sp, #0]
          while(wait_loop_index != 0U)
 8000f0e:	9b00      	ldr	r3, [sp, #0]
 8000f10:	2b00      	cmp	r3, #0
 8000f12:	d0b4      	beq.n	8000e7e <HAL_ADC_Init+0x1e>
            wait_loop_index--;
 8000f14:	9b00      	ldr	r3, [sp, #0]
 8000f16:	3b01      	subs	r3, #1
 8000f18:	9300      	str	r3, [sp, #0]
 8000f1a:	e7f8      	b.n	8000f0e <HAL_ADC_Init+0xae>
  HAL_StatusTypeDef tmp_hal_status = HAL_OK;
 8000f1c:	2000      	movs	r0, #0
  if (HAL_IS_BIT_CLR(hadc->State, HAL_ADC_STATE_ERROR_INTERNAL) &&
 8000f1e:	6c63      	ldr	r3, [r4, #68]	; 0x44
 8000f20:	f013 0f10 	tst.w	r3, #16
 8000f24:	f040 8095 	bne.w	8001052 <HAL_ADC_Init+0x1f2>
 8000f28:	2800      	cmp	r0, #0
 8000f2a:	f040 8092 	bne.w	8001052 <HAL_ADC_Init+0x1f2>
      (ADC_IS_CONVERSION_ONGOING_REGULAR(hadc) == RESET)          )
 8000f2e:	6822      	ldr	r2, [r4, #0]
 8000f30:	6893      	ldr	r3, [r2, #8]
      (tmp_hal_status == HAL_OK)                                &&
 8000f32:	f013 0304 	ands.w	r3, r3, #4
 8000f36:	f040 808c 	bne.w	8001052 <HAL_ADC_Init+0x1f2>
    ADC_STATE_CLR_SET(hadc->State,
 8000f3a:	6c61      	ldr	r1, [r4, #68]	; 0x44
 8000f3c:	f421 7181 	bic.w	r1, r1, #258	; 0x102
 8000f40:	f041 0102 	orr.w	r1, r1, #2
 8000f44:	6461      	str	r1, [r4, #68]	; 0x44
    ADC_COMMON_ADC_OTHER(hadc, &tmphadcSharingSameCommonRegister);
 8000f46:	f1b2 4fa0 	cmp.w	r2, #1342177280	; 0x50000000
 8000f4a:	d055      	beq.n	8000ff8 <HAL_ADC_Init+0x198>
 8000f4c:	f04f 41a0 	mov.w	r1, #1342177280	; 0x50000000
 8000f50:	9101      	str	r1, [sp, #4]
    if ((ADC_IS_ENABLE(hadc) == RESET)                                   &&
 8000f52:	6891      	ldr	r1, [r2, #8]
 8000f54:	f001 0103 	and.w	r1, r1, #3
 8000f58:	2901      	cmp	r1, #1
 8000f5a:	d050      	beq.n	8000ffe <HAL_ADC_Init+0x19e>
 8000f5c:	2200      	movs	r2, #0
 8000f5e:	b972      	cbnz	r2, 8000f7e <HAL_ADC_Init+0x11e>
        ((tmphadcSharingSameCommonRegister.Instance == NULL)         ||
 8000f60:	9d01      	ldr	r5, [sp, #4]
    if ((ADC_IS_ENABLE(hadc) == RESET)                                   &&
 8000f62:	b12d      	cbz	r5, 8000f70 <HAL_ADC_Init+0x110>
         (ADC_IS_ENABLE(&tmphadcSharingSameCommonRegister) == RESET)   )   )
 8000f64:	68a9      	ldr	r1, [r5, #8]
 8000f66:	f001 0103 	and.w	r1, r1, #3
 8000f6a:	2901      	cmp	r1, #1
 8000f6c:	d04f      	beq.n	800100e <HAL_ADC_Init+0x1ae>
        ((tmphadcSharingSameCommonRegister.Instance == NULL)         ||
 8000f6e:	b932      	cbnz	r2, 8000f7e <HAL_ADC_Init+0x11e>
      MODIFY_REG(tmpADC_Common->CCR       ,
 8000f70:	493f      	ldr	r1, [pc, #252]	; (8001070 <HAL_ADC_Init+0x210>)
 8000f72:	688a      	ldr	r2, [r1, #8]
 8000f74:	f422 3240 	bic.w	r2, r2, #196608	; 0x30000
 8000f78:	6865      	ldr	r5, [r4, #4]
 8000f7a:	432a      	orrs	r2, r5
 8000f7c:	608a      	str	r2, [r1, #8]
    SET_BIT(tmpCFGR, ADC_CFGR_CONTINUOUS(hadc->Init.ContinuousConvMode) |
 8000f7e:	69e2      	ldr	r2, [r4, #28]
 8000f80:	0351      	lsls	r1, r2, #13
 8000f82:	6ba5      	ldr	r5, [r4, #56]	; 0x38
 8000f84:	2d01      	cmp	r5, #1
 8000f86:	d001      	beq.n	8000f8c <HAL_ADC_Init+0x12c>
 8000f88:	f44f 5380 	mov.w	r3, #4096	; 0x1000
 8000f8c:	430b      	orrs	r3, r1
 8000f8e:	68e1      	ldr	r1, [r4, #12]
 8000f90:	430b      	orrs	r3, r1
 8000f92:	68a1      	ldr	r1, [r4, #8]
 8000f94:	430b      	orrs	r3, r1
    if (hadc->Init.DiscontinuousConvMode == ENABLE)
 8000f96:	6a61      	ldr	r1, [r4, #36]	; 0x24
 8000f98:	2901      	cmp	r1, #1
 8000f9a:	d03e      	beq.n	800101a <HAL_ADC_Init+0x1ba>
    if (hadc->Init.ExternalTrigConv != ADC_SOFTWARE_START)
 8000f9c:	6ae2      	ldr	r2, [r4, #44]	; 0x2c
 8000f9e:	2a01      	cmp	r2, #1
 8000fa0:	d002      	beq.n	8000fa8 <HAL_ADC_Init+0x148>
      SET_BIT(tmpCFGR, ADC_CFGR_EXTSEL_SET(hadc, hadc->Init.ExternalTrigConv) |
 8000fa2:	6b21      	ldr	r1, [r4, #48]	; 0x30
 8000fa4:	430a      	orrs	r2, r1
 8000fa6:	4313      	orrs	r3, r2
    if (ADC_IS_CONVERSION_ONGOING_REGULAR_INJECTED(hadc) == RESET)
 8000fa8:	6822      	ldr	r2, [r4, #0]
 8000faa:	6891      	ldr	r1, [r2, #8]
 8000fac:	f011 0f0c 	tst.w	r1, #12
 8000fb0:	d10b      	bne.n	8000fca <HAL_ADC_Init+0x16a>
      CLEAR_BIT(hadc->Instance->CFGR, ADC_CFGR_AUTDLY |
 8000fb2:	68d1      	ldr	r1, [r2, #12]
 8000fb4:	f421 4180 	bic.w	r1, r1, #16384	; 0x4000
 8000fb8:	f021 0102 	bic.w	r1, r1, #2
 8000fbc:	60d1      	str	r1, [r2, #12]
      SET_BIT(tmpCFGR, ADC_CFGR_AUTOWAIT(hadc->Init.LowPowerAutoWait)       |
 8000fbe:	69a1      	ldr	r1, [r4, #24]
 8000fc0:	6b62      	ldr	r2, [r4, #52]	; 0x34
 8000fc2:	0052      	lsls	r2, r2, #1
 8000fc4:	ea42 3281 	orr.w	r2, r2, r1, lsl #14
 8000fc8:	4313      	orrs	r3, r2
    MODIFY_REG(hadc->Instance->CFGR,
 8000fca:	6821      	ldr	r1, [r4, #0]
 8000fcc:	68cd      	ldr	r5, [r1, #12]
 8000fce:	4a29      	ldr	r2, [pc, #164]	; (8001074 <HAL_ADC_Init+0x214>)
 8000fd0:	402a      	ands	r2, r5
 8000fd2:	4313      	orrs	r3, r2
 8000fd4:	60cb      	str	r3, [r1, #12]
    if (hadc->Init.ScanConvMode == ADC_SCAN_ENABLE)
 8000fd6:	6923      	ldr	r3, [r4, #16]
 8000fd8:	2b01      	cmp	r3, #1
 8000fda:	d031      	beq.n	8001040 <HAL_ADC_Init+0x1e0>
      CLEAR_BIT(hadc->Instance->SQR1, ADC_SQR1_L);
 8000fdc:	6822      	ldr	r2, [r4, #0]
 8000fde:	6b13      	ldr	r3, [r2, #48]	; 0x30
 8000fe0:	f023 030f 	bic.w	r3, r3, #15
 8000fe4:	6313      	str	r3, [r2, #48]	; 0x30
    ADC_CLEAR_ERRORCODE(hadc);
 8000fe6:	2300      	movs	r3, #0
 8000fe8:	64a3      	str	r3, [r4, #72]	; 0x48
    ADC_STATE_CLR_SET(hadc->State,
 8000fea:	6c63      	ldr	r3, [r4, #68]	; 0x44
 8000fec:	f023 0303 	bic.w	r3, r3, #3
 8000ff0:	f043 0301 	orr.w	r3, r3, #1
 8000ff4:	6463      	str	r3, [r4, #68]	; 0x44
 8000ff6:	e033      	b.n	8001060 <HAL_ADC_Init+0x200>
    ADC_COMMON_ADC_OTHER(hadc, &tmphadcSharingSameCommonRegister);
 8000ff8:	491f      	ldr	r1, [pc, #124]	; (8001078 <HAL_ADC_Init+0x218>)
 8000ffa:	9101      	str	r1, [sp, #4]
 8000ffc:	e7a9      	b.n	8000f52 <HAL_ADC_Init+0xf2>
    if ((ADC_IS_ENABLE(hadc) == RESET)                                   &&
 8000ffe:	6812      	ldr	r2, [r2, #0]
 8001000:	f012 0f01 	tst.w	r2, #1
 8001004:	d101      	bne.n	800100a <HAL_ADC_Init+0x1aa>
 8001006:	2200      	movs	r2, #0
 8001008:	e7a9      	b.n	8000f5e <HAL_ADC_Init+0xfe>
 800100a:	2201      	movs	r2, #1
 800100c:	e7a7      	b.n	8000f5e <HAL_ADC_Init+0xfe>
         (ADC_IS_ENABLE(&tmphadcSharingSameCommonRegister) == RESET)   )   )
 800100e:	6829      	ldr	r1, [r5, #0]
 8001010:	f011 0f01 	tst.w	r1, #1
 8001014:	d0ab      	beq.n	8000f6e <HAL_ADC_Init+0x10e>
 8001016:	2201      	movs	r2, #1
 8001018:	e7a9      	b.n	8000f6e <HAL_ADC_Init+0x10e>
      if (hadc->Init.ContinuousConvMode == DISABLE)
 800101a:	b932      	cbnz	r2, 800102a <HAL_ADC_Init+0x1ca>
        SET_BIT(tmpCFGR, ADC_CFGR_DISCEN                                            |
 800101c:	6aa2      	ldr	r2, [r4, #40]	; 0x28
 800101e:	3a01      	subs	r2, #1
 8001020:	ea43 4342 	orr.w	r3, r3, r2, lsl #17
 8001024:	f443 3380 	orr.w	r3, r3, #65536	; 0x10000
 8001028:	e7b8      	b.n	8000f9c <HAL_ADC_Init+0x13c>
        ADC_STATE_CLR_SET(hadc->State,
 800102a:	6c62      	ldr	r2, [r4, #68]	; 0x44
 800102c:	f022 0222 	bic.w	r2, r2, #34	; 0x22
 8001030:	f042 0220 	orr.w	r2, r2, #32
 8001034:	6462      	str	r2, [r4, #68]	; 0x44
        SET_BIT(hadc->ErrorCode, HAL_ADC_ERROR_INTERNAL);
 8001036:	6ca2      	ldr	r2, [r4, #72]	; 0x48
 8001038:	f042 0201 	orr.w	r2, r2, #1
 800103c:	64a2      	str	r2, [r4, #72]	; 0x48
 800103e:	e7ad      	b.n	8000f9c <HAL_ADC_Init+0x13c>
      MODIFY_REG(hadc->Instance->SQR1                     ,
 8001040:	6821      	ldr	r1, [r4, #0]
 8001042:	6b0b      	ldr	r3, [r1, #48]	; 0x30
 8001044:	f023 030f 	bic.w	r3, r3, #15
 8001048:	6a22      	ldr	r2, [r4, #32]
 800104a:	3a01      	subs	r2, #1
 800104c:	4313      	orrs	r3, r2
 800104e:	630b      	str	r3, [r1, #48]	; 0x30
 8001050:	e7c9      	b.n	8000fe6 <HAL_ADC_Init+0x186>
    ADC_STATE_CLR_SET(hadc->State,
 8001052:	6c63      	ldr	r3, [r4, #68]	; 0x44
 8001054:	f023 0312 	bic.w	r3, r3, #18
 8001058:	f043 0310 	orr.w	r3, r3, #16
 800105c:	6463      	str	r3, [r4, #68]	; 0x44
    tmp_hal_status = HAL_ERROR; 
 800105e:	2001      	movs	r0, #1
}
 8001060:	b017      	add	sp, #92	; 0x5c
 8001062:	bd30      	pop	{r4, r5, pc}
    return HAL_ERROR;
 8001064:	2001      	movs	r0, #1
 8001066:	e7fb      	b.n	8001060 <HAL_ADC_Init+0x200>
 8001068:	20000008 	.word	0x20000008
 800106c:	431bde83 	.word	0x431bde83
 8001070:	50000300 	.word	0x50000300
 8001074:	fff0c007 	.word	0xfff0c007
 8001078:	50000100 	.word	0x50000100

0800107c <HAL_ADC_Start>:
  if (ADC_IS_CONVERSION_ONGOING_REGULAR(hadc) == RESET)
 800107c:	6803      	ldr	r3, [r0, #0]
 800107e:	689b      	ldr	r3, [r3, #8]
 8001080:	f013 0f04 	tst.w	r3, #4
 8001084:	d002      	beq.n	800108c <HAL_ADC_Start+0x10>
    tmp_hal_status = HAL_BUSY;
 8001086:	2302      	movs	r3, #2
}
 8001088:	4618      	mov	r0, r3
 800108a:	4770      	bx	lr
    __HAL_LOCK(hadc);
 800108c:	f890 3040 	ldrb.w	r3, [r0, #64]	; 0x40
 8001090:	2b01      	cmp	r3, #1
 8001092:	d101      	bne.n	8001098 <HAL_ADC_Start+0x1c>
 8001094:	2302      	movs	r3, #2
 8001096:	e7f7      	b.n	8001088 <HAL_ADC_Start+0xc>
{
 8001098:	b510      	push	{r4, lr}
 800109a:	4604      	mov	r4, r0
    __HAL_LOCK(hadc);
 800109c:	2301      	movs	r3, #1
 800109e:	f880 3040 	strb.w	r3, [r0, #64]	; 0x40
    tmp_hal_status = ADC_Enable(hadc);
 80010a2:	f7ff fe9b 	bl	8000ddc <ADC_Enable>
    if (tmp_hal_status == HAL_OK)
 80010a6:	4603      	mov	r3, r0
 80010a8:	2800      	cmp	r0, #0
 80010aa:	d160      	bne.n	800116e <HAL_ADC_Start+0xf2>
      ADC_STATE_CLR_SET(hadc->State,
 80010ac:	6c62      	ldr	r2, [r4, #68]	; 0x44
 80010ae:	f422 6270 	bic.w	r2, r2, #3840	; 0xf00
 80010b2:	f022 0201 	bic.w	r2, r2, #1
 80010b6:	f442 7280 	orr.w	r2, r2, #256	; 0x100
 80010ba:	6462      	str	r2, [r4, #68]	; 0x44
      if (ADC_NONMULTIMODE_OR_MULTIMODEMASTER(hadc))
 80010bc:	4a2e      	ldr	r2, [pc, #184]	; (8001178 <HAL_ADC_Start+0xfc>)
 80010be:	6892      	ldr	r2, [r2, #8]
 80010c0:	f012 0f1f 	tst.w	r2, #31
 80010c4:	d033      	beq.n	800112e <HAL_ADC_Start+0xb2>
 80010c6:	6821      	ldr	r1, [r4, #0]
 80010c8:	f1b1 4fa0 	cmp.w	r1, #1342177280	; 0x50000000
 80010cc:	d02f      	beq.n	800112e <HAL_ADC_Start+0xb2>
        SET_BIT(hadc->State, HAL_ADC_STATE_MULTIMODE_SLAVE);
 80010ce:	6c62      	ldr	r2, [r4, #68]	; 0x44
 80010d0:	f442 1280 	orr.w	r2, r2, #1048576	; 0x100000
 80010d4:	6462      	str	r2, [r4, #68]	; 0x44
        if (ADC_MULTIMODE_AUTO_INJECTED(hadc))
 80010d6:	4a29      	ldr	r2, [pc, #164]	; (800117c <HAL_ADC_Start+0x100>)
 80010d8:	4291      	cmp	r1, r2
 80010da:	d038      	beq.n	800114e <HAL_ADC_Start+0xd2>
      if (HAL_IS_BIT_SET(hadc->State, HAL_ADC_STATE_INJ_BUSY))
 80010dc:	6c62      	ldr	r2, [r4, #68]	; 0x44
 80010de:	f412 5f80 	tst.w	r2, #4096	; 0x1000
 80010e2:	d041      	beq.n	8001168 <HAL_ADC_Start+0xec>
        CLEAR_BIT(hadc->ErrorCode, (HAL_ADC_ERROR_OVR | HAL_ADC_ERROR_DMA));         
 80010e4:	6ca2      	ldr	r2, [r4, #72]	; 0x48
 80010e6:	f022 0206 	bic.w	r2, r2, #6
 80010ea:	64a2      	str	r2, [r4, #72]	; 0x48
      __HAL_UNLOCK(hadc);
 80010ec:	2200      	movs	r2, #0
 80010ee:	f884 2040 	strb.w	r2, [r4, #64]	; 0x40
      __HAL_ADC_CLEAR_FLAG(hadc, (ADC_FLAG_EOC | ADC_FLAG_EOS | ADC_FLAG_OVR));
 80010f2:	6822      	ldr	r2, [r4, #0]
 80010f4:	211c      	movs	r1, #28
 80010f6:	6011      	str	r1, [r2, #0]
      if (ADC_NONMULTIMODE_REG_OR_MULTIMODEMASTER(hadc))
 80010f8:	4a1f      	ldr	r2, [pc, #124]	; (8001178 <HAL_ADC_Start+0xfc>)
 80010fa:	6892      	ldr	r2, [r2, #8]
 80010fc:	f012 0f1f 	tst.w	r2, #31
 8001100:	d00f      	beq.n	8001122 <HAL_ADC_Start+0xa6>
 8001102:	4a1d      	ldr	r2, [pc, #116]	; (8001178 <HAL_ADC_Start+0xfc>)
 8001104:	6892      	ldr	r2, [r2, #8]
 8001106:	f002 021f 	and.w	r2, r2, #31
 800110a:	2a05      	cmp	r2, #5
 800110c:	d009      	beq.n	8001122 <HAL_ADC_Start+0xa6>
 800110e:	4a1a      	ldr	r2, [pc, #104]	; (8001178 <HAL_ADC_Start+0xfc>)
 8001110:	6892      	ldr	r2, [r2, #8]
 8001112:	f002 021f 	and.w	r2, r2, #31
 8001116:	2a09      	cmp	r2, #9
 8001118:	d003      	beq.n	8001122 <HAL_ADC_Start+0xa6>
 800111a:	6822      	ldr	r2, [r4, #0]
 800111c:	f1b2 4fa0 	cmp.w	r2, #1342177280	; 0x50000000
 8001120:	d128      	bne.n	8001174 <HAL_ADC_Start+0xf8>
        SET_BIT(hadc->Instance->CR, ADC_CR_ADSTART);
 8001122:	6821      	ldr	r1, [r4, #0]
 8001124:	688a      	ldr	r2, [r1, #8]
 8001126:	f042 0204 	orr.w	r2, r2, #4
 800112a:	608a      	str	r2, [r1, #8]
 800112c:	e022      	b.n	8001174 <HAL_ADC_Start+0xf8>
        CLEAR_BIT(hadc->State, HAL_ADC_STATE_MULTIMODE_SLAVE);
 800112e:	6c62      	ldr	r2, [r4, #68]	; 0x44
 8001130:	f422 1280 	bic.w	r2, r2, #1048576	; 0x100000
 8001134:	6462      	str	r2, [r4, #68]	; 0x44
        if (READ_BIT(hadc->Instance->CFGR, ADC_CFGR_JAUTO) != RESET)
 8001136:	6822      	ldr	r2, [r4, #0]
 8001138:	68d2      	ldr	r2, [r2, #12]
 800113a:	f012 7f00 	tst.w	r2, #33554432	; 0x2000000
 800113e:	d0cd      	beq.n	80010dc <HAL_ADC_Start+0x60>
          ADC_STATE_CLR_SET(hadc->State, HAL_ADC_STATE_INJ_EOC, HAL_ADC_STATE_INJ_BUSY);  
 8001140:	6c62      	ldr	r2, [r4, #68]	; 0x44
 8001142:	f422 5240 	bic.w	r2, r2, #12288	; 0x3000
 8001146:	f442 5280 	orr.w	r2, r2, #4096	; 0x1000
 800114a:	6462      	str	r2, [r4, #68]	; 0x44
 800114c:	e7c6      	b.n	80010dc <HAL_ADC_Start+0x60>
        if (ADC_MULTIMODE_AUTO_INJECTED(hadc))
 800114e:	f04f 42a0 	mov.w	r2, #1342177280	; 0x50000000
 8001152:	68d2      	ldr	r2, [r2, #12]
 8001154:	f012 7f00 	tst.w	r2, #33554432	; 0x2000000
 8001158:	d0c0      	beq.n	80010dc <HAL_ADC_Start+0x60>
          ADC_STATE_CLR_SET(hadc->State, HAL_ADC_STATE_INJ_EOC, HAL_ADC_STATE_INJ_BUSY);
 800115a:	6c62      	ldr	r2, [r4, #68]	; 0x44
 800115c:	f422 5240 	bic.w	r2, r2, #12288	; 0x3000
 8001160:	f442 5280 	orr.w	r2, r2, #4096	; 0x1000
 8001164:	6462      	str	r2, [r4, #68]	; 0x44
 8001166:	e7b9      	b.n	80010dc <HAL_ADC_Start+0x60>
        ADC_CLEAR_ERRORCODE(hadc);
 8001168:	2200      	movs	r2, #0
 800116a:	64a2      	str	r2, [r4, #72]	; 0x48
 800116c:	e7be      	b.n	80010ec <HAL_ADC_Start+0x70>
      __HAL_UNLOCK(hadc);
 800116e:	2200      	movs	r2, #0
 8001170:	f884 2040 	strb.w	r2, [r4, #64]	; 0x40
}
 8001174:	4618      	mov	r0, r3
 8001176:	bd10      	pop	{r4, pc}
 8001178:	50000300 	.word	0x50000300
 800117c:	50000100 	.word	0x50000100

08001180 <HAL_ADC_Stop>:
  __HAL_LOCK(hadc);
 8001180:	f890 3040 	ldrb.w	r3, [r0, #64]	; 0x40
 8001184:	2b01      	cmp	r3, #1
 8001186:	d102      	bne.n	800118e <HAL_ADC_Stop+0xe>
 8001188:	2302      	movs	r3, #2
}
 800118a:	4618      	mov	r0, r3
 800118c:	4770      	bx	lr
{
 800118e:	b510      	push	{r4, lr}
 8001190:	4604      	mov	r4, r0
  __HAL_LOCK(hadc);
 8001192:	2301      	movs	r3, #1
 8001194:	f880 3040 	strb.w	r3, [r0, #64]	; 0x40
  tmp_hal_status = ADC_ConversionStop(hadc, ADC_REGULAR_INJECTED_GROUP);
 8001198:	216c      	movs	r1, #108	; 0x6c
 800119a:	f7ff fdb3 	bl	8000d04 <ADC_ConversionStop>
  if (tmp_hal_status == HAL_OK)
 800119e:	4603      	mov	r3, r0
 80011a0:	b120      	cbz	r0, 80011ac <HAL_ADC_Stop+0x2c>
  __HAL_UNLOCK(hadc);
 80011a2:	2200      	movs	r2, #0
 80011a4:	f884 2040 	strb.w	r2, [r4, #64]	; 0x40
}
 80011a8:	4618      	mov	r0, r3
 80011aa:	bd10      	pop	{r4, pc}
    tmp_hal_status = ADC_Disable(hadc);
 80011ac:	4620      	mov	r0, r4
 80011ae:	f7ff fd64 	bl	8000c7a <ADC_Disable>
    if (tmp_hal_status == HAL_OK)
 80011b2:	4603      	mov	r3, r0
 80011b4:	2800      	cmp	r0, #0
 80011b6:	d1f4      	bne.n	80011a2 <HAL_ADC_Stop+0x22>
      ADC_STATE_CLR_SET(hadc->State,
 80011b8:	6c62      	ldr	r2, [r4, #68]	; 0x44
 80011ba:	f422 5288 	bic.w	r2, r2, #4352	; 0x1100
 80011be:	f022 0201 	bic.w	r2, r2, #1
 80011c2:	f042 0201 	orr.w	r2, r2, #1
 80011c6:	6462      	str	r2, [r4, #68]	; 0x44
 80011c8:	e7eb      	b.n	80011a2 <HAL_ADC_Stop+0x22>
	...

080011cc <HAL_ADC_PollForConversion>:
{
 80011cc:	e92d 41f0 	stmdb	sp!, {r4, r5, r6, r7, r8, lr}
  if (hadc->Init.EOCSelection == ADC_EOC_SEQ_CONV)
 80011d0:	6946      	ldr	r6, [r0, #20]
 80011d2:	2e08      	cmp	r6, #8
 80011d4:	d00a      	beq.n	80011ec <HAL_ADC_PollForConversion+0x20>
    if (READ_BIT(tmpADC_Common->CCR, ADC_CCR_MULTI) == ADC_MODE_INDEPENDENT)
 80011d6:	4b42      	ldr	r3, [pc, #264]	; (80012e0 <HAL_ADC_PollForConversion+0x114>)
 80011d8:	689b      	ldr	r3, [r3, #8]
 80011da:	f013 0f1f 	tst.w	r3, #31
 80011de:	d11c      	bne.n	800121a <HAL_ADC_PollForConversion+0x4e>
      if (HAL_IS_BIT_SET(hadc->Instance->CFGR, ADC_CFGR_DMAEN))
 80011e0:	6803      	ldr	r3, [r0, #0]
 80011e2:	68db      	ldr	r3, [r3, #12]
 80011e4:	f013 0f01 	tst.w	r3, #1
 80011e8:	d10d      	bne.n	8001206 <HAL_ADC_PollForConversion+0x3a>
    tmp_Flag_EOC = (ADC_FLAG_EOC | ADC_FLAG_EOS);
 80011ea:	260c      	movs	r6, #12
  if(ADC_NONMULTIMODE_OR_MULTIMODEMASTER(hadc))
 80011ec:	4b3c      	ldr	r3, [pc, #240]	; (80012e0 <HAL_ADC_PollForConversion+0x114>)
 80011ee:	689b      	ldr	r3, [r3, #8]
 80011f0:	f013 0f1f 	tst.w	r3, #31
 80011f4:	d022      	beq.n	800123c <HAL_ADC_PollForConversion+0x70>
 80011f6:	6803      	ldr	r3, [r0, #0]
 80011f8:	f1b3 4fa0 	cmp.w	r3, #1342177280	; 0x50000000
 80011fc:	d01e      	beq.n	800123c <HAL_ADC_PollForConversion+0x70>
    tmp_cfgr = READ_REG(ADC_MASTER_INSTANCE(hadc)->CFGR);
 80011fe:	f04f 43a0 	mov.w	r3, #1342177280	; 0x50000000
 8001202:	68df      	ldr	r7, [r3, #12]
 8001204:	e01c      	b.n	8001240 <HAL_ADC_PollForConversion+0x74>
        SET_BIT(hadc->State, HAL_ADC_STATE_ERROR_CONFIG);
 8001206:	6c43      	ldr	r3, [r0, #68]	; 0x44
 8001208:	f043 0320 	orr.w	r3, r3, #32
 800120c:	6443      	str	r3, [r0, #68]	; 0x44
        __HAL_UNLOCK(hadc);
 800120e:	2300      	movs	r3, #0
 8001210:	f880 3040 	strb.w	r3, [r0, #64]	; 0x40
        return HAL_ERROR;
 8001214:	2001      	movs	r0, #1
 8001216:	e8bd 81f0 	ldmia.w	sp!, {r4, r5, r6, r7, r8, pc}
      if (READ_BIT(tmpADC_Common->CCR, ADC_CCR_MDMA) != RESET)
 800121a:	4b31      	ldr	r3, [pc, #196]	; (80012e0 <HAL_ADC_PollForConversion+0x114>)
 800121c:	689b      	ldr	r3, [r3, #8]
 800121e:	f413 4f40 	tst.w	r3, #49152	; 0xc000
 8001222:	d101      	bne.n	8001228 <HAL_ADC_PollForConversion+0x5c>
    tmp_Flag_EOC = (ADC_FLAG_EOC | ADC_FLAG_EOS);
 8001224:	260c      	movs	r6, #12
 8001226:	e7e1      	b.n	80011ec <HAL_ADC_PollForConversion+0x20>
        SET_BIT(hadc->State, HAL_ADC_STATE_ERROR_CONFIG);
 8001228:	6c43      	ldr	r3, [r0, #68]	; 0x44
 800122a:	f043 0320 	orr.w	r3, r3, #32
 800122e:	6443      	str	r3, [r0, #68]	; 0x44
        __HAL_UNLOCK(hadc);
 8001230:	2300      	movs	r3, #0
 8001232:	f880 3040 	strb.w	r3, [r0, #64]	; 0x40
        return HAL_ERROR;
 8001236:	2001      	movs	r0, #1
 8001238:	e8bd 81f0 	ldmia.w	sp!, {r4, r5, r6, r7, r8, pc}
    tmp_cfgr = READ_REG(hadc->Instance->CFGR); 
 800123c:	6803      	ldr	r3, [r0, #0]
 800123e:	68df      	ldr	r7, [r3, #12]
 8001240:	460d      	mov	r5, r1
 8001242:	4604      	mov	r4, r0
  tickstart = HAL_GetTick();  
 8001244:	f7ff fd10 	bl	8000c68 <HAL_GetTick>
 8001248:	4680      	mov	r8, r0
  while(HAL_IS_BIT_CLR(hadc->Instance->ISR, tmp_Flag_EOC))
 800124a:	6823      	ldr	r3, [r4, #0]
 800124c:	681a      	ldr	r2, [r3, #0]
 800124e:	4216      	tst	r6, r2
 8001250:	d113      	bne.n	800127a <HAL_ADC_PollForConversion+0xae>
    if(Timeout != HAL_MAX_DELAY)
 8001252:	f1b5 3fff 	cmp.w	r5, #4294967295
 8001256:	d0f8      	beq.n	800124a <HAL_ADC_PollForConversion+0x7e>
      if((Timeout == 0U) || ((HAL_GetTick() - tickstart) > Timeout))
 8001258:	b12d      	cbz	r5, 8001266 <HAL_ADC_PollForConversion+0x9a>
 800125a:	f7ff fd05 	bl	8000c68 <HAL_GetTick>
 800125e:	eba0 0008 	sub.w	r0, r0, r8
 8001262:	4285      	cmp	r5, r0
 8001264:	d2f1      	bcs.n	800124a <HAL_ADC_PollForConversion+0x7e>
        SET_BIT(hadc->State, HAL_ADC_STATE_TIMEOUT);
 8001266:	6c63      	ldr	r3, [r4, #68]	; 0x44
 8001268:	f043 0304 	orr.w	r3, r3, #4
 800126c:	6463      	str	r3, [r4, #68]	; 0x44
        __HAL_UNLOCK(hadc);
 800126e:	2300      	movs	r3, #0
 8001270:	f884 3040 	strb.w	r3, [r4, #64]	; 0x40
        return HAL_TIMEOUT;
 8001274:	2003      	movs	r0, #3
 8001276:	e8bd 81f0 	ldmia.w	sp!, {r4, r5, r6, r7, r8, pc}
  SET_BIT(hadc->State, HAL_ADC_STATE_REG_EOC);
 800127a:	6c62      	ldr	r2, [r4, #68]	; 0x44
 800127c:	f442 7200 	orr.w	r2, r2, #512	; 0x200
 8001280:	6462      	str	r2, [r4, #68]	; 0x44
  if(ADC_IS_SOFTWARE_START_REGULAR(hadc)           && 
 8001282:	68da      	ldr	r2, [r3, #12]
 8001284:	f412 6f40 	tst.w	r2, #3072	; 0xc00
 8001288:	d11f      	bne.n	80012ca <HAL_ADC_PollForConversion+0xfe>
 800128a:	f417 5f00 	tst.w	r7, #8192	; 0x2000
 800128e:	d11c      	bne.n	80012ca <HAL_ADC_PollForConversion+0xfe>
    if( __HAL_ADC_GET_FLAG(hadc, ADC_FLAG_EOS) )
 8001290:	681a      	ldr	r2, [r3, #0]
 8001292:	f012 0f08 	tst.w	r2, #8
 8001296:	d018      	beq.n	80012ca <HAL_ADC_PollForConversion+0xfe>
      if (ADC_IS_CONVERSION_ONGOING_REGULAR(hadc) == RESET)
 8001298:	689a      	ldr	r2, [r3, #8]
 800129a:	f012 0f04 	tst.w	r2, #4
 800129e:	d10c      	bne.n	80012ba <HAL_ADC_PollForConversion+0xee>
        CLEAR_BIT(hadc->State, HAL_ADC_STATE_REG_BUSY);   
 80012a0:	6c62      	ldr	r2, [r4, #68]	; 0x44
 80012a2:	f422 7280 	bic.w	r2, r2, #256	; 0x100
 80012a6:	6462      	str	r2, [r4, #68]	; 0x44
        if (HAL_IS_BIT_CLR(hadc->State, HAL_ADC_STATE_INJ_BUSY))
 80012a8:	6c62      	ldr	r2, [r4, #68]	; 0x44
 80012aa:	f412 5f80 	tst.w	r2, #4096	; 0x1000
 80012ae:	d10c      	bne.n	80012ca <HAL_ADC_PollForConversion+0xfe>
          SET_BIT(hadc->State, HAL_ADC_STATE_READY);
 80012b0:	6c62      	ldr	r2, [r4, #68]	; 0x44
 80012b2:	f042 0201 	orr.w	r2, r2, #1
 80012b6:	6462      	str	r2, [r4, #68]	; 0x44
 80012b8:	e007      	b.n	80012ca <HAL_ADC_PollForConversion+0xfe>
        SET_BIT(hadc->State, HAL_ADC_STATE_ERROR_CONFIG);
 80012ba:	6c62      	ldr	r2, [r4, #68]	; 0x44
 80012bc:	f042 0220 	orr.w	r2, r2, #32
 80012c0:	6462      	str	r2, [r4, #68]	; 0x44
        SET_BIT(hadc->ErrorCode, HAL_ADC_ERROR_INTERNAL);
 80012c2:	6ca2      	ldr	r2, [r4, #72]	; 0x48
 80012c4:	f042 0201 	orr.w	r2, r2, #1
 80012c8:	64a2      	str	r2, [r4, #72]	; 0x48
  if (READ_BIT (tmp_cfgr, ADC_CFGR_AUTDLY) == RESET)
 80012ca:	f417 4f80 	tst.w	r7, #16384	; 0x4000
 80012ce:	d103      	bne.n	80012d8 <HAL_ADC_PollForConversion+0x10c>
    __HAL_ADC_CLEAR_FLAG(hadc, tmp_Flag_EOC);
 80012d0:	601e      	str	r6, [r3, #0]
  return HAL_OK;
 80012d2:	2000      	movs	r0, #0
 80012d4:	e8bd 81f0 	ldmia.w	sp!, {r4, r5, r6, r7, r8, pc}
 80012d8:	2000      	movs	r0, #0
}
 80012da:	e8bd 81f0 	ldmia.w	sp!, {r4, r5, r6, r7, r8, pc}
 80012de:	bf00      	nop
 80012e0:	50000300 	.word	0x50000300

080012e4 <HAL_ADCEx_InjectedConvCpltCallback>:
{
 80012e4:	4770      	bx	lr

080012e6 <HAL_ADCEx_InjectedQueueOverflowCallback>:
{
 80012e6:	4770      	bx	lr

080012e8 <HAL_ADCEx_LevelOutOfWindow2Callback>:
{
 80012e8:	4770      	bx	lr

080012ea <HAL_ADCEx_LevelOutOfWindow3Callback>:
{
 80012ea:	4770      	bx	lr

080012ec <HAL_ADC_IRQHandler>:
{
 80012ec:	b510      	push	{r4, lr}
 80012ee:	4604      	mov	r4, r0
  if( (__HAL_ADC_GET_FLAG(hadc, ADC_FLAG_EOC) && __HAL_ADC_GET_IT_SOURCE(hadc, ADC_IT_EOC)) || 
 80012f0:	6803      	ldr	r3, [r0, #0]
 80012f2:	681a      	ldr	r2, [r3, #0]
 80012f4:	f012 0f04 	tst.w	r2, #4
 80012f8:	d003      	beq.n	8001302 <HAL_ADC_IRQHandler+0x16>
 80012fa:	685a      	ldr	r2, [r3, #4]
 80012fc:	f012 0f04 	tst.w	r2, #4
 8001300:	d107      	bne.n	8001312 <HAL_ADC_IRQHandler+0x26>
      (__HAL_ADC_GET_FLAG(hadc, ADC_FLAG_EOS) && __HAL_ADC_GET_IT_SOURCE(hadc, ADC_IT_EOS))   )
 8001302:	681a      	ldr	r2, [r3, #0]
  if( (__HAL_ADC_GET_FLAG(hadc, ADC_FLAG_EOC) && __HAL_ADC_GET_IT_SOURCE(hadc, ADC_IT_EOC)) || 
 8001304:	f012 0f08 	tst.w	r2, #8
 8001308:	d052      	beq.n	80013b0 <HAL_ADC_IRQHandler+0xc4>
      (__HAL_ADC_GET_FLAG(hadc, ADC_FLAG_EOS) && __HAL_ADC_GET_IT_SOURCE(hadc, ADC_IT_EOS))   )
 800130a:	685a      	ldr	r2, [r3, #4]
 800130c:	f012 0f08 	tst.w	r2, #8
 8001310:	d04e      	beq.n	80013b0 <HAL_ADC_IRQHandler+0xc4>
    if (HAL_IS_BIT_CLR(hadc->State, HAL_ADC_STATE_ERROR_INTERNAL))
 8001312:	6c62      	ldr	r2, [r4, #68]	; 0x44
 8001314:	f012 0f10 	tst.w	r2, #16
 8001318:	d103      	bne.n	8001322 <HAL_ADC_IRQHandler+0x36>
      SET_BIT(hadc->State, HAL_ADC_STATE_REG_EOC); 
 800131a:	6c62      	ldr	r2, [r4, #68]	; 0x44
 800131c:	f442 7200 	orr.w	r2, r2, #512	; 0x200
 8001320:	6462      	str	r2, [r4, #68]	; 0x44
    if (ADC_NONMULTIMODE_REG_OR_MULTIMODEMASTER(hadc))
 8001322:	4aa7      	ldr	r2, [pc, #668]	; (80015c0 <HAL_ADC_IRQHandler+0x2d4>)
 8001324:	6892      	ldr	r2, [r2, #8]
 8001326:	f012 0f1f 	tst.w	r2, #31
 800132a:	d012      	beq.n	8001352 <HAL_ADC_IRQHandler+0x66>
 800132c:	4aa4      	ldr	r2, [pc, #656]	; (80015c0 <HAL_ADC_IRQHandler+0x2d4>)
 800132e:	6892      	ldr	r2, [r2, #8]
 8001330:	f002 021f 	and.w	r2, r2, #31
 8001334:	2a05      	cmp	r2, #5
 8001336:	d00c      	beq.n	8001352 <HAL_ADC_IRQHandler+0x66>
 8001338:	4aa1      	ldr	r2, [pc, #644]	; (80015c0 <HAL_ADC_IRQHandler+0x2d4>)
 800133a:	6892      	ldr	r2, [r2, #8]
 800133c:	f002 021f 	and.w	r2, r2, #31
 8001340:	2a09      	cmp	r2, #9
 8001342:	d006      	beq.n	8001352 <HAL_ADC_IRQHandler+0x66>
 8001344:	f1b3 4fa0 	cmp.w	r3, #1342177280	; 0x50000000
 8001348:	d003      	beq.n	8001352 <HAL_ADC_IRQHandler+0x66>
      tmp_cfgr = READ_REG(ADC_MASTER_INSTANCE(hadc)->CFGR);
 800134a:	f04f 42a0 	mov.w	r2, #1342177280	; 0x50000000
 800134e:	68d1      	ldr	r1, [r2, #12]
 8001350:	e000      	b.n	8001354 <HAL_ADC_IRQHandler+0x68>
      tmp_cfgr = READ_REG(hadc->Instance->CFGR); 
 8001352:	68d9      	ldr	r1, [r3, #12]
    if(ADC_IS_SOFTWARE_START_REGULAR(hadc)         && 
 8001354:	68da      	ldr	r2, [r3, #12]
 8001356:	f412 6f40 	tst.w	r2, #3072	; 0xc00
 800135a:	d123      	bne.n	80013a4 <HAL_ADC_IRQHandler+0xb8>
 800135c:	f411 5f00 	tst.w	r1, #8192	; 0x2000
 8001360:	d120      	bne.n	80013a4 <HAL_ADC_IRQHandler+0xb8>
      if( __HAL_ADC_GET_FLAG(hadc, ADC_FLAG_EOS) )
 8001362:	681a      	ldr	r2, [r3, #0]
 8001364:	f012 0f08 	tst.w	r2, #8
 8001368:	d01c      	beq.n	80013a4 <HAL_ADC_IRQHandler+0xb8>
        if (ADC_IS_CONVERSION_ONGOING_REGULAR(hadc) == RESET)
 800136a:	689a      	ldr	r2, [r3, #8]
 800136c:	f012 0f04 	tst.w	r2, #4
 8001370:	d110      	bne.n	8001394 <HAL_ADC_IRQHandler+0xa8>
          __HAL_ADC_DISABLE_IT(hadc, ADC_IT_EOC | ADC_IT_EOS);
 8001372:	685a      	ldr	r2, [r3, #4]
 8001374:	f022 020c 	bic.w	r2, r2, #12
 8001378:	605a      	str	r2, [r3, #4]
          CLEAR_BIT(hadc->State, HAL_ADC_STATE_REG_BUSY);   
 800137a:	6c63      	ldr	r3, [r4, #68]	; 0x44
 800137c:	f423 7380 	bic.w	r3, r3, #256	; 0x100
 8001380:	6463      	str	r3, [r4, #68]	; 0x44
          if (HAL_IS_BIT_CLR(hadc->State, HAL_ADC_STATE_INJ_BUSY))
 8001382:	6c63      	ldr	r3, [r4, #68]	; 0x44
 8001384:	f413 5f80 	tst.w	r3, #4096	; 0x1000
 8001388:	d10c      	bne.n	80013a4 <HAL_ADC_IRQHandler+0xb8>
            SET_BIT(hadc->State, HAL_ADC_STATE_READY);
 800138a:	6c63      	ldr	r3, [r4, #68]	; 0x44
 800138c:	f043 0301 	orr.w	r3, r3, #1
 8001390:	6463      	str	r3, [r4, #68]	; 0x44
 8001392:	e007      	b.n	80013a4 <HAL_ADC_IRQHandler+0xb8>
          SET_BIT(hadc->State, HAL_ADC_STATE_ERROR_INTERNAL);
 8001394:	6c63      	ldr	r3, [r4, #68]	; 0x44
 8001396:	f043 0310 	orr.w	r3, r3, #16
 800139a:	6463      	str	r3, [r4, #68]	; 0x44
          SET_BIT(hadc->ErrorCode, HAL_ADC_ERROR_INTERNAL);
 800139c:	6ca3      	ldr	r3, [r4, #72]	; 0x48
 800139e:	f043 0301 	orr.w	r3, r3, #1
 80013a2:	64a3      	str	r3, [r4, #72]	; 0x48
      HAL_ADC_ConvCpltCallback(hadc);
 80013a4:	4620      	mov	r0, r4
 80013a6:	f7ff fc65 	bl	8000c74 <HAL_ADC_ConvCpltCallback>
    __HAL_ADC_CLEAR_FLAG(hadc, (ADC_FLAG_EOC | ADC_FLAG_EOS) );
 80013aa:	6823      	ldr	r3, [r4, #0]
 80013ac:	220c      	movs	r2, #12
 80013ae:	601a      	str	r2, [r3, #0]
  if( (__HAL_ADC_GET_FLAG(hadc, ADC_FLAG_JEOC) && __HAL_ADC_GET_IT_SOURCE(hadc, ADC_IT_JEOC)) ||   
 80013b0:	6823      	ldr	r3, [r4, #0]
 80013b2:	681a      	ldr	r2, [r3, #0]
 80013b4:	f012 0f20 	tst.w	r2, #32
 80013b8:	d003      	beq.n	80013c2 <HAL_ADC_IRQHandler+0xd6>
 80013ba:	685a      	ldr	r2, [r3, #4]
 80013bc:	f012 0f20 	tst.w	r2, #32
 80013c0:	d107      	bne.n	80013d2 <HAL_ADC_IRQHandler+0xe6>
      (__HAL_ADC_GET_FLAG(hadc, ADC_FLAG_JEOS) && __HAL_ADC_GET_IT_SOURCE(hadc, ADC_IT_JEOS))   )
 80013c2:	681a      	ldr	r2, [r3, #0]
  if( (__HAL_ADC_GET_FLAG(hadc, ADC_FLAG_JEOC) && __HAL_ADC_GET_IT_SOURCE(hadc, ADC_IT_JEOC)) ||   
 80013c4:	f012 0f40 	tst.w	r2, #64	; 0x40
 80013c8:	d071      	beq.n	80014ae <HAL_ADC_IRQHandler+0x1c2>
      (__HAL_ADC_GET_FLAG(hadc, ADC_FLAG_JEOS) && __HAL_ADC_GET_IT_SOURCE(hadc, ADC_IT_JEOS))   )
 80013ca:	685a      	ldr	r2, [r3, #4]
 80013cc:	f012 0f40 	tst.w	r2, #64	; 0x40
 80013d0:	d06d      	beq.n	80014ae <HAL_ADC_IRQHandler+0x1c2>
    SET_BIT(hadc->State, HAL_ADC_STATE_INJ_EOC);
 80013d2:	6c62      	ldr	r2, [r4, #68]	; 0x44
 80013d4:	f442 5200 	orr.w	r2, r2, #8192	; 0x2000
 80013d8:	6462      	str	r2, [r4, #68]	; 0x44
    if (ADC_NONMULTIMODE_REG_OR_MULTIMODEMASTER(hadc))
 80013da:	4a79      	ldr	r2, [pc, #484]	; (80015c0 <HAL_ADC_IRQHandler+0x2d4>)
 80013dc:	6892      	ldr	r2, [r2, #8]
 80013de:	f012 0f1f 	tst.w	r2, #31
 80013e2:	d012      	beq.n	800140a <HAL_ADC_IRQHandler+0x11e>
 80013e4:	4a76      	ldr	r2, [pc, #472]	; (80015c0 <HAL_ADC_IRQHandler+0x2d4>)
 80013e6:	6892      	ldr	r2, [r2, #8]
 80013e8:	f002 021f 	and.w	r2, r2, #31
 80013ec:	2a05      	cmp	r2, #5
 80013ee:	d00c      	beq.n	800140a <HAL_ADC_IRQHandler+0x11e>
 80013f0:	4a73      	ldr	r2, [pc, #460]	; (80015c0 <HAL_ADC_IRQHandler+0x2d4>)
 80013f2:	6892      	ldr	r2, [r2, #8]
 80013f4:	f002 021f 	and.w	r2, r2, #31
 80013f8:	2a09      	cmp	r2, #9
 80013fa:	d006      	beq.n	800140a <HAL_ADC_IRQHandler+0x11e>
 80013fc:	f1b3 4fa0 	cmp.w	r3, #1342177280	; 0x50000000
 8001400:	d003      	beq.n	800140a <HAL_ADC_IRQHandler+0x11e>
      tmp_cfgr = READ_REG(ADC_MASTER_INSTANCE(hadc)->CFGR);
 8001402:	f04f 42a0 	mov.w	r2, #1342177280	; 0x50000000
 8001406:	68d1      	ldr	r1, [r2, #12]
 8001408:	e000      	b.n	800140c <HAL_ADC_IRQHandler+0x120>
      tmp_cfgr = READ_REG(hadc->Instance->CFGR); 
 800140a:	68d9      	ldr	r1, [r3, #12]
    if(ADC_IS_SOFTWARE_START_INJECTED(hadc)                   ||
 800140c:	6cda      	ldr	r2, [r3, #76]	; 0x4c
 800140e:	f012 0fc0 	tst.w	r2, #192	; 0xc0
 8001412:	d009      	beq.n	8001428 <HAL_ADC_IRQHandler+0x13c>
 8001414:	f011 7f00 	tst.w	r1, #33554432	; 0x2000000
 8001418:	d143      	bne.n	80014a2 <HAL_ADC_IRQHandler+0x1b6>
        (ADC_IS_SOFTWARE_START_REGULAR(hadc)          &&
 800141a:	68da      	ldr	r2, [r3, #12]
       ((READ_BIT (tmp_cfgr, ADC_CFGR_JAUTO) == RESET)    &&
 800141c:	f412 6f40 	tst.w	r2, #3072	; 0xc00
 8001420:	d13f      	bne.n	80014a2 <HAL_ADC_IRQHandler+0x1b6>
        (ADC_IS_SOFTWARE_START_REGULAR(hadc)          &&
 8001422:	f411 5f00 	tst.w	r1, #8192	; 0x2000
 8001426:	d13c      	bne.n	80014a2 <HAL_ADC_IRQHandler+0x1b6>
      if( __HAL_ADC_GET_FLAG(hadc, ADC_FLAG_JEOS))
 8001428:	681a      	ldr	r2, [r3, #0]
 800142a:	f012 0f40 	tst.w	r2, #64	; 0x40
 800142e:	d038      	beq.n	80014a2 <HAL_ADC_IRQHandler+0x1b6>
        if (ADC_NONMULTIMODE_INJ_OR_MULTIMODEMASTER(hadc))
 8001430:	4a63      	ldr	r2, [pc, #396]	; (80015c0 <HAL_ADC_IRQHandler+0x2d4>)
 8001432:	6892      	ldr	r2, [r2, #8]
 8001434:	f012 0f1f 	tst.w	r2, #31
 8001438:	d012      	beq.n	8001460 <HAL_ADC_IRQHandler+0x174>
 800143a:	4a61      	ldr	r2, [pc, #388]	; (80015c0 <HAL_ADC_IRQHandler+0x2d4>)
 800143c:	6892      	ldr	r2, [r2, #8]
 800143e:	f002 021f 	and.w	r2, r2, #31
 8001442:	2a06      	cmp	r2, #6
 8001444:	d00c      	beq.n	8001460 <HAL_ADC_IRQHandler+0x174>
 8001446:	4a5e      	ldr	r2, [pc, #376]	; (80015c0 <HAL_ADC_IRQHandler+0x2d4>)
 8001448:	6892      	ldr	r2, [r2, #8]
 800144a:	f002 021f 	and.w	r2, r2, #31
 800144e:	2a07      	cmp	r2, #7
 8001450:	d006      	beq.n	8001460 <HAL_ADC_IRQHandler+0x174>
 8001452:	f1b3 4fa0 	cmp.w	r3, #1342177280	; 0x50000000
 8001456:	d003      	beq.n	8001460 <HAL_ADC_IRQHandler+0x174>
          tmp_cfgr_jqm = READ_REG(ADC_MASTER_INSTANCE(hadc)->CFGR);
 8001458:	f04f 42a0 	mov.w	r2, #1342177280	; 0x50000000
 800145c:	68d2      	ldr	r2, [r2, #12]
 800145e:	e000      	b.n	8001462 <HAL_ADC_IRQHandler+0x176>
          tmp_cfgr_jqm = READ_REG(hadc->Instance->CFGR); 
 8001460:	68da      	ldr	r2, [r3, #12]
        if(READ_BIT(tmp_cfgr_jqm, ADC_CFGR_JQM) == RESET)
 8001462:	f412 1f00 	tst.w	r2, #2097152	; 0x200000
 8001466:	d11c      	bne.n	80014a2 <HAL_ADC_IRQHandler+0x1b6>
          if (ADC_IS_CONVERSION_ONGOING_INJECTED(hadc) == RESET)
 8001468:	689a      	ldr	r2, [r3, #8]
 800146a:	f012 0f08 	tst.w	r2, #8
 800146e:	d110      	bne.n	8001492 <HAL_ADC_IRQHandler+0x1a6>
            __HAL_ADC_DISABLE_IT(hadc, ADC_IT_JEOC | ADC_IT_JEOS);
 8001470:	685a      	ldr	r2, [r3, #4]
 8001472:	f022 0260 	bic.w	r2, r2, #96	; 0x60
 8001476:	605a      	str	r2, [r3, #4]
            CLEAR_BIT(hadc->State, HAL_ADC_STATE_INJ_BUSY);
 8001478:	6c63      	ldr	r3, [r4, #68]	; 0x44
 800147a:	f423 5380 	bic.w	r3, r3, #4096	; 0x1000
 800147e:	6463      	str	r3, [r4, #68]	; 0x44
            if (HAL_IS_BIT_CLR(hadc->State, HAL_ADC_STATE_REG_BUSY))
 8001480:	6c63      	ldr	r3, [r4, #68]	; 0x44
 8001482:	f413 7f80 	tst.w	r3, #256	; 0x100
 8001486:	d10c      	bne.n	80014a2 <HAL_ADC_IRQHandler+0x1b6>
              SET_BIT(hadc->State, HAL_ADC_STATE_READY);
 8001488:	6c63      	ldr	r3, [r4, #68]	; 0x44
 800148a:	f043 0301 	orr.w	r3, r3, #1
 800148e:	6463      	str	r3, [r4, #68]	; 0x44
 8001490:	e007      	b.n	80014a2 <HAL_ADC_IRQHandler+0x1b6>
            SET_BIT(hadc->State, HAL_ADC_STATE_ERROR_INTERNAL);
 8001492:	6c63      	ldr	r3, [r4, #68]	; 0x44
 8001494:	f043 0310 	orr.w	r3, r3, #16
 8001498:	6463      	str	r3, [r4, #68]	; 0x44
            SET_BIT(hadc->ErrorCode, HAL_ADC_ERROR_INTERNAL);
 800149a:	6ca3      	ldr	r3, [r4, #72]	; 0x48
 800149c:	f043 0301 	orr.w	r3, r3, #1
 80014a0:	64a3      	str	r3, [r4, #72]	; 0x48
    HAL_ADCEx_InjectedConvCpltCallback(hadc);
 80014a2:	4620      	mov	r0, r4
 80014a4:	f7ff ff1e 	bl	80012e4 <HAL_ADCEx_InjectedConvCpltCallback>
    __HAL_ADC_CLEAR_FLAG(hadc, ADC_FLAG_JEOC | ADC_FLAG_JEOS);
 80014a8:	6823      	ldr	r3, [r4, #0]
 80014aa:	2260      	movs	r2, #96	; 0x60
 80014ac:	601a      	str	r2, [r3, #0]
  if (__HAL_ADC_GET_FLAG(hadc, ADC_FLAG_AWD1) && __HAL_ADC_GET_IT_SOURCE(hadc, ADC_IT_AWD1))
 80014ae:	6823      	ldr	r3, [r4, #0]
 80014b0:	681a      	ldr	r2, [r3, #0]
 80014b2:	f012 0f80 	tst.w	r2, #128	; 0x80
 80014b6:	d003      	beq.n	80014c0 <HAL_ADC_IRQHandler+0x1d4>
 80014b8:	685b      	ldr	r3, [r3, #4]
 80014ba:	f013 0f80 	tst.w	r3, #128	; 0x80
 80014be:	d136      	bne.n	800152e <HAL_ADC_IRQHandler+0x242>
  if (__HAL_ADC_GET_FLAG(hadc, ADC_FLAG_AWD2) && __HAL_ADC_GET_IT_SOURCE(hadc, ADC_IT_AWD2))
 80014c0:	6823      	ldr	r3, [r4, #0]
 80014c2:	681a      	ldr	r2, [r3, #0]
 80014c4:	f412 7f80 	tst.w	r2, #256	; 0x100
 80014c8:	d003      	beq.n	80014d2 <HAL_ADC_IRQHandler+0x1e6>
 80014ca:	685b      	ldr	r3, [r3, #4]
 80014cc:	f413 7f80 	tst.w	r3, #256	; 0x100
 80014d0:	d138      	bne.n	8001544 <HAL_ADC_IRQHandler+0x258>
  if (__HAL_ADC_GET_FLAG(hadc, ADC_FLAG_AWD3) && __HAL_ADC_GET_IT_SOURCE(hadc, ADC_IT_AWD3)) 
 80014d2:	6823      	ldr	r3, [r4, #0]
 80014d4:	681a      	ldr	r2, [r3, #0]
 80014d6:	f412 7f00 	tst.w	r2, #512	; 0x200
 80014da:	d003      	beq.n	80014e4 <HAL_ADC_IRQHandler+0x1f8>
 80014dc:	685b      	ldr	r3, [r3, #4]
 80014de:	f413 7f00 	tst.w	r3, #512	; 0x200
 80014e2:	d13b      	bne.n	800155c <HAL_ADC_IRQHandler+0x270>
  if(__HAL_ADC_GET_FLAG(hadc, ADC_FLAG_OVR) && __HAL_ADC_GET_IT_SOURCE(hadc, ADC_IT_OVR))
 80014e4:	6823      	ldr	r3, [r4, #0]
 80014e6:	681a      	ldr	r2, [r3, #0]
 80014e8:	f012 0f10 	tst.w	r2, #16
 80014ec:	d015      	beq.n	800151a <HAL_ADC_IRQHandler+0x22e>
 80014ee:	685a      	ldr	r2, [r3, #4]
 80014f0:	f012 0f10 	tst.w	r2, #16
 80014f4:	d011      	beq.n	800151a <HAL_ADC_IRQHandler+0x22e>
    if (hadc->Init.Overrun == ADC_OVR_DATA_PRESERVED)
 80014f6:	6ba2      	ldr	r2, [r4, #56]	; 0x38
 80014f8:	2a01      	cmp	r2, #1
 80014fa:	d009      	beq.n	8001510 <HAL_ADC_IRQHandler+0x224>
      if (READ_BIT(tmpADC_Common->CCR, ADC_CCR_MULTI) == ADC_MODE_INDEPENDENT)
 80014fc:	4a30      	ldr	r2, [pc, #192]	; (80015c0 <HAL_ADC_IRQHandler+0x2d4>)
 80014fe:	6892      	ldr	r2, [r2, #8]
 8001500:	f012 0f1f 	tst.w	r2, #31
 8001504:	d136      	bne.n	8001574 <HAL_ADC_IRQHandler+0x288>
        if (HAL_IS_BIT_SET(hadc->Instance->CFGR, ADC_CFGR_DMAEN))
 8001506:	68db      	ldr	r3, [r3, #12]
 8001508:	f013 0f01 	tst.w	r3, #1
 800150c:	d139      	bne.n	8001582 <HAL_ADC_IRQHandler+0x296>
  uint32_t overrun_error = 0U; /* flag set if overrun occurrence has to be considered as an error */
 800150e:	2200      	movs	r2, #0
    if (overrun_error == 1U)
 8001510:	2a01      	cmp	r2, #1
 8001512:	d03a      	beq.n	800158a <HAL_ADC_IRQHandler+0x29e>
    __HAL_ADC_CLEAR_FLAG(hadc, ADC_FLAG_OVR);
 8001514:	6823      	ldr	r3, [r4, #0]
 8001516:	2210      	movs	r2, #16
 8001518:	601a      	str	r2, [r3, #0]
  if(__HAL_ADC_GET_FLAG(hadc, ADC_FLAG_JQOVF) && __HAL_ADC_GET_IT_SOURCE(hadc, ADC_IT_JQOVF))
 800151a:	6823      	ldr	r3, [r4, #0]
 800151c:	681a      	ldr	r2, [r3, #0]
 800151e:	f412 6f80 	tst.w	r2, #1024	; 0x400
 8001522:	d003      	beq.n	800152c <HAL_ADC_IRQHandler+0x240>
 8001524:	685a      	ldr	r2, [r3, #4]
 8001526:	f412 6f80 	tst.w	r2, #1024	; 0x400
 800152a:	d13a      	bne.n	80015a2 <HAL_ADC_IRQHandler+0x2b6>
 800152c:	bd10      	pop	{r4, pc}
    SET_BIT(hadc->State, HAL_ADC_STATE_AWD1);
 800152e:	6c63      	ldr	r3, [r4, #68]	; 0x44
 8001530:	f443 3380 	orr.w	r3, r3, #65536	; 0x10000
 8001534:	6463      	str	r3, [r4, #68]	; 0x44
    HAL_ADC_LevelOutOfWindowCallback(hadc);
 8001536:	4620      	mov	r0, r4
 8001538:	f7ff fb9d 	bl	8000c76 <HAL_ADC_LevelOutOfWindowCallback>
    __HAL_ADC_CLEAR_FLAG(hadc, ADC_FLAG_AWD1);
 800153c:	6823      	ldr	r3, [r4, #0]
 800153e:	2280      	movs	r2, #128	; 0x80
 8001540:	601a      	str	r2, [r3, #0]
 8001542:	e7bd      	b.n	80014c0 <HAL_ADC_IRQHandler+0x1d4>
    SET_BIT(hadc->State, HAL_ADC_STATE_AWD2);
 8001544:	6c63      	ldr	r3, [r4, #68]	; 0x44
 8001546:	f443 3300 	orr.w	r3, r3, #131072	; 0x20000
 800154a:	6463      	str	r3, [r4, #68]	; 0x44
    HAL_ADCEx_LevelOutOfWindow2Callback(hadc);
 800154c:	4620      	mov	r0, r4
 800154e:	f7ff fecb 	bl	80012e8 <HAL_ADCEx_LevelOutOfWindow2Callback>
    __HAL_ADC_CLEAR_FLAG(hadc, ADC_FLAG_AWD2);
 8001552:	6823      	ldr	r3, [r4, #0]
 8001554:	f44f 7280 	mov.w	r2, #256	; 0x100
 8001558:	601a      	str	r2, [r3, #0]
 800155a:	e7ba      	b.n	80014d2 <HAL_ADC_IRQHandler+0x1e6>
    SET_BIT(hadc->State, HAL_ADC_STATE_AWD3);
 800155c:	6c63      	ldr	r3, [r4, #68]	; 0x44
 800155e:	f443 2380 	orr.w	r3, r3, #262144	; 0x40000
 8001562:	6463      	str	r3, [r4, #68]	; 0x44
    HAL_ADCEx_LevelOutOfWindow3Callback(hadc);
 8001564:	4620      	mov	r0, r4
 8001566:	f7ff fec0 	bl	80012ea <HAL_ADCEx_LevelOutOfWindow3Callback>
    __HAL_ADC_CLEAR_FLAG(hadc, ADC_FLAG_AWD3);
 800156a:	6823      	ldr	r3, [r4, #0]
 800156c:	f44f 7200 	mov.w	r2, #512	; 0x200
 8001570:	601a      	str	r2, [r3, #0]
 8001572:	e7b7      	b.n	80014e4 <HAL_ADC_IRQHandler+0x1f8>
        if (READ_BIT(tmpADC_Common->CCR, ADC_CCR_MDMA) != RESET)
 8001574:	4b12      	ldr	r3, [pc, #72]	; (80015c0 <HAL_ADC_IRQHandler+0x2d4>)
 8001576:	689b      	ldr	r3, [r3, #8]
 8001578:	f413 4f40 	tst.w	r3, #49152	; 0xc000
 800157c:	d103      	bne.n	8001586 <HAL_ADC_IRQHandler+0x29a>
  uint32_t overrun_error = 0U; /* flag set if overrun occurrence has to be considered as an error */
 800157e:	2200      	movs	r2, #0
 8001580:	e7c6      	b.n	8001510 <HAL_ADC_IRQHandler+0x224>
          overrun_error = 1U;  
 8001582:	2201      	movs	r2, #1
 8001584:	e7c4      	b.n	8001510 <HAL_ADC_IRQHandler+0x224>
          overrun_error = 1U;  
 8001586:	2201      	movs	r2, #1
 8001588:	e7c2      	b.n	8001510 <HAL_ADC_IRQHandler+0x224>
      SET_BIT(hadc->State, HAL_ADC_STATE_REG_OVR);
 800158a:	6c63      	ldr	r3, [r4, #68]	; 0x44
 800158c:	f443 6380 	orr.w	r3, r3, #1024	; 0x400
 8001590:	6463      	str	r3, [r4, #68]	; 0x44
      SET_BIT(hadc->ErrorCode, HAL_ADC_ERROR_OVR);
 8001592:	6ca3      	ldr	r3, [r4, #72]	; 0x48
 8001594:	f043 0302 	orr.w	r3, r3, #2
 8001598:	64a3      	str	r3, [r4, #72]	; 0x48
      HAL_ADC_ErrorCallback(hadc);
 800159a:	4620      	mov	r0, r4
 800159c:	f7ff fb6c 	bl	8000c78 <HAL_ADC_ErrorCallback>
 80015a0:	e7b8      	b.n	8001514 <HAL_ADC_IRQHandler+0x228>
      SET_BIT(hadc->State, HAL_ADC_STATE_INJ_JQOVF);
 80015a2:	6c62      	ldr	r2, [r4, #68]	; 0x44
 80015a4:	f442 4280 	orr.w	r2, r2, #16384	; 0x4000
 80015a8:	6462      	str	r2, [r4, #68]	; 0x44
      SET_BIT(hadc->ErrorCode, HAL_ADC_ERROR_JQOVF);
 80015aa:	6ca2      	ldr	r2, [r4, #72]	; 0x48
 80015ac:	f042 0208 	orr.w	r2, r2, #8
 80015b0:	64a2      	str	r2, [r4, #72]	; 0x48
    __HAL_ADC_CLEAR_FLAG(hadc, ADC_FLAG_JQOVF);
 80015b2:	f44f 6280 	mov.w	r2, #1024	; 0x400
 80015b6:	601a      	str	r2, [r3, #0]
    HAL_ADCEx_InjectedQueueOverflowCallback(hadc);
 80015b8:	4620      	mov	r0, r4
 80015ba:	f7ff fe94 	bl	80012e6 <HAL_ADCEx_InjectedQueueOverflowCallback>
}
 80015be:	e7b5      	b.n	800152c <HAL_ADC_IRQHandler+0x240>
 80015c0:	50000300 	.word	0x50000300

080015c4 <HAL_ADC_ConfigChannel>:
{
 80015c4:	b470      	push	{r4, r5, r6}
 80015c6:	b097      	sub	sp, #92	; 0x5c
  __IO uint32_t wait_loop_index = 0U;
 80015c8:	2200      	movs	r2, #0
 80015ca:	9200      	str	r2, [sp, #0]
  __HAL_LOCK(hadc);
 80015cc:	f890 2040 	ldrb.w	r2, [r0, #64]	; 0x40
 80015d0:	2a01      	cmp	r2, #1
 80015d2:	f000 81ad 	beq.w	8001930 <HAL_ADC_ConfigChannel+0x36c>
 80015d6:	4603      	mov	r3, r0
 80015d8:	2201      	movs	r2, #1
 80015da:	f880 2040 	strb.w	r2, [r0, #64]	; 0x40
  if (ADC_IS_CONVERSION_ONGOING_REGULAR(hadc) == RESET)
 80015de:	6800      	ldr	r0, [r0, #0]
 80015e0:	6882      	ldr	r2, [r0, #8]
 80015e2:	f012 0f04 	tst.w	r2, #4
 80015e6:	f040 8196 	bne.w	8001916 <HAL_ADC_ConfigChannel+0x352>
    if (sConfig->Rank < 5U)
 80015ea:	684a      	ldr	r2, [r1, #4]
 80015ec:	2a04      	cmp	r2, #4
 80015ee:	d831      	bhi.n	8001654 <HAL_ADC_ConfigChannel+0x90>
      MODIFY_REG(hadc->Instance->SQR1,
 80015f0:	6b04      	ldr	r4, [r0, #48]	; 0x30
 80015f2:	eb02 0242 	add.w	r2, r2, r2, lsl #1
 80015f6:	0055      	lsls	r5, r2, #1
 80015f8:	221f      	movs	r2, #31
 80015fa:	40aa      	lsls	r2, r5
 80015fc:	ea24 0202 	bic.w	r2, r4, r2
 8001600:	680c      	ldr	r4, [r1, #0]
 8001602:	40ac      	lsls	r4, r5
 8001604:	4322      	orrs	r2, r4
 8001606:	6302      	str	r2, [r0, #48]	; 0x30
  if (ADC_IS_CONVERSION_ONGOING_REGULAR_INJECTED(hadc) == RESET)
 8001608:	6818      	ldr	r0, [r3, #0]
 800160a:	6882      	ldr	r2, [r0, #8]
 800160c:	f012 0f0c 	tst.w	r2, #12
 8001610:	d168      	bne.n	80016e4 <HAL_ADC_ConfigChannel+0x120>
    if (sConfig->Channel >= ADC_CHANNEL_10)
 8001612:	680a      	ldr	r2, [r1, #0]
 8001614:	2a09      	cmp	r2, #9
 8001616:	d94e      	bls.n	80016b6 <HAL_ADC_ConfigChannel+0xf2>
      MODIFY_REG(hadc->Instance->SMPR2                             ,
 8001618:	6984      	ldr	r4, [r0, #24]
 800161a:	eb02 0242 	add.w	r2, r2, r2, lsl #1
 800161e:	3a1e      	subs	r2, #30
 8001620:	2507      	movs	r5, #7
 8001622:	4095      	lsls	r5, r2
 8001624:	ea24 0405 	bic.w	r4, r4, r5
 8001628:	688d      	ldr	r5, [r1, #8]
 800162a:	fa05 f202 	lsl.w	r2, r5, r2
 800162e:	4322      	orrs	r2, r4
 8001630:	6182      	str	r2, [r0, #24]
    tmpOffsetShifted = ADC_OFFSET_SHIFT_RESOLUTION(hadc, sConfig->Offset);
 8001632:	6948      	ldr	r0, [r1, #20]
 8001634:	681c      	ldr	r4, [r3, #0]
 8001636:	68e2      	ldr	r2, [r4, #12]
 8001638:	f3c2 02c1 	ubfx	r2, r2, #3, #2
 800163c:	0052      	lsls	r2, r2, #1
 800163e:	fa00 f202 	lsl.w	r2, r0, r2
    switch (sConfig->OffsetNumber)
 8001642:	6908      	ldr	r0, [r1, #16]
 8001644:	3801      	subs	r0, #1
 8001646:	2803      	cmp	r0, #3
 8001648:	f200 808f 	bhi.w	800176a <HAL_ADC_ConfigChannel+0x1a6>
 800164c:	e8df f000 	tbb	[pc, r0]
 8001650:	82776c40 	.word	0x82776c40
    else if (sConfig->Rank < 10U)
 8001654:	2a09      	cmp	r2, #9
 8001656:	d80e      	bhi.n	8001676 <HAL_ADC_ConfigChannel+0xb2>
      MODIFY_REG(hadc->Instance->SQR2,
 8001658:	6b44      	ldr	r4, [r0, #52]	; 0x34
 800165a:	eb02 0242 	add.w	r2, r2, r2, lsl #1
 800165e:	0055      	lsls	r5, r2, #1
 8001660:	3d1e      	subs	r5, #30
 8001662:	221f      	movs	r2, #31
 8001664:	40aa      	lsls	r2, r5
 8001666:	ea24 0202 	bic.w	r2, r4, r2
 800166a:	680c      	ldr	r4, [r1, #0]
 800166c:	fa04 f505 	lsl.w	r5, r4, r5
 8001670:	432a      	orrs	r2, r5
 8001672:	6342      	str	r2, [r0, #52]	; 0x34
 8001674:	e7c8      	b.n	8001608 <HAL_ADC_ConfigChannel+0x44>
    else if (sConfig->Rank < 15U)
 8001676:	2a0e      	cmp	r2, #14
 8001678:	d80e      	bhi.n	8001698 <HAL_ADC_ConfigChannel+0xd4>
      MODIFY_REG(hadc->Instance->SQR3                        ,
 800167a:	6b84      	ldr	r4, [r0, #56]	; 0x38
 800167c:	eb02 0242 	add.w	r2, r2, r2, lsl #1
 8001680:	0055      	lsls	r5, r2, #1
 8001682:	3d3c      	subs	r5, #60	; 0x3c
 8001684:	221f      	movs	r2, #31
 8001686:	40aa      	lsls	r2, r5
 8001688:	ea24 0202 	bic.w	r2, r4, r2
 800168c:	680c      	ldr	r4, [r1, #0]
 800168e:	fa04 f505 	lsl.w	r5, r4, r5
 8001692:	432a      	orrs	r2, r5
 8001694:	6382      	str	r2, [r0, #56]	; 0x38
 8001696:	e7b7      	b.n	8001608 <HAL_ADC_ConfigChannel+0x44>
      MODIFY_REG(hadc->Instance->SQR4                        ,
 8001698:	6bc4      	ldr	r4, [r0, #60]	; 0x3c
 800169a:	eb02 0242 	add.w	r2, r2, r2, lsl #1
 800169e:	0055      	lsls	r5, r2, #1
 80016a0:	3d5a      	subs	r5, #90	; 0x5a
 80016a2:	221f      	movs	r2, #31
 80016a4:	40aa      	lsls	r2, r5
 80016a6:	ea24 0202 	bic.w	r2, r4, r2
 80016aa:	680c      	ldr	r4, [r1, #0]
 80016ac:	fa04 f505 	lsl.w	r5, r4, r5
 80016b0:	432a      	orrs	r2, r5
 80016b2:	63c2      	str	r2, [r0, #60]	; 0x3c
 80016b4:	e7a8      	b.n	8001608 <HAL_ADC_ConfigChannel+0x44>
      MODIFY_REG(hadc->Instance->SMPR1                             ,
 80016b6:	6944      	ldr	r4, [r0, #20]
 80016b8:	eb02 0242 	add.w	r2, r2, r2, lsl #1
 80016bc:	2507      	movs	r5, #7
 80016be:	4095      	lsls	r5, r2
 80016c0:	ea24 0405 	bic.w	r4, r4, r5
 80016c4:	688d      	ldr	r5, [r1, #8]
 80016c6:	fa05 f202 	lsl.w	r2, r5, r2
 80016ca:	4322      	orrs	r2, r4
 80016cc:	6142      	str	r2, [r0, #20]
 80016ce:	e7b0      	b.n	8001632 <HAL_ADC_ConfigChannel+0x6e>
      MODIFY_REG(hadc->Instance->OFR1               ,
 80016d0:	6e20      	ldr	r0, [r4, #96]	; 0x60
 80016d2:	4d98      	ldr	r5, [pc, #608]	; (8001934 <HAL_ADC_ConfigChannel+0x370>)
 80016d4:	4005      	ands	r5, r0
 80016d6:	6808      	ldr	r0, [r1, #0]
 80016d8:	ea42 6280 	orr.w	r2, r2, r0, lsl #26
 80016dc:	4315      	orrs	r5, r2
 80016de:	f045 4500 	orr.w	r5, r5, #2147483648	; 0x80000000
 80016e2:	6625      	str	r5, [r4, #96]	; 0x60
  if (ADC_IS_ENABLE(hadc) == RESET)
 80016e4:	6818      	ldr	r0, [r3, #0]
 80016e6:	6882      	ldr	r2, [r0, #8]
 80016e8:	f002 0203 	and.w	r2, r2, #3
 80016ec:	2a01      	cmp	r2, #1
 80016ee:	d06f      	beq.n	80017d0 <HAL_ADC_ConfigChannel+0x20c>
 80016f0:	2200      	movs	r2, #0
 80016f2:	2a00      	cmp	r2, #0
 80016f4:	f040 811a 	bne.w	800192c <HAL_ADC_ConfigChannel+0x368>
    if (sConfig->SingleDiff != ADC_DIFFERENTIAL_ENDED)
 80016f8:	68cc      	ldr	r4, [r1, #12]
 80016fa:	2c01      	cmp	r4, #1
 80016fc:	d070      	beq.n	80017e0 <HAL_ADC_ConfigChannel+0x21c>
      CLEAR_BIT(hadc->Instance->DIFSEL, ADC_DIFSEL_CHANNEL(sConfig->Channel));
 80016fe:	f8d0 40b0 	ldr.w	r4, [r0, #176]	; 0xb0
 8001702:	680e      	ldr	r6, [r1, #0]
 8001704:	2501      	movs	r5, #1
 8001706:	40b5      	lsls	r5, r6
 8001708:	ea24 0405 	bic.w	r4, r4, r5
 800170c:	f8c0 40b0 	str.w	r4, [r0, #176]	; 0xb0
    if (( (sConfig->Channel == ADC_CHANNEL_TEMPSENSOR) &&
 8001710:	6809      	ldr	r1, [r1, #0]
 8001712:	2910      	cmp	r1, #16
 8001714:	f000 808d 	beq.w	8001832 <HAL_ADC_ConfigChannel+0x26e>
          (HAL_IS_BIT_CLR(tmpADC_Common->CCR, ADC_CCR_TSEN))            ) ||
 8001718:	2911      	cmp	r1, #17
 800171a:	f000 80af 	beq.w	800187c <HAL_ADC_ConfigChannel+0x2b8>
          (HAL_IS_BIT_CLR(tmpADC_Common->CCR, ADC_CCR_VBATEN))          ) ||
 800171e:	2912      	cmp	r1, #18
 8001720:	f000 80b2 	beq.w	8001888 <HAL_ADC_ConfigChannel+0x2c4>
  HAL_StatusTypeDef tmp_hal_status = HAL_OK;
 8001724:	2000      	movs	r0, #0
 8001726:	e0fb      	b.n	8001920 <HAL_ADC_ConfigChannel+0x35c>
      MODIFY_REG(hadc->Instance->OFR2               ,
 8001728:	6e60      	ldr	r0, [r4, #100]	; 0x64
 800172a:	4d82      	ldr	r5, [pc, #520]	; (8001934 <HAL_ADC_ConfigChannel+0x370>)
 800172c:	4005      	ands	r5, r0
 800172e:	6808      	ldr	r0, [r1, #0]
 8001730:	ea42 6280 	orr.w	r2, r2, r0, lsl #26
 8001734:	4315      	orrs	r5, r2
 8001736:	f045 4500 	orr.w	r5, r5, #2147483648	; 0x80000000
 800173a:	6665      	str	r5, [r4, #100]	; 0x64
      break;
 800173c:	e7d2      	b.n	80016e4 <HAL_ADC_ConfigChannel+0x120>
      MODIFY_REG(hadc->Instance->OFR3               ,
 800173e:	6ea0      	ldr	r0, [r4, #104]	; 0x68
 8001740:	4d7c      	ldr	r5, [pc, #496]	; (8001934 <HAL_ADC_ConfigChannel+0x370>)
 8001742:	4005      	ands	r5, r0
 8001744:	6808      	ldr	r0, [r1, #0]
 8001746:	ea42 6280 	orr.w	r2, r2, r0, lsl #26
 800174a:	4315      	orrs	r5, r2
 800174c:	f045 4500 	orr.w	r5, r5, #2147483648	; 0x80000000
 8001750:	66a5      	str	r5, [r4, #104]	; 0x68
      break;
 8001752:	e7c7      	b.n	80016e4 <HAL_ADC_ConfigChannel+0x120>
      MODIFY_REG(hadc->Instance->OFR4               ,
 8001754:	6ee5      	ldr	r5, [r4, #108]	; 0x6c
 8001756:	4877      	ldr	r0, [pc, #476]	; (8001934 <HAL_ADC_ConfigChannel+0x370>)
 8001758:	4028      	ands	r0, r5
 800175a:	680d      	ldr	r5, [r1, #0]
 800175c:	ea42 6285 	orr.w	r2, r2, r5, lsl #26
 8001760:	4302      	orrs	r2, r0
 8001762:	f042 4200 	orr.w	r2, r2, #2147483648	; 0x80000000
 8001766:	66e2      	str	r2, [r4, #108]	; 0x6c
      break;
 8001768:	e7bc      	b.n	80016e4 <HAL_ADC_ConfigChannel+0x120>
      if (((hadc->Instance->OFR1) & ADC_OFR1_OFFSET1_CH) == ADC_OFR_CHANNEL(sConfig->Channel))
 800176a:	6e22      	ldr	r2, [r4, #96]	; 0x60
 800176c:	f002 42f8 	and.w	r2, r2, #2080374784	; 0x7c000000
 8001770:	6808      	ldr	r0, [r1, #0]
 8001772:	ebb2 6f80 	cmp.w	r2, r0, lsl #26
 8001776:	d01c      	beq.n	80017b2 <HAL_ADC_ConfigChannel+0x1ee>
      if (((hadc->Instance->OFR2) & ADC_OFR2_OFFSET2_CH) == ADC_OFR_CHANNEL(sConfig->Channel))
 8001778:	6818      	ldr	r0, [r3, #0]
 800177a:	6e42      	ldr	r2, [r0, #100]	; 0x64
 800177c:	f002 42f8 	and.w	r2, r2, #2080374784	; 0x7c000000
 8001780:	680c      	ldr	r4, [r1, #0]
 8001782:	ebb2 6f84 	cmp.w	r2, r4, lsl #26
 8001786:	d019      	beq.n	80017bc <HAL_ADC_ConfigChannel+0x1f8>
      if (((hadc->Instance->OFR3) & ADC_OFR3_OFFSET3_CH) == ADC_OFR_CHANNEL(sConfig->Channel))
 8001788:	6818      	ldr	r0, [r3, #0]
 800178a:	6e82      	ldr	r2, [r0, #104]	; 0x68
 800178c:	f002 42f8 	and.w	r2, r2, #2080374784	; 0x7c000000
 8001790:	680c      	ldr	r4, [r1, #0]
 8001792:	ebb2 6f84 	cmp.w	r2, r4, lsl #26
 8001796:	d016      	beq.n	80017c6 <HAL_ADC_ConfigChannel+0x202>
      if (((hadc->Instance->OFR4) & ADC_OFR4_OFFSET4_CH) == ADC_OFR_CHANNEL(sConfig->Channel))
 8001798:	6818      	ldr	r0, [r3, #0]
 800179a:	6ec2      	ldr	r2, [r0, #108]	; 0x6c
 800179c:	f002 42f8 	and.w	r2, r2, #2080374784	; 0x7c000000
 80017a0:	680c      	ldr	r4, [r1, #0]
 80017a2:	ebb2 6f84 	cmp.w	r2, r4, lsl #26
 80017a6:	d19d      	bne.n	80016e4 <HAL_ADC_ConfigChannel+0x120>
        CLEAR_BIT(hadc->Instance->OFR4, ADC_OFR4_OFFSET4_EN);
 80017a8:	6ec2      	ldr	r2, [r0, #108]	; 0x6c
 80017aa:	f022 4200 	bic.w	r2, r2, #2147483648	; 0x80000000
 80017ae:	66c2      	str	r2, [r0, #108]	; 0x6c
 80017b0:	e798      	b.n	80016e4 <HAL_ADC_ConfigChannel+0x120>
        CLEAR_BIT(hadc->Instance->OFR1, ADC_OFR1_OFFSET1_EN);
 80017b2:	6e22      	ldr	r2, [r4, #96]	; 0x60
 80017b4:	f022 4200 	bic.w	r2, r2, #2147483648	; 0x80000000
 80017b8:	6622      	str	r2, [r4, #96]	; 0x60
 80017ba:	e7dd      	b.n	8001778 <HAL_ADC_ConfigChannel+0x1b4>
        CLEAR_BIT(hadc->Instance->OFR2, ADC_OFR2_OFFSET2_EN); 
 80017bc:	6e42      	ldr	r2, [r0, #100]	; 0x64
 80017be:	f022 4200 	bic.w	r2, r2, #2147483648	; 0x80000000
 80017c2:	6642      	str	r2, [r0, #100]	; 0x64
 80017c4:	e7e0      	b.n	8001788 <HAL_ADC_ConfigChannel+0x1c4>
        CLEAR_BIT(hadc->Instance->OFR3, ADC_OFR3_OFFSET3_EN);
 80017c6:	6e82      	ldr	r2, [r0, #104]	; 0x68
 80017c8:	f022 4200 	bic.w	r2, r2, #2147483648	; 0x80000000
 80017cc:	6682      	str	r2, [r0, #104]	; 0x68
 80017ce:	e7e3      	b.n	8001798 <HAL_ADC_ConfigChannel+0x1d4>
  if (ADC_IS_ENABLE(hadc) == RESET)
 80017d0:	6802      	ldr	r2, [r0, #0]
 80017d2:	f012 0f01 	tst.w	r2, #1
 80017d6:	d101      	bne.n	80017dc <HAL_ADC_ConfigChannel+0x218>
 80017d8:	2200      	movs	r2, #0
 80017da:	e78a      	b.n	80016f2 <HAL_ADC_ConfigChannel+0x12e>
 80017dc:	2201      	movs	r2, #1
 80017de:	e788      	b.n	80016f2 <HAL_ADC_ConfigChannel+0x12e>
      SET_BIT(hadc->Instance->DIFSEL, ADC_DIFSEL_CHANNEL(sConfig->Channel));
 80017e0:	f8d0 40b0 	ldr.w	r4, [r0, #176]	; 0xb0
 80017e4:	680e      	ldr	r6, [r1, #0]
 80017e6:	2501      	movs	r5, #1
 80017e8:	40b5      	lsls	r5, r6
 80017ea:	432c      	orrs	r4, r5
 80017ec:	f8c0 40b0 	str.w	r4, [r0, #176]	; 0xb0
      if (sConfig->Channel >= ADC_CHANNEL_10)
 80017f0:	6808      	ldr	r0, [r1, #0]
 80017f2:	2809      	cmp	r0, #9
 80017f4:	d90e      	bls.n	8001814 <HAL_ADC_ConfigChannel+0x250>
        MODIFY_REG(hadc->Instance->SMPR2,
 80017f6:	681e      	ldr	r6, [r3, #0]
 80017f8:	69b4      	ldr	r4, [r6, #24]
 80017fa:	eb00 0040 	add.w	r0, r0, r0, lsl #1
 80017fe:	381b      	subs	r0, #27
 8001800:	2507      	movs	r5, #7
 8001802:	4085      	lsls	r5, r0
 8001804:	ea24 0405 	bic.w	r4, r4, r5
 8001808:	688d      	ldr	r5, [r1, #8]
 800180a:	fa05 f000 	lsl.w	r0, r5, r0
 800180e:	4320      	orrs	r0, r4
 8001810:	61b0      	str	r0, [r6, #24]
 8001812:	e77d      	b.n	8001710 <HAL_ADC_ConfigChannel+0x14c>
        MODIFY_REG(hadc->Instance->SMPR1,
 8001814:	681e      	ldr	r6, [r3, #0]
 8001816:	6974      	ldr	r4, [r6, #20]
 8001818:	3001      	adds	r0, #1
 800181a:	eb00 0040 	add.w	r0, r0, r0, lsl #1
 800181e:	2507      	movs	r5, #7
 8001820:	4085      	lsls	r5, r0
 8001822:	ea24 0405 	bic.w	r4, r4, r5
 8001826:	688d      	ldr	r5, [r1, #8]
 8001828:	fa05 f000 	lsl.w	r0, r5, r0
 800182c:	4320      	orrs	r0, r4
 800182e:	6170      	str	r0, [r6, #20]
 8001830:	e76e      	b.n	8001710 <HAL_ADC_ConfigChannel+0x14c>
          (HAL_IS_BIT_CLR(tmpADC_Common->CCR, ADC_CCR_TSEN))            ) ||
 8001832:	4841      	ldr	r0, [pc, #260]	; (8001938 <HAL_ADC_ConfigChannel+0x374>)
 8001834:	6880      	ldr	r0, [r0, #8]
    if (( (sConfig->Channel == ADC_CHANNEL_TEMPSENSOR) &&
 8001836:	f410 0f00 	tst.w	r0, #8388608	; 0x800000
 800183a:	f47f af6d 	bne.w	8001718 <HAL_ADC_ConfigChannel+0x154>
      ADC_COMMON_ADC_OTHER(hadc, &tmphadcSharingSameCommonRegister);
 800183e:	681c      	ldr	r4, [r3, #0]
 8001840:	f1b4 4fa0 	cmp.w	r4, #1342177280	; 0x50000000
 8001844:	d027      	beq.n	8001896 <HAL_ADC_ConfigChannel+0x2d2>
 8001846:	f04f 40a0 	mov.w	r0, #1342177280	; 0x50000000
 800184a:	9001      	str	r0, [sp, #4]
      if ((ADC_IS_ENABLE(hadc) == RESET)                                    &&
 800184c:	68a0      	ldr	r0, [r4, #8]
 800184e:	f000 0003 	and.w	r0, r0, #3
 8001852:	2801      	cmp	r0, #1
 8001854:	d022      	beq.n	800189c <HAL_ADC_ConfigChannel+0x2d8>
 8001856:	2a00      	cmp	r2, #0
 8001858:	d157      	bne.n	800190a <HAL_ADC_ConfigChannel+0x346>
          ( (tmphadcSharingSameCommonRegister.Instance == NULL)         ||
 800185a:	9d01      	ldr	r5, [sp, #4]
      if ((ADC_IS_ENABLE(hadc) == RESET)                                    &&
 800185c:	b135      	cbz	r5, 800186c <HAL_ADC_ConfigChannel+0x2a8>
            (ADC_IS_ENABLE(&tmphadcSharingSameCommonRegister) == RESET)   )   )
 800185e:	68a8      	ldr	r0, [r5, #8]
 8001860:	f000 0003 	and.w	r0, r0, #3
 8001864:	2801      	cmp	r0, #1
 8001866:	d01f      	beq.n	80018a8 <HAL_ADC_ConfigChannel+0x2e4>
          ( (tmphadcSharingSameCommonRegister.Instance == NULL)         ||
 8001868:	2a00      	cmp	r2, #0
 800186a:	d14e      	bne.n	800190a <HAL_ADC_ConfigChannel+0x346>
        if ((sConfig->Channel == ADC_CHANNEL_TEMPSENSOR) && (hadc->Instance == ADC1))
 800186c:	2910      	cmp	r1, #16
 800186e:	d021      	beq.n	80018b4 <HAL_ADC_ConfigChannel+0x2f0>
        else if ((sConfig->Channel == ADC_CHANNEL_VBAT) && (hadc->Instance == ADC1))
 8001870:	2911      	cmp	r1, #17
 8001872:	d039      	beq.n	80018e8 <HAL_ADC_ConfigChannel+0x324>
        else if (sConfig->Channel == ADC_CHANNEL_VREFINT)
 8001874:	2912      	cmp	r1, #18
 8001876:	d041      	beq.n	80018fc <HAL_ADC_ConfigChannel+0x338>
  HAL_StatusTypeDef tmp_hal_status = HAL_OK;
 8001878:	2000      	movs	r0, #0
 800187a:	e051      	b.n	8001920 <HAL_ADC_ConfigChannel+0x35c>
          (HAL_IS_BIT_CLR(tmpADC_Common->CCR, ADC_CCR_VBATEN))          ) ||
 800187c:	482e      	ldr	r0, [pc, #184]	; (8001938 <HAL_ADC_ConfigChannel+0x374>)
 800187e:	6880      	ldr	r0, [r0, #8]
        ( (sConfig->Channel == ADC_CHANNEL_VBAT)       &&
 8001880:	f010 7f80 	tst.w	r0, #16777216	; 0x1000000
 8001884:	d0db      	beq.n	800183e <HAL_ADC_ConfigChannel+0x27a>
 8001886:	e74a      	b.n	800171e <HAL_ADC_ConfigChannel+0x15a>
          (HAL_IS_BIT_CLR(tmpADC_Common->CCR, ADC_CCR_VREFEN)))
 8001888:	482b      	ldr	r0, [pc, #172]	; (8001938 <HAL_ADC_ConfigChannel+0x374>)
 800188a:	6880      	ldr	r0, [r0, #8]
        ( (sConfig->Channel == ADC_CHANNEL_VREFINT)    &&
 800188c:	f410 0f80 	tst.w	r0, #4194304	; 0x400000
 8001890:	d0d5      	beq.n	800183e <HAL_ADC_ConfigChannel+0x27a>
  HAL_StatusTypeDef tmp_hal_status = HAL_OK;
 8001892:	2000      	movs	r0, #0
 8001894:	e044      	b.n	8001920 <HAL_ADC_ConfigChannel+0x35c>
      ADC_COMMON_ADC_OTHER(hadc, &tmphadcSharingSameCommonRegister);
 8001896:	4829      	ldr	r0, [pc, #164]	; (800193c <HAL_ADC_ConfigChannel+0x378>)
 8001898:	9001      	str	r0, [sp, #4]
 800189a:	e7d7      	b.n	800184c <HAL_ADC_ConfigChannel+0x288>
      if ((ADC_IS_ENABLE(hadc) == RESET)                                    &&
 800189c:	6820      	ldr	r0, [r4, #0]
 800189e:	f010 0f01 	tst.w	r0, #1
 80018a2:	d0d8      	beq.n	8001856 <HAL_ADC_ConfigChannel+0x292>
 80018a4:	2201      	movs	r2, #1
 80018a6:	e7d6      	b.n	8001856 <HAL_ADC_ConfigChannel+0x292>
            (ADC_IS_ENABLE(&tmphadcSharingSameCommonRegister) == RESET)   )   )
 80018a8:	6828      	ldr	r0, [r5, #0]
 80018aa:	f010 0f01 	tst.w	r0, #1
 80018ae:	d0db      	beq.n	8001868 <HAL_ADC_ConfigChannel+0x2a4>
 80018b0:	2201      	movs	r2, #1
 80018b2:	e7d9      	b.n	8001868 <HAL_ADC_ConfigChannel+0x2a4>
        if ((sConfig->Channel == ADC_CHANNEL_TEMPSENSOR) && (hadc->Instance == ADC1))
 80018b4:	f1b4 4fa0 	cmp.w	r4, #1342177280	; 0x50000000
 80018b8:	d1da      	bne.n	8001870 <HAL_ADC_ConfigChannel+0x2ac>
          SET_BIT(tmpADC_Common->CCR, ADC_CCR_TSEN);
 80018ba:	491f      	ldr	r1, [pc, #124]	; (8001938 <HAL_ADC_ConfigChannel+0x374>)
 80018bc:	688a      	ldr	r2, [r1, #8]
 80018be:	f442 0200 	orr.w	r2, r2, #8388608	; 0x800000
 80018c2:	608a      	str	r2, [r1, #8]
          wait_loop_index = (ADC_TEMPSENSOR_DELAY_US * (SystemCoreClock / 1000000U));
 80018c4:	4a1e      	ldr	r2, [pc, #120]	; (8001940 <HAL_ADC_ConfigChannel+0x37c>)
 80018c6:	6812      	ldr	r2, [r2, #0]
 80018c8:	491e      	ldr	r1, [pc, #120]	; (8001944 <HAL_ADC_ConfigChannel+0x380>)
 80018ca:	fbb2 f1f1 	udiv	r1, r2, r1
 80018ce:	220a      	movs	r2, #10
 80018d0:	fb02 f201 	mul.w	r2, r2, r1
 80018d4:	9200      	str	r2, [sp, #0]
          while(wait_loop_index != 0U)
 80018d6:	e002      	b.n	80018de <HAL_ADC_ConfigChannel+0x31a>
            wait_loop_index--;
 80018d8:	9a00      	ldr	r2, [sp, #0]
 80018da:	3a01      	subs	r2, #1
 80018dc:	9200      	str	r2, [sp, #0]
          while(wait_loop_index != 0U)
 80018de:	9a00      	ldr	r2, [sp, #0]
 80018e0:	2a00      	cmp	r2, #0
 80018e2:	d1f9      	bne.n	80018d8 <HAL_ADC_ConfigChannel+0x314>
  HAL_StatusTypeDef tmp_hal_status = HAL_OK;
 80018e4:	2000      	movs	r0, #0
 80018e6:	e01b      	b.n	8001920 <HAL_ADC_ConfigChannel+0x35c>
        else if ((sConfig->Channel == ADC_CHANNEL_VBAT) && (hadc->Instance == ADC1))
 80018e8:	f1b4 4fa0 	cmp.w	r4, #1342177280	; 0x50000000
 80018ec:	d1c2      	bne.n	8001874 <HAL_ADC_ConfigChannel+0x2b0>
          SET_BIT(tmpADC_Common->CCR, ADC_CCR_VBATEN);
 80018ee:	4912      	ldr	r1, [pc, #72]	; (8001938 <HAL_ADC_ConfigChannel+0x374>)
 80018f0:	688a      	ldr	r2, [r1, #8]
 80018f2:	f042 7280 	orr.w	r2, r2, #16777216	; 0x1000000
 80018f6:	608a      	str	r2, [r1, #8]
  HAL_StatusTypeDef tmp_hal_status = HAL_OK;
 80018f8:	2000      	movs	r0, #0
          SET_BIT(tmpADC_Common->CCR, ADC_CCR_VBATEN);
 80018fa:	e011      	b.n	8001920 <HAL_ADC_ConfigChannel+0x35c>
          SET_BIT(tmpADC_Common->CCR, ADC_CCR_VREFEN);
 80018fc:	490e      	ldr	r1, [pc, #56]	; (8001938 <HAL_ADC_ConfigChannel+0x374>)
 80018fe:	688a      	ldr	r2, [r1, #8]
 8001900:	f442 0280 	orr.w	r2, r2, #4194304	; 0x400000
 8001904:	608a      	str	r2, [r1, #8]
  HAL_StatusTypeDef tmp_hal_status = HAL_OK;
 8001906:	2000      	movs	r0, #0
 8001908:	e00a      	b.n	8001920 <HAL_ADC_ConfigChannel+0x35c>
        SET_BIT(hadc->State, HAL_ADC_STATE_ERROR_CONFIG);
 800190a:	6c5a      	ldr	r2, [r3, #68]	; 0x44
 800190c:	f042 0220 	orr.w	r2, r2, #32
 8001910:	645a      	str	r2, [r3, #68]	; 0x44
        tmp_hal_status = HAL_ERROR;
 8001912:	2001      	movs	r0, #1
 8001914:	e004      	b.n	8001920 <HAL_ADC_ConfigChannel+0x35c>
    SET_BIT(hadc->State, HAL_ADC_STATE_ERROR_CONFIG);
 8001916:	6c5a      	ldr	r2, [r3, #68]	; 0x44
 8001918:	f042 0220 	orr.w	r2, r2, #32
 800191c:	645a      	str	r2, [r3, #68]	; 0x44
    tmp_hal_status = HAL_ERROR;
 800191e:	2001      	movs	r0, #1
  __HAL_UNLOCK(hadc);
 8001920:	2200      	movs	r2, #0
 8001922:	f883 2040 	strb.w	r2, [r3, #64]	; 0x40
}
 8001926:	b017      	add	sp, #92	; 0x5c
 8001928:	bc70      	pop	{r4, r5, r6}
 800192a:	4770      	bx	lr
  HAL_StatusTypeDef tmp_hal_status = HAL_OK;
 800192c:	2000      	movs	r0, #0
 800192e:	e7f7      	b.n	8001920 <HAL_ADC_ConfigChannel+0x35c>
  __HAL_LOCK(hadc);
 8001930:	2002      	movs	r0, #2
 8001932:	e7f8      	b.n	8001926 <HAL_ADC_ConfigChannel+0x362>
 8001934:	83fff000 	.word	0x83fff000
 8001938:	50000300 	.word	0x50000300
 800193c:	50000100 	.word	0x50000100
 8001940:	20000008 	.word	0x20000008
 8001944:	000f4240 	.word	0x000f4240

08001948 <HAL_ADCEx_MultiModeConfigChannel>:
{
 8001948:	b470      	push	{r4, r5, r6}
 800194a:	b097      	sub	sp, #92	; 0x5c
 800194c:	4603      	mov	r3, r0
  ADC_COMMON_ADC_OTHER(hadc, &tmphadcSharingSameCommonRegister);
 800194e:	6802      	ldr	r2, [r0, #0]
 8001950:	f1b2 4fa0 	cmp.w	r2, #1342177280	; 0x50000000
 8001954:	d040      	beq.n	80019d8 <HAL_ADCEx_MultiModeConfigChannel+0x90>
 8001956:	f04f 40a0 	mov.w	r0, #1342177280	; 0x50000000
 800195a:	9001      	str	r0, [sp, #4]
  if (tmphadcSharingSameCommonRegister.Instance == NULL)
 800195c:	9801      	ldr	r0, [sp, #4]
 800195e:	2800      	cmp	r0, #0
 8001960:	f000 8088 	beq.w	8001a74 <HAL_ADCEx_MultiModeConfigChannel+0x12c>
  __HAL_LOCK(hadc);
 8001964:	f893 4040 	ldrb.w	r4, [r3, #64]	; 0x40
 8001968:	2c01      	cmp	r4, #1
 800196a:	f000 8085 	beq.w	8001a78 <HAL_ADCEx_MultiModeConfigChannel+0x130>
 800196e:	2401      	movs	r4, #1
 8001970:	f883 4040 	strb.w	r4, [r3, #64]	; 0x40
  if ( (ADC_IS_CONVERSION_ONGOING_REGULAR(hadc) == RESET) 
 8001974:	6892      	ldr	r2, [r2, #8]
 8001976:	f012 0f04 	tst.w	r2, #4
 800197a:	d168      	bne.n	8001a4e <HAL_ADCEx_MultiModeConfigChannel+0x106>
    && (ADC_IS_CONVERSION_ONGOING_REGULAR(&tmphadcSharingSameCommonRegister) == RESET) )
 800197c:	6882      	ldr	r2, [r0, #8]
 800197e:	f012 0f04 	tst.w	r2, #4
 8001982:	d164      	bne.n	8001a4e <HAL_ADCEx_MultiModeConfigChannel+0x106>
    if(multimode->Mode != ADC_MODE_INDEPENDENT)
 8001984:	680a      	ldr	r2, [r1, #0]
 8001986:	2a00      	cmp	r2, #0
 8001988:	d037      	beq.n	80019fa <HAL_ADCEx_MultiModeConfigChannel+0xb2>
      MODIFY_REG(tmpADC_Common->CCR                                          ,
 800198a:	4d3c      	ldr	r5, [pc, #240]	; (8001a7c <HAL_ADCEx_MultiModeConfigChannel+0x134>)
 800198c:	68aa      	ldr	r2, [r5, #8]
 800198e:	f422 4260 	bic.w	r2, r2, #57344	; 0xe000
 8001992:	684c      	ldr	r4, [r1, #4]
 8001994:	6b5e      	ldr	r6, [r3, #52]	; 0x34
 8001996:	ea44 3446 	orr.w	r4, r4, r6, lsl #13
 800199a:	4322      	orrs	r2, r4
 800199c:	60aa      	str	r2, [r5, #8]
      if ((ADC_IS_ENABLE(hadc) == RESET)                              &&
 800199e:	681c      	ldr	r4, [r3, #0]
 80019a0:	68a2      	ldr	r2, [r4, #8]
 80019a2:	f002 0203 	and.w	r2, r2, #3
 80019a6:	2a01      	cmp	r2, #1
 80019a8:	d019      	beq.n	80019de <HAL_ADCEx_MultiModeConfigChannel+0x96>
 80019aa:	2200      	movs	r2, #0
 80019ac:	2a00      	cmp	r2, #0
 80019ae:	d159      	bne.n	8001a64 <HAL_ADCEx_MultiModeConfigChannel+0x11c>
          (ADC_IS_ENABLE(&tmphadcSharingSameCommonRegister) == RESET)   )
 80019b0:	6884      	ldr	r4, [r0, #8]
 80019b2:	f004 0403 	and.w	r4, r4, #3
 80019b6:	2c01      	cmp	r4, #1
 80019b8:	d019      	beq.n	80019ee <HAL_ADCEx_MultiModeConfigChannel+0xa6>
      if ((ADC_IS_ENABLE(hadc) == RESET)                              &&
 80019ba:	2a00      	cmp	r2, #0
 80019bc:	d154      	bne.n	8001a68 <HAL_ADCEx_MultiModeConfigChannel+0x120>
        MODIFY_REG(tmpADC_Common->CCR                                          ,
 80019be:	4c2f      	ldr	r4, [pc, #188]	; (8001a7c <HAL_ADCEx_MultiModeConfigChannel+0x134>)
 80019c0:	68a2      	ldr	r2, [r4, #8]
 80019c2:	f422 6271 	bic.w	r2, r2, #3856	; 0xf10
 80019c6:	f022 020f 	bic.w	r2, r2, #15
 80019ca:	6808      	ldr	r0, [r1, #0]
 80019cc:	6889      	ldr	r1, [r1, #8]
 80019ce:	4301      	orrs	r1, r0
 80019d0:	430a      	orrs	r2, r1
 80019d2:	60a2      	str	r2, [r4, #8]
  HAL_StatusTypeDef tmp_hal_status = HAL_OK;
 80019d4:	2000      	movs	r0, #0
 80019d6:	e03f      	b.n	8001a58 <HAL_ADCEx_MultiModeConfigChannel+0x110>
  ADC_COMMON_ADC_OTHER(hadc, &tmphadcSharingSameCommonRegister);
 80019d8:	4829      	ldr	r0, [pc, #164]	; (8001a80 <HAL_ADCEx_MultiModeConfigChannel+0x138>)
 80019da:	9001      	str	r0, [sp, #4]
 80019dc:	e7be      	b.n	800195c <HAL_ADCEx_MultiModeConfigChannel+0x14>
      if ((ADC_IS_ENABLE(hadc) == RESET)                              &&
 80019de:	6822      	ldr	r2, [r4, #0]
 80019e0:	f012 0f01 	tst.w	r2, #1
 80019e4:	d101      	bne.n	80019ea <HAL_ADCEx_MultiModeConfigChannel+0xa2>
 80019e6:	2200      	movs	r2, #0
 80019e8:	e7e0      	b.n	80019ac <HAL_ADCEx_MultiModeConfigChannel+0x64>
 80019ea:	2201      	movs	r2, #1
 80019ec:	e7de      	b.n	80019ac <HAL_ADCEx_MultiModeConfigChannel+0x64>
          (ADC_IS_ENABLE(&tmphadcSharingSameCommonRegister) == RESET)   )
 80019ee:	6800      	ldr	r0, [r0, #0]
 80019f0:	f010 0f01 	tst.w	r0, #1
 80019f4:	d0e1      	beq.n	80019ba <HAL_ADCEx_MultiModeConfigChannel+0x72>
 80019f6:	2201      	movs	r2, #1
 80019f8:	e7df      	b.n	80019ba <HAL_ADCEx_MultiModeConfigChannel+0x72>
      CLEAR_BIT(tmpADC_Common->CCR, ADC_CCR_MDMA | ADC_CCR_DMACFG);
 80019fa:	4920      	ldr	r1, [pc, #128]	; (8001a7c <HAL_ADCEx_MultiModeConfigChannel+0x134>)
 80019fc:	688a      	ldr	r2, [r1, #8]
 80019fe:	f422 4260 	bic.w	r2, r2, #57344	; 0xe000
 8001a02:	608a      	str	r2, [r1, #8]
      if ((ADC_IS_ENABLE(hadc) == RESET)                              &&
 8001a04:	6819      	ldr	r1, [r3, #0]
 8001a06:	688a      	ldr	r2, [r1, #8]
 8001a08:	f002 0203 	and.w	r2, r2, #3
 8001a0c:	2a01      	cmp	r2, #1
 8001a0e:	d010      	beq.n	8001a32 <HAL_ADCEx_MultiModeConfigChannel+0xea>
 8001a10:	2200      	movs	r2, #0
 8001a12:	bb5a      	cbnz	r2, 8001a6c <HAL_ADCEx_MultiModeConfigChannel+0x124>
          (ADC_IS_ENABLE(&tmphadcSharingSameCommonRegister) == RESET)   )
 8001a14:	6881      	ldr	r1, [r0, #8]
 8001a16:	f001 0103 	and.w	r1, r1, #3
 8001a1a:	2901      	cmp	r1, #1
 8001a1c:	d011      	beq.n	8001a42 <HAL_ADCEx_MultiModeConfigChannel+0xfa>
      if ((ADC_IS_ENABLE(hadc) == RESET)                              &&
 8001a1e:	bb3a      	cbnz	r2, 8001a70 <HAL_ADCEx_MultiModeConfigChannel+0x128>
        CLEAR_BIT(tmpADC_Common->CCR, ADC_CCR_MULTI | ADC_CCR_DELAY);
 8001a20:	4916      	ldr	r1, [pc, #88]	; (8001a7c <HAL_ADCEx_MultiModeConfigChannel+0x134>)
 8001a22:	688a      	ldr	r2, [r1, #8]
 8001a24:	f422 6271 	bic.w	r2, r2, #3856	; 0xf10
 8001a28:	f022 020f 	bic.w	r2, r2, #15
 8001a2c:	608a      	str	r2, [r1, #8]
  HAL_StatusTypeDef tmp_hal_status = HAL_OK;
 8001a2e:	2000      	movs	r0, #0
 8001a30:	e012      	b.n	8001a58 <HAL_ADCEx_MultiModeConfigChannel+0x110>
      if ((ADC_IS_ENABLE(hadc) == RESET)                              &&
 8001a32:	680a      	ldr	r2, [r1, #0]
 8001a34:	f012 0f01 	tst.w	r2, #1
 8001a38:	d101      	bne.n	8001a3e <HAL_ADCEx_MultiModeConfigChannel+0xf6>
 8001a3a:	2200      	movs	r2, #0
 8001a3c:	e7e9      	b.n	8001a12 <HAL_ADCEx_MultiModeConfigChannel+0xca>
 8001a3e:	2201      	movs	r2, #1
 8001a40:	e7e7      	b.n	8001a12 <HAL_ADCEx_MultiModeConfigChannel+0xca>
          (ADC_IS_ENABLE(&tmphadcSharingSameCommonRegister) == RESET)   )
 8001a42:	6801      	ldr	r1, [r0, #0]
 8001a44:	f011 0f01 	tst.w	r1, #1
 8001a48:	d0e9      	beq.n	8001a1e <HAL_ADCEx_MultiModeConfigChannel+0xd6>
 8001a4a:	2201      	movs	r2, #1
 8001a4c:	e7e7      	b.n	8001a1e <HAL_ADCEx_MultiModeConfigChannel+0xd6>
    SET_BIT(hadc->State, HAL_ADC_STATE_ERROR_CONFIG);
 8001a4e:	6c5a      	ldr	r2, [r3, #68]	; 0x44
 8001a50:	f042 0220 	orr.w	r2, r2, #32
 8001a54:	645a      	str	r2, [r3, #68]	; 0x44
    tmp_hal_status = HAL_ERROR;
 8001a56:	2001      	movs	r0, #1
  __HAL_UNLOCK(hadc);
 8001a58:	2200      	movs	r2, #0
 8001a5a:	f883 2040 	strb.w	r2, [r3, #64]	; 0x40
} 
 8001a5e:	b017      	add	sp, #92	; 0x5c
 8001a60:	bc70      	pop	{r4, r5, r6}
 8001a62:	4770      	bx	lr
  HAL_StatusTypeDef tmp_hal_status = HAL_OK;
 8001a64:	2000      	movs	r0, #0
 8001a66:	e7f7      	b.n	8001a58 <HAL_ADCEx_MultiModeConfigChannel+0x110>
 8001a68:	2000      	movs	r0, #0
 8001a6a:	e7f5      	b.n	8001a58 <HAL_ADCEx_MultiModeConfigChannel+0x110>
 8001a6c:	2000      	movs	r0, #0
 8001a6e:	e7f3      	b.n	8001a58 <HAL_ADCEx_MultiModeConfigChannel+0x110>
 8001a70:	2000      	movs	r0, #0
 8001a72:	e7f1      	b.n	8001a58 <HAL_ADCEx_MultiModeConfigChannel+0x110>
    return HAL_ERROR;
 8001a74:	2001      	movs	r0, #1
 8001a76:	e7f2      	b.n	8001a5e <HAL_ADCEx_MultiModeConfigChannel+0x116>
  __HAL_LOCK(hadc);
 8001a78:	2002      	movs	r0, #2
 8001a7a:	e7f0      	b.n	8001a5e <HAL_ADCEx_MultiModeConfigChannel+0x116>
 8001a7c:	50000300 	.word	0x50000300
 8001a80:	50000100 	.word	0x50000100

08001a84 <HAL_NVIC_SetPriorityGrouping>:
__STATIC_INLINE void NVIC_SetPriorityGrouping(uint32_t PriorityGroup)
{
  uint32_t reg_value;
  uint32_t PriorityGroupTmp = (PriorityGroup & (uint32_t)0x07UL);             /* only values 0..7 are used          */

  reg_value  =  SCB->AIRCR;                                                   /* read old register configuration    */
 8001a84:	4a07      	ldr	r2, [pc, #28]	; (8001aa4 <HAL_NVIC_SetPriorityGrouping+0x20>)
 8001a86:	68d3      	ldr	r3, [r2, #12]
  reg_value &= ~((uint32_t)(SCB_AIRCR_VECTKEY_Msk | SCB_AIRCR_PRIGROUP_Msk)); /* clear bits to change               */
 8001a88:	f423 63e0 	bic.w	r3, r3, #1792	; 0x700
 8001a8c:	041b      	lsls	r3, r3, #16
 8001a8e:	0c1b      	lsrs	r3, r3, #16
  reg_value  =  (reg_value                                   |
                ((uint32_t)0x5FAUL << SCB_AIRCR_VECTKEY_Pos) |
                (PriorityGroupTmp << 8U)                      );              /* Insert write key and priorty group */
 8001a90:	0200      	lsls	r0, r0, #8
 8001a92:	f400 60e0 	and.w	r0, r0, #1792	; 0x700
                ((uint32_t)0x5FAUL << SCB_AIRCR_VECTKEY_Pos) |
 8001a96:	4318      	orrs	r0, r3
  reg_value  =  (reg_value                                   |
 8001a98:	f040 60bf 	orr.w	r0, r0, #100139008	; 0x5f80000
 8001a9c:	f440 3000 	orr.w	r0, r0, #131072	; 0x20000
  SCB->AIRCR =  reg_value;
 8001aa0:	60d0      	str	r0, [r2, #12]
 8001aa2:	4770      	bx	lr
 8001aa4:	e000ed00 	.word	0xe000ed00

08001aa8 <HAL_NVIC_SetPriority>:
  *         This parameter can be a value between 0 and 15 as described in the table CORTEX_NVIC_Priority_Table
  *         A lower priority value indicates a higher priority.
  * @retval None
  */
void HAL_NVIC_SetPriority(IRQn_Type IRQn, uint32_t PreemptPriority, uint32_t SubPriority)
{
 8001aa8:	b430      	push	{r4, r5}
  \details Reads the priority grouping field from the NVIC Interrupt Controller.
  \return                Priority grouping field (SCB->AIRCR [10:8] PRIGROUP field).
 */
__STATIC_INLINE uint32_t NVIC_GetPriorityGrouping(void)
{
  return ((uint32_t)((SCB->AIRCR & SCB_AIRCR_PRIGROUP_Msk) >> SCB_AIRCR_PRIGROUP_Pos));
 8001aaa:	4b16      	ldr	r3, [pc, #88]	; (8001b04 <HAL_NVIC_SetPriority+0x5c>)
 8001aac:	68db      	ldr	r3, [r3, #12]
 8001aae:	f3c3 2302 	ubfx	r3, r3, #8, #3
{
  uint32_t PriorityGroupTmp = (PriorityGroup & (uint32_t)0x07UL);   /* only values 0..7 are used          */
  uint32_t PreemptPriorityBits;
  uint32_t SubPriorityBits;

  PreemptPriorityBits = ((7UL - PriorityGroupTmp) > (uint32_t)(__NVIC_PRIO_BITS)) ? (uint32_t)(__NVIC_PRIO_BITS) : (uint32_t)(7UL - PriorityGroupTmp);
 8001ab2:	f1c3 0407 	rsb	r4, r3, #7
 8001ab6:	2c04      	cmp	r4, #4
 8001ab8:	bf28      	it	cs
 8001aba:	2404      	movcs	r4, #4
  SubPriorityBits     = ((PriorityGroupTmp + (uint32_t)(__NVIC_PRIO_BITS)) < (uint32_t)7UL) ? (uint32_t)0UL : (uint32_t)((PriorityGroupTmp - 7UL) + (uint32_t)(__NVIC_PRIO_BITS));
 8001abc:	1d1d      	adds	r5, r3, #4
 8001abe:	2d06      	cmp	r5, #6
 8001ac0:	d917      	bls.n	8001af2 <HAL_NVIC_SetPriority+0x4a>
 8001ac2:	3b03      	subs	r3, #3

  return (
           ((PreemptPriority & (uint32_t)((1UL << (PreemptPriorityBits)) - 1UL)) << SubPriorityBits) |
 8001ac4:	2501      	movs	r5, #1
 8001ac6:	fa05 f404 	lsl.w	r4, r5, r4
 8001aca:	3c01      	subs	r4, #1
 8001acc:	4021      	ands	r1, r4
 8001ace:	4099      	lsls	r1, r3
           ((SubPriority     & (uint32_t)((1UL << (SubPriorityBits    )) - 1UL)))
 8001ad0:	fa05 f303 	lsl.w	r3, r5, r3
 8001ad4:	3b01      	subs	r3, #1
 8001ad6:	4013      	ands	r3, r2
           ((PreemptPriority & (uint32_t)((1UL << (PreemptPriorityBits)) - 1UL)) << SubPriorityBits) |
 8001ad8:	4319      	orrs	r1, r3
  if ((int32_t)(IRQn) < 0)
 8001ada:	2800      	cmp	r0, #0
 8001adc:	db0b      	blt.n	8001af6 <HAL_NVIC_SetPriority+0x4e>
    NVIC->IP[((uint32_t)(int32_t)IRQn)]               = (uint8_t)((priority << (8U - __NVIC_PRIO_BITS)) & (uint32_t)0xFFUL);
 8001ade:	0109      	lsls	r1, r1, #4
 8001ae0:	b2c9      	uxtb	r1, r1
 8001ae2:	f100 4060 	add.w	r0, r0, #3758096384	; 0xe0000000
 8001ae6:	f500 4061 	add.w	r0, r0, #57600	; 0xe100
 8001aea:	f880 1300 	strb.w	r1, [r0, #768]	; 0x300
  assert_param(IS_NVIC_PREEMPTION_PRIORITY(PreemptPriority));
  
  prioritygroup = NVIC_GetPriorityGrouping();
  
  NVIC_SetPriority(IRQn, NVIC_EncodePriority(prioritygroup, PreemptPriority, SubPriority));
}
 8001aee:	bc30      	pop	{r4, r5}
 8001af0:	4770      	bx	lr
  SubPriorityBits     = ((PriorityGroupTmp + (uint32_t)(__NVIC_PRIO_BITS)) < (uint32_t)7UL) ? (uint32_t)0UL : (uint32_t)((PriorityGroupTmp - 7UL) + (uint32_t)(__NVIC_PRIO_BITS));
 8001af2:	2300      	movs	r3, #0
 8001af4:	e7e6      	b.n	8001ac4 <HAL_NVIC_SetPriority+0x1c>
    SCB->SHP[(((uint32_t)(int32_t)IRQn) & 0xFUL)-4UL] = (uint8_t)((priority << (8U - __NVIC_PRIO_BITS)) & (uint32_t)0xFFUL);
 8001af6:	f000 000f 	and.w	r0, r0, #15
 8001afa:	0109      	lsls	r1, r1, #4
 8001afc:	b2c9      	uxtb	r1, r1
 8001afe:	4b02      	ldr	r3, [pc, #8]	; (8001b08 <HAL_NVIC_SetPriority+0x60>)
 8001b00:	5419      	strb	r1, [r3, r0]
 8001b02:	e7f4      	b.n	8001aee <HAL_NVIC_SetPriority+0x46>
 8001b04:	e000ed00 	.word	0xe000ed00
 8001b08:	e000ed14 	.word	0xe000ed14

08001b0c <HAL_NVIC_EnableIRQ>:
  NVIC->ISER[(((uint32_t)(int32_t)IRQn) >> 5UL)] = (uint32_t)(1UL << (((uint32_t)(int32_t)IRQn) & 0x1FUL));
 8001b0c:	0942      	lsrs	r2, r0, #5
 8001b0e:	f000 001f 	and.w	r0, r0, #31
 8001b12:	2301      	movs	r3, #1
 8001b14:	fa03 f000 	lsl.w	r0, r3, r0
 8001b18:	4b01      	ldr	r3, [pc, #4]	; (8001b20 <HAL_NVIC_EnableIRQ+0x14>)
 8001b1a:	f843 0022 	str.w	r0, [r3, r2, lsl #2]
 8001b1e:	4770      	bx	lr
 8001b20:	e000e100 	.word	0xe000e100

08001b24 <HAL_SYSTICK_Config>:
           function <b>SysTick_Config</b> is not included. In this case, the file <b><i>device</i>.h</b>
           must contain a vendor-specific implementation of this function.
 */
__STATIC_INLINE uint32_t SysTick_Config(uint32_t ticks)
{
  if ((ticks - 1UL) > SysTick_LOAD_RELOAD_Msk)
 8001b24:	3801      	subs	r0, #1
 8001b26:	f1b0 7f80 	cmp.w	r0, #16777216	; 0x1000000
 8001b2a:	d20a      	bcs.n	8001b42 <HAL_SYSTICK_Config+0x1e>
  {
    return (1UL);                                                   /* Reload value impossible */
  }

  SysTick->LOAD  = (uint32_t)(ticks - 1UL);                         /* set reload register */
 8001b2c:	4b06      	ldr	r3, [pc, #24]	; (8001b48 <HAL_SYSTICK_Config+0x24>)
 8001b2e:	6058      	str	r0, [r3, #4]
    SCB->SHP[(((uint32_t)(int32_t)IRQn) & 0xFUL)-4UL] = (uint8_t)((priority << (8U - __NVIC_PRIO_BITS)) & (uint32_t)0xFFUL);
 8001b30:	21f0      	movs	r1, #240	; 0xf0
 8001b32:	4a06      	ldr	r2, [pc, #24]	; (8001b4c <HAL_SYSTICK_Config+0x28>)
 8001b34:	f882 1023 	strb.w	r1, [r2, #35]	; 0x23
  NVIC_SetPriority (SysTick_IRQn, (1UL << __NVIC_PRIO_BITS) - 1UL); /* set Priority for Systick Interrupt */
  SysTick->VAL   = 0UL;                                             /* Load the SysTick Counter Value */
 8001b38:	2000      	movs	r0, #0
 8001b3a:	6098      	str	r0, [r3, #8]
  SysTick->CTRL  = SysTick_CTRL_CLKSOURCE_Msk |
 8001b3c:	2207      	movs	r2, #7
 8001b3e:	601a      	str	r2, [r3, #0]
 8001b40:	4770      	bx	lr
    return (1UL);                                                   /* Reload value impossible */
 8001b42:	2001      	movs	r0, #1
  *                  - 1  Function failed.
  */
uint32_t HAL_SYSTICK_Config(uint32_t TicksNumb)
{
   return SysTick_Config(TicksNumb);
}
 8001b44:	4770      	bx	lr
 8001b46:	bf00      	nop
 8001b48:	e000e010 	.word	0xe000e010
 8001b4c:	e000ed00 	.word	0xe000ed00

08001b50 <HAL_DMA_Abort_IT>:
  * @param  hdma  : pointer to a DMA_HandleTypeDef structure that contains
  *                 the configuration information for the specified DMA Stream.
  * @retval HAL status
  */
HAL_StatusTypeDef HAL_DMA_Abort_IT(DMA_HandleTypeDef *hdma)
{  
 8001b50:	b508      	push	{r3, lr}
  HAL_StatusTypeDef status = HAL_OK;
  
  if(HAL_DMA_STATE_BUSY != hdma->State)
 8001b52:	f890 3021 	ldrb.w	r3, [r0, #33]	; 0x21
 8001b56:	2b02      	cmp	r3, #2
 8001b58:	d003      	beq.n	8001b62 <HAL_DMA_Abort_IT+0x12>
  {
    /* no transfer ongoing */
    hdma->ErrorCode = HAL_DMA_ERROR_NO_XFER;
 8001b5a:	2304      	movs	r3, #4
 8001b5c:	6383      	str	r3, [r0, #56]	; 0x38
        
    status = HAL_ERROR;
 8001b5e:	2001      	movs	r0, #1
 8001b60:	bd08      	pop	{r3, pc}
  }
  else
  { 
  
    /* Disable DMA IT */
    hdma->Instance->CCR &= ~(DMA_IT_TC | DMA_IT_HT | DMA_IT_TE);
 8001b62:	6802      	ldr	r2, [r0, #0]
 8001b64:	6813      	ldr	r3, [r2, #0]
 8001b66:	f023 030e 	bic.w	r3, r3, #14
 8001b6a:	6013      	str	r3, [r2, #0]
    
    /* Disable the channel */
    hdma->Instance->CCR &= ~DMA_CCR_EN;
 8001b6c:	6802      	ldr	r2, [r0, #0]
 8001b6e:	6813      	ldr	r3, [r2, #0]
 8001b70:	f023 0301 	bic.w	r3, r3, #1
 8001b74:	6013      	str	r3, [r2, #0]
    
    /* Clear all flags */
    hdma->DmaBaseAddress->IFCR = DMA_FLAG_GL1 << hdma->ChannelIndex;
 8001b76:	6bc1      	ldr	r1, [r0, #60]	; 0x3c
 8001b78:	6c03      	ldr	r3, [r0, #64]	; 0x40
 8001b7a:	2201      	movs	r2, #1
 8001b7c:	fa02 f303 	lsl.w	r3, r2, r3
 8001b80:	604b      	str	r3, [r1, #4]
    
    /* Change the DMA state */
    hdma->State = HAL_DMA_STATE_READY;
 8001b82:	f880 2021 	strb.w	r2, [r0, #33]	; 0x21
    
    /* Process Unlocked */
    __HAL_UNLOCK(hdma);
 8001b86:	2300      	movs	r3, #0
 8001b88:	f880 3020 	strb.w	r3, [r0, #32]
    
    /* Call User Abort callback */ 
    if(hdma->XferAbortCallback != NULL)
 8001b8c:	6b43      	ldr	r3, [r0, #52]	; 0x34
 8001b8e:	b113      	cbz	r3, 8001b96 <HAL_DMA_Abort_IT+0x46>
    {
      hdma->XferAbortCallback(hdma);
 8001b90:	4798      	blx	r3
  HAL_StatusTypeDef status = HAL_OK;
 8001b92:	2000      	movs	r0, #0
 8001b94:	bd08      	pop	{r3, pc}
 8001b96:	2000      	movs	r0, #0
    } 
  }
  return status;
}
 8001b98:	bd08      	pop	{r3, pc}
	...

08001b9c <HAL_GPIO_Init>:
  * @param  GPIO_Init pointer to a GPIO_InitTypeDef structure that contains
  *         the configuration information for the specified GPIO peripheral.
  * @retval None
  */
void HAL_GPIO_Init(GPIO_TypeDef  *GPIOx, GPIO_InitTypeDef *GPIO_Init)
{
 8001b9c:	b5f0      	push	{r4, r5, r6, r7, lr}
 8001b9e:	b083      	sub	sp, #12
  uint32_t position = 0x00U;
 8001ba0:	2300      	movs	r3, #0
  assert_param(IS_GPIO_PIN(GPIO_Init->Pin));
  assert_param(IS_GPIO_MODE(GPIO_Init->Mode));
  assert_param(IS_GPIO_PULL(GPIO_Init->Pull));

  /* Configure the port pins */
  while (((GPIO_Init->Pin) >> position) != RESET)
 8001ba2:	e088      	b.n	8001cb6 <HAL_GPIO_Init+0x11a>
        /* Check the Alternate function parameters */
        assert_param(IS_GPIO_AF_INSTANCE(GPIOx));
        assert_param(IS_GPIO_AF(GPIO_Init->Alternate));
        
        /* Configure Alternate function mapped with the current IO */
        temp = GPIOx->AFR[position >> 3];
 8001ba4:	08de      	lsrs	r6, r3, #3
 8001ba6:	3608      	adds	r6, #8
 8001ba8:	f850 4026 	ldr.w	r4, [r0, r6, lsl #2]
        temp &= ~(0xFU << ((uint32_t)(position & 0x07U) * 4U)) ;
 8001bac:	f003 0e07 	and.w	lr, r3, #7
 8001bb0:	ea4f 0e8e 	mov.w	lr, lr, lsl #2
 8001bb4:	270f      	movs	r7, #15
 8001bb6:	fa07 f70e 	lsl.w	r7, r7, lr
 8001bba:	ea24 0407 	bic.w	r4, r4, r7
        temp |= ((uint32_t)(GPIO_Init->Alternate) << (((uint32_t)position & 0x07U) * 4U));
 8001bbe:	690f      	ldr	r7, [r1, #16]
 8001bc0:	fa07 f70e 	lsl.w	r7, r7, lr
 8001bc4:	433c      	orrs	r4, r7
        GPIOx->AFR[position >> 3] = temp;
 8001bc6:	f840 4026 	str.w	r4, [r0, r6, lsl #2]
 8001bca:	e083      	b.n	8001cd4 <HAL_GPIO_Init+0x138>
         (GPIO_Init->Mode == GPIO_MODE_OUTPUT_OD) || (GPIO_Init->Mode == GPIO_MODE_AF_OD))
      {
        /* Check the Speed parameter */
        assert_param(IS_GPIO_SPEED(GPIO_Init->Speed));
        /* Configure the IO Speed */
        temp = GPIOx->OSPEEDR;
 8001bcc:	6886      	ldr	r6, [r0, #8]
        temp &= ~(GPIO_OSPEEDER_OSPEEDR0 << (position * 2U));
 8001bce:	4026      	ands	r6, r4
        temp |= (GPIO_Init->Speed << (position * 2U));
 8001bd0:	68cf      	ldr	r7, [r1, #12]
 8001bd2:	fa07 f70e 	lsl.w	r7, r7, lr
 8001bd6:	433e      	orrs	r6, r7
        GPIOx->OSPEEDR = temp;
 8001bd8:	6086      	str	r6, [r0, #8]

        /* Configure the IO Output Type */
        temp = GPIOx->OTYPER;
 8001bda:	6846      	ldr	r6, [r0, #4]
        temp &= ~(GPIO_OTYPER_OT_0 << position) ;
 8001bdc:	ea26 0505 	bic.w	r5, r6, r5
        temp |= (((GPIO_Init->Mode & GPIO_OUTPUT_TYPE) >> 4U) << position);
 8001be0:	684e      	ldr	r6, [r1, #4]
 8001be2:	f3c6 1600 	ubfx	r6, r6, #4, #1
 8001be6:	409e      	lsls	r6, r3
 8001be8:	4335      	orrs	r5, r6
        GPIOx->OTYPER = temp;
 8001bea:	6045      	str	r5, [r0, #4]
      }

      /* Activate the Pull-up or Pull down resistor for the current IO */
      temp = GPIOx->PUPDR;
 8001bec:	68c5      	ldr	r5, [r0, #12]
      temp &= ~(GPIO_PUPDR_PUPDR0 << (position * 2U));
 8001bee:	402c      	ands	r4, r5
      temp |= ((GPIO_Init->Pull) << (position * 2U));
 8001bf0:	688d      	ldr	r5, [r1, #8]
 8001bf2:	fa05 f50e 	lsl.w	r5, r5, lr
 8001bf6:	432c      	orrs	r4, r5
      GPIOx->PUPDR = temp;
 8001bf8:	60c4      	str	r4, [r0, #12]

      /*--------------------- EXTI Mode Configuration ------------------------*/
      /* Configure the External Interrupt or event for the current IO */
      if((GPIO_Init->Mode & EXTI_MODE) == EXTI_MODE)
 8001bfa:	684c      	ldr	r4, [r1, #4]
 8001bfc:	f014 5f80 	tst.w	r4, #268435456	; 0x10000000
 8001c00:	d058      	beq.n	8001cb4 <HAL_GPIO_Init+0x118>
      {
        /* Enable SYSCFG Clock */
        __HAL_RCC_SYSCFG_CLK_ENABLE();
 8001c02:	4c47      	ldr	r4, [pc, #284]	; (8001d20 <HAL_GPIO_Init+0x184>)
 8001c04:	69a5      	ldr	r5, [r4, #24]
 8001c06:	f045 0501 	orr.w	r5, r5, #1
 8001c0a:	61a5      	str	r5, [r4, #24]
 8001c0c:	69a4      	ldr	r4, [r4, #24]
 8001c0e:	f004 0401 	and.w	r4, r4, #1
 8001c12:	9401      	str	r4, [sp, #4]
 8001c14:	9c01      	ldr	r4, [sp, #4]

        temp = SYSCFG->EXTICR[position >> 2];
 8001c16:	089d      	lsrs	r5, r3, #2
 8001c18:	1cae      	adds	r6, r5, #2
 8001c1a:	4c42      	ldr	r4, [pc, #264]	; (8001d24 <HAL_GPIO_Init+0x188>)
 8001c1c:	f854 4026 	ldr.w	r4, [r4, r6, lsl #2]
        temp &= ~((0x0FU) << (4U * (position & 0x03U)));
 8001c20:	f003 0603 	and.w	r6, r3, #3
 8001c24:	00b6      	lsls	r6, r6, #2
 8001c26:	270f      	movs	r7, #15
 8001c28:	40b7      	lsls	r7, r6
 8001c2a:	ea24 0407 	bic.w	r4, r4, r7
        temp |= (GPIO_GET_INDEX(GPIOx) << (4U * (position & 0x03U)));
 8001c2e:	f1b0 4f90 	cmp.w	r0, #1207959552	; 0x48000000
 8001c32:	d06c      	beq.n	8001d0e <HAL_GPIO_Init+0x172>
 8001c34:	4f3c      	ldr	r7, [pc, #240]	; (8001d28 <HAL_GPIO_Init+0x18c>)
 8001c36:	42b8      	cmp	r0, r7
 8001c38:	d06b      	beq.n	8001d12 <HAL_GPIO_Init+0x176>
 8001c3a:	f507 6780 	add.w	r7, r7, #1024	; 0x400
 8001c3e:	42b8      	cmp	r0, r7
 8001c40:	d069      	beq.n	8001d16 <HAL_GPIO_Init+0x17a>
 8001c42:	f507 6780 	add.w	r7, r7, #1024	; 0x400
 8001c46:	42b8      	cmp	r0, r7
 8001c48:	d05f      	beq.n	8001d0a <HAL_GPIO_Init+0x16e>
 8001c4a:	2705      	movs	r7, #5
 8001c4c:	fa07 f606 	lsl.w	r6, r7, r6
 8001c50:	4334      	orrs	r4, r6
        SYSCFG->EXTICR[position >> 2] = temp;
 8001c52:	3502      	adds	r5, #2
 8001c54:	4e33      	ldr	r6, [pc, #204]	; (8001d24 <HAL_GPIO_Init+0x188>)
 8001c56:	f846 4025 	str.w	r4, [r6, r5, lsl #2]

        /* Clear EXTI line configuration */
        temp = EXTI->IMR;
 8001c5a:	4c34      	ldr	r4, [pc, #208]	; (8001d2c <HAL_GPIO_Init+0x190>)
 8001c5c:	6825      	ldr	r5, [r4, #0]
        temp &= ~((uint32_t)iocurrent);
 8001c5e:	43d4      	mvns	r4, r2
 8001c60:	ea05 0604 	and.w	r6, r5, r4
        if((GPIO_Init->Mode & GPIO_MODE_IT) == GPIO_MODE_IT)
 8001c64:	684f      	ldr	r7, [r1, #4]
 8001c66:	f417 3f80 	tst.w	r7, #65536	; 0x10000
 8001c6a:	d001      	beq.n	8001c70 <HAL_GPIO_Init+0xd4>
        {
          temp |= iocurrent;
 8001c6c:	ea42 0605 	orr.w	r6, r2, r5
        }
        EXTI->IMR = temp;
 8001c70:	4d2e      	ldr	r5, [pc, #184]	; (8001d2c <HAL_GPIO_Init+0x190>)
 8001c72:	602e      	str	r6, [r5, #0]

        temp = EXTI->EMR;
 8001c74:	686d      	ldr	r5, [r5, #4]
        temp &= ~((uint32_t)iocurrent);
 8001c76:	ea04 0605 	and.w	r6, r4, r5
        if((GPIO_Init->Mode & GPIO_MODE_EVT) == GPIO_MODE_EVT)
 8001c7a:	684f      	ldr	r7, [r1, #4]
 8001c7c:	f417 3f00 	tst.w	r7, #131072	; 0x20000
 8001c80:	d001      	beq.n	8001c86 <HAL_GPIO_Init+0xea>
        {
          temp |= iocurrent;
 8001c82:	ea42 0605 	orr.w	r6, r2, r5
        }
        EXTI->EMR = temp;
 8001c86:	4d29      	ldr	r5, [pc, #164]	; (8001d2c <HAL_GPIO_Init+0x190>)
 8001c88:	606e      	str	r6, [r5, #4]

        /* Clear Rising Falling edge configuration */
        temp = EXTI->RTSR;
 8001c8a:	68ad      	ldr	r5, [r5, #8]
        temp &= ~((uint32_t)iocurrent);
 8001c8c:	ea04 0605 	and.w	r6, r4, r5
        if((GPIO_Init->Mode & RISING_EDGE) == RISING_EDGE)
 8001c90:	684f      	ldr	r7, [r1, #4]
 8001c92:	f417 1f80 	tst.w	r7, #1048576	; 0x100000
 8001c96:	d001      	beq.n	8001c9c <HAL_GPIO_Init+0x100>
        {
          temp |= iocurrent;
 8001c98:	ea42 0605 	orr.w	r6, r2, r5
        }
        EXTI->RTSR = temp;
 8001c9c:	4d23      	ldr	r5, [pc, #140]	; (8001d2c <HAL_GPIO_Init+0x190>)
 8001c9e:	60ae      	str	r6, [r5, #8]

        temp = EXTI->FTSR;
 8001ca0:	68ed      	ldr	r5, [r5, #12]
        temp &= ~((uint32_t)iocurrent);
 8001ca2:	402c      	ands	r4, r5
        if((GPIO_Init->Mode & FALLING_EDGE) == FALLING_EDGE)
 8001ca4:	684e      	ldr	r6, [r1, #4]
 8001ca6:	f416 1f00 	tst.w	r6, #2097152	; 0x200000
 8001caa:	d001      	beq.n	8001cb0 <HAL_GPIO_Init+0x114>
        {
          temp |= iocurrent;
 8001cac:	ea42 0405 	orr.w	r4, r2, r5
        }
        EXTI->FTSR = temp;
 8001cb0:	4a1e      	ldr	r2, [pc, #120]	; (8001d2c <HAL_GPIO_Init+0x190>)
 8001cb2:	60d4      	str	r4, [r2, #12]
      }
    }
    
    position++;
 8001cb4:	3301      	adds	r3, #1
  while (((GPIO_Init->Pin) >> position) != RESET)
 8001cb6:	680a      	ldr	r2, [r1, #0]
 8001cb8:	fa32 f403 	lsrs.w	r4, r2, r3
 8001cbc:	d02d      	beq.n	8001d1a <HAL_GPIO_Init+0x17e>
    iocurrent = (GPIO_Init->Pin) & (1U << position);
 8001cbe:	2501      	movs	r5, #1
 8001cc0:	409d      	lsls	r5, r3
    if(iocurrent)
 8001cc2:	402a      	ands	r2, r5
 8001cc4:	d0f6      	beq.n	8001cb4 <HAL_GPIO_Init+0x118>
      if((GPIO_Init->Mode == GPIO_MODE_AF_PP) || (GPIO_Init->Mode == GPIO_MODE_AF_OD))
 8001cc6:	684c      	ldr	r4, [r1, #4]
 8001cc8:	2c02      	cmp	r4, #2
 8001cca:	f43f af6b 	beq.w	8001ba4 <HAL_GPIO_Init+0x8>
 8001cce:	2c12      	cmp	r4, #18
 8001cd0:	f43f af68 	beq.w	8001ba4 <HAL_GPIO_Init+0x8>
      temp = GPIOx->MODER;
 8001cd4:	6806      	ldr	r6, [r0, #0]
      temp &= ~(GPIO_MODER_MODER0 << (position * 2U));
 8001cd6:	ea4f 0e43 	mov.w	lr, r3, lsl #1
 8001cda:	2403      	movs	r4, #3
 8001cdc:	fa04 f40e 	lsl.w	r4, r4, lr
 8001ce0:	43e4      	mvns	r4, r4
 8001ce2:	4026      	ands	r6, r4
      temp |= ((GPIO_Init->Mode & GPIO_MODE) << (position * 2U));
 8001ce4:	684f      	ldr	r7, [r1, #4]
 8001ce6:	f007 0703 	and.w	r7, r7, #3
 8001cea:	fa07 f70e 	lsl.w	r7, r7, lr
 8001cee:	433e      	orrs	r6, r7
      GPIOx->MODER = temp;
 8001cf0:	6006      	str	r6, [r0, #0]
      if((GPIO_Init->Mode == GPIO_MODE_OUTPUT_PP) || (GPIO_Init->Mode == GPIO_MODE_AF_PP) ||
 8001cf2:	684e      	ldr	r6, [r1, #4]
 8001cf4:	1e77      	subs	r7, r6, #1
 8001cf6:	2f01      	cmp	r7, #1
 8001cf8:	f67f af68 	bls.w	8001bcc <HAL_GPIO_Init+0x30>
 8001cfc:	2e11      	cmp	r6, #17
 8001cfe:	f43f af65 	beq.w	8001bcc <HAL_GPIO_Init+0x30>
         (GPIO_Init->Mode == GPIO_MODE_OUTPUT_OD) || (GPIO_Init->Mode == GPIO_MODE_AF_OD))
 8001d02:	2e12      	cmp	r6, #18
 8001d04:	f47f af72 	bne.w	8001bec <HAL_GPIO_Init+0x50>
 8001d08:	e760      	b.n	8001bcc <HAL_GPIO_Init+0x30>
        temp |= (GPIO_GET_INDEX(GPIOx) << (4U * (position & 0x03U)));
 8001d0a:	2703      	movs	r7, #3
 8001d0c:	e79e      	b.n	8001c4c <HAL_GPIO_Init+0xb0>
 8001d0e:	2700      	movs	r7, #0
 8001d10:	e79c      	b.n	8001c4c <HAL_GPIO_Init+0xb0>
 8001d12:	2701      	movs	r7, #1
 8001d14:	e79a      	b.n	8001c4c <HAL_GPIO_Init+0xb0>
 8001d16:	2702      	movs	r7, #2
 8001d18:	e798      	b.n	8001c4c <HAL_GPIO_Init+0xb0>
  }
}
 8001d1a:	b003      	add	sp, #12
 8001d1c:	bdf0      	pop	{r4, r5, r6, r7, pc}
 8001d1e:	bf00      	nop
 8001d20:	40021000 	.word	0x40021000
 8001d24:	40010000 	.word	0x40010000
 8001d28:	48000400 	.word	0x48000400
 8001d2c:	40010400 	.word	0x40010400

08001d30 <HAL_GPIO_WritePin>:
{
  /* Check the parameters */
  assert_param(IS_GPIO_PIN(GPIO_Pin));
  assert_param(IS_GPIO_PIN_ACTION(PinState));

  if(PinState != GPIO_PIN_RESET)
 8001d30:	b90a      	cbnz	r2, 8001d36 <HAL_GPIO_WritePin+0x6>
  {
    GPIOx->BSRR = (uint32_t)GPIO_Pin;
  }
  else
  {
    GPIOx->BRR = (uint32_t)GPIO_Pin;
 8001d32:	6281      	str	r1, [r0, #40]	; 0x28
 8001d34:	4770      	bx	lr
    GPIOx->BSRR = (uint32_t)GPIO_Pin;
 8001d36:	6181      	str	r1, [r0, #24]
 8001d38:	4770      	bx	lr

08001d3a <I2C_Flush_TXDR>:
  */
static void I2C_Flush_TXDR(I2C_HandleTypeDef *hi2c)
{
  /* If a pending TXIS flag is set */
  /* Write a dummy data in TXDR to clear it */
  if (__HAL_I2C_GET_FLAG(hi2c, I2C_FLAG_TXIS) != RESET)
 8001d3a:	6803      	ldr	r3, [r0, #0]
 8001d3c:	699a      	ldr	r2, [r3, #24]
 8001d3e:	f012 0f02 	tst.w	r2, #2
 8001d42:	d001      	beq.n	8001d48 <I2C_Flush_TXDR+0xe>
  {
    hi2c->Instance->TXDR = 0x00U;
 8001d44:	2200      	movs	r2, #0
 8001d46:	629a      	str	r2, [r3, #40]	; 0x28
  }

  /* Flush TX register if not empty */
  if (__HAL_I2C_GET_FLAG(hi2c, I2C_FLAG_TXE) == RESET)
 8001d48:	6803      	ldr	r3, [r0, #0]
 8001d4a:	699a      	ldr	r2, [r3, #24]
 8001d4c:	f012 0f01 	tst.w	r2, #1
 8001d50:	d103      	bne.n	8001d5a <I2C_Flush_TXDR+0x20>
  {
    __HAL_I2C_CLEAR_FLAG(hi2c, I2C_FLAG_TXE);
 8001d52:	699a      	ldr	r2, [r3, #24]
 8001d54:	f042 0201 	orr.w	r2, r2, #1
 8001d58:	619a      	str	r2, [r3, #24]
 8001d5a:	4770      	bx	lr

08001d5c <I2C_TransferConfig>:
  *     @arg @ref I2C_GENERATE_START_READ Generate Restart for read request.
  *     @arg @ref I2C_GENERATE_START_WRITE Generate Restart for write request.
  * @retval None
  */
static void I2C_TransferConfig(I2C_HandleTypeDef *hi2c,  uint16_t DevAddress, uint8_t Size, uint32_t Mode, uint32_t Request)
{
 8001d5c:	b470      	push	{r4, r5, r6}
 8001d5e:	9d03      	ldr	r5, [sp, #12]
  assert_param(IS_I2C_ALL_INSTANCE(hi2c->Instance));
  assert_param(IS_TRANSFER_MODE(Mode));
  assert_param(IS_TRANSFER_REQUEST(Request));

  /* update CR2 register */
  MODIFY_REG(hi2c->Instance->CR2, ((I2C_CR2_SADD | I2C_CR2_NBYTES | I2C_CR2_RELOAD | I2C_CR2_AUTOEND | (I2C_CR2_RD_WRN & (uint32_t)(Request >> (31U - I2C_CR2_RD_WRN_Pos))) | I2C_CR2_START | I2C_CR2_STOP)), \
 8001d60:	6806      	ldr	r6, [r0, #0]
 8001d62:	6870      	ldr	r0, [r6, #4]
 8001d64:	0d6c      	lsrs	r4, r5, #21
 8001d66:	f404 6480 	and.w	r4, r4, #1024	; 0x400
 8001d6a:	f044 747f 	orr.w	r4, r4, #66846720	; 0x3fc0000
 8001d6e:	f444 3458 	orr.w	r4, r4, #221184	; 0x36000
 8001d72:	f444 747f 	orr.w	r4, r4, #1020	; 0x3fc
 8001d76:	f044 0403 	orr.w	r4, r4, #3
 8001d7a:	ea20 0004 	bic.w	r0, r0, r4
 8001d7e:	f3c1 0109 	ubfx	r1, r1, #0, #10
 8001d82:	ea41 4102 	orr.w	r1, r1, r2, lsl #16
 8001d86:	4319      	orrs	r1, r3
 8001d88:	4329      	orrs	r1, r5
 8001d8a:	4308      	orrs	r0, r1
 8001d8c:	6070      	str	r0, [r6, #4]
             (uint32_t)(((uint32_t)DevAddress & I2C_CR2_SADD) | (((uint32_t)Size << I2C_CR2_NBYTES_Pos) & I2C_CR2_NBYTES) | (uint32_t)Mode | (uint32_t)Request));
}
 8001d8e:	bc70      	pop	{r4, r5, r6}
 8001d90:	4770      	bx	lr

08001d92 <I2C_IsAcknowledgeFailed>:
{
 8001d92:	b570      	push	{r4, r5, r6, lr}
 8001d94:	4604      	mov	r4, r0
 8001d96:	460d      	mov	r5, r1
 8001d98:	4616      	mov	r6, r2
  if (__HAL_I2C_GET_FLAG(hi2c, I2C_FLAG_AF) == SET)
 8001d9a:	6803      	ldr	r3, [r0, #0]
 8001d9c:	699b      	ldr	r3, [r3, #24]
 8001d9e:	f013 0f10 	tst.w	r3, #16
 8001da2:	d017      	beq.n	8001dd4 <I2C_IsAcknowledgeFailed+0x42>
    while (__HAL_I2C_GET_FLAG(hi2c, I2C_FLAG_STOPF) == RESET)
 8001da4:	6823      	ldr	r3, [r4, #0]
 8001da6:	699a      	ldr	r2, [r3, #24]
 8001da8:	f012 0f20 	tst.w	r2, #32
 8001dac:	d114      	bne.n	8001dd8 <I2C_IsAcknowledgeFailed+0x46>
      if (Timeout != HAL_MAX_DELAY)
 8001dae:	f1b5 3fff 	cmp.w	r5, #4294967295
 8001db2:	d0f7      	beq.n	8001da4 <I2C_IsAcknowledgeFailed+0x12>
        if ((Timeout == 0U) || ((HAL_GetTick() - Tickstart) > Timeout))
 8001db4:	b125      	cbz	r5, 8001dc0 <I2C_IsAcknowledgeFailed+0x2e>
 8001db6:	f7fe ff57 	bl	8000c68 <HAL_GetTick>
 8001dba:	1b80      	subs	r0, r0, r6
 8001dbc:	4285      	cmp	r5, r0
 8001dbe:	d2f1      	bcs.n	8001da4 <I2C_IsAcknowledgeFailed+0x12>
          hi2c->State = HAL_I2C_STATE_READY;
 8001dc0:	2320      	movs	r3, #32
 8001dc2:	f884 3041 	strb.w	r3, [r4, #65]	; 0x41
          hi2c->Mode = HAL_I2C_MODE_NONE;
 8001dc6:	2300      	movs	r3, #0
 8001dc8:	f884 3042 	strb.w	r3, [r4, #66]	; 0x42
          __HAL_UNLOCK(hi2c);
 8001dcc:	f884 3040 	strb.w	r3, [r4, #64]	; 0x40
          return HAL_TIMEOUT;
 8001dd0:	2003      	movs	r0, #3
 8001dd2:	bd70      	pop	{r4, r5, r6, pc}
  return HAL_OK;
 8001dd4:	2000      	movs	r0, #0
 8001dd6:	bd70      	pop	{r4, r5, r6, pc}
    __HAL_I2C_CLEAR_FLAG(hi2c, I2C_FLAG_AF);
 8001dd8:	2210      	movs	r2, #16
 8001dda:	61da      	str	r2, [r3, #28]
    __HAL_I2C_CLEAR_FLAG(hi2c, I2C_FLAG_STOPF);
 8001ddc:	6823      	ldr	r3, [r4, #0]
 8001dde:	2520      	movs	r5, #32
 8001de0:	61dd      	str	r5, [r3, #28]
    I2C_Flush_TXDR(hi2c);
 8001de2:	4620      	mov	r0, r4
 8001de4:	f7ff ffa9 	bl	8001d3a <I2C_Flush_TXDR>
    I2C_RESET_CR2(hi2c);
 8001de8:	6822      	ldr	r2, [r4, #0]
 8001dea:	6853      	ldr	r3, [r2, #4]
 8001dec:	f023 73ff 	bic.w	r3, r3, #33423360	; 0x1fe0000
 8001df0:	f423 338b 	bic.w	r3, r3, #71168	; 0x11600
 8001df4:	f423 73ff 	bic.w	r3, r3, #510	; 0x1fe
 8001df8:	f023 0301 	bic.w	r3, r3, #1
 8001dfc:	6053      	str	r3, [r2, #4]
    hi2c->ErrorCode = HAL_I2C_ERROR_AF;
 8001dfe:	2304      	movs	r3, #4
 8001e00:	6463      	str	r3, [r4, #68]	; 0x44
    hi2c->State = HAL_I2C_STATE_READY;
 8001e02:	f884 5041 	strb.w	r5, [r4, #65]	; 0x41
    hi2c->Mode = HAL_I2C_MODE_NONE;
 8001e06:	2300      	movs	r3, #0
 8001e08:	f884 3042 	strb.w	r3, [r4, #66]	; 0x42
    __HAL_UNLOCK(hi2c);
 8001e0c:	f884 3040 	strb.w	r3, [r4, #64]	; 0x40
    return HAL_ERROR;
 8001e10:	2001      	movs	r0, #1
}
 8001e12:	bd70      	pop	{r4, r5, r6, pc}

08001e14 <I2C_WaitOnTXISFlagUntilTimeout>:
{
 8001e14:	b570      	push	{r4, r5, r6, lr}
 8001e16:	4604      	mov	r4, r0
 8001e18:	460d      	mov	r5, r1
 8001e1a:	4616      	mov	r6, r2
  while (__HAL_I2C_GET_FLAG(hi2c, I2C_FLAG_TXIS) == RESET)
 8001e1c:	6823      	ldr	r3, [r4, #0]
 8001e1e:	699b      	ldr	r3, [r3, #24]
 8001e20:	f013 0f02 	tst.w	r3, #2
 8001e24:	d11c      	bne.n	8001e60 <I2C_WaitOnTXISFlagUntilTimeout+0x4c>
    if (I2C_IsAcknowledgeFailed(hi2c, Timeout, Tickstart) != HAL_OK)
 8001e26:	4632      	mov	r2, r6
 8001e28:	4629      	mov	r1, r5
 8001e2a:	4620      	mov	r0, r4
 8001e2c:	f7ff ffb1 	bl	8001d92 <I2C_IsAcknowledgeFailed>
 8001e30:	b9c0      	cbnz	r0, 8001e64 <I2C_WaitOnTXISFlagUntilTimeout+0x50>
    if (Timeout != HAL_MAX_DELAY)
 8001e32:	f1b5 3fff 	cmp.w	r5, #4294967295
 8001e36:	d0f1      	beq.n	8001e1c <I2C_WaitOnTXISFlagUntilTimeout+0x8>
      if ((Timeout == 0U) || ((HAL_GetTick() - Tickstart) > Timeout))
 8001e38:	b125      	cbz	r5, 8001e44 <I2C_WaitOnTXISFlagUntilTimeout+0x30>
 8001e3a:	f7fe ff15 	bl	8000c68 <HAL_GetTick>
 8001e3e:	1b80      	subs	r0, r0, r6
 8001e40:	4285      	cmp	r5, r0
 8001e42:	d2eb      	bcs.n	8001e1c <I2C_WaitOnTXISFlagUntilTimeout+0x8>
        hi2c->ErrorCode |= HAL_I2C_ERROR_TIMEOUT;
 8001e44:	6c63      	ldr	r3, [r4, #68]	; 0x44
 8001e46:	f043 0320 	orr.w	r3, r3, #32
 8001e4a:	6463      	str	r3, [r4, #68]	; 0x44
        hi2c->State = HAL_I2C_STATE_READY;
 8001e4c:	2320      	movs	r3, #32
 8001e4e:	f884 3041 	strb.w	r3, [r4, #65]	; 0x41
        hi2c->Mode = HAL_I2C_MODE_NONE;
 8001e52:	2300      	movs	r3, #0
 8001e54:	f884 3042 	strb.w	r3, [r4, #66]	; 0x42
        __HAL_UNLOCK(hi2c);
 8001e58:	f884 3040 	strb.w	r3, [r4, #64]	; 0x40
        return HAL_TIMEOUT;
 8001e5c:	2003      	movs	r0, #3
 8001e5e:	bd70      	pop	{r4, r5, r6, pc}
  return HAL_OK;
 8001e60:	2000      	movs	r0, #0
 8001e62:	bd70      	pop	{r4, r5, r6, pc}
      return HAL_ERROR;
 8001e64:	2001      	movs	r0, #1
}
 8001e66:	bd70      	pop	{r4, r5, r6, pc}

08001e68 <I2C_WaitOnFlagUntilTimeout>:
{
 8001e68:	b5f8      	push	{r3, r4, r5, r6, r7, lr}
 8001e6a:	4605      	mov	r5, r0
 8001e6c:	460f      	mov	r7, r1
 8001e6e:	4616      	mov	r6, r2
 8001e70:	461c      	mov	r4, r3
  while (__HAL_I2C_GET_FLAG(hi2c, Flag) == Status)
 8001e72:	682b      	ldr	r3, [r5, #0]
 8001e74:	699b      	ldr	r3, [r3, #24]
 8001e76:	ea37 0303 	bics.w	r3, r7, r3
 8001e7a:	bf0c      	ite	eq
 8001e7c:	2301      	moveq	r3, #1
 8001e7e:	2300      	movne	r3, #0
 8001e80:	42b3      	cmp	r3, r6
 8001e82:	d113      	bne.n	8001eac <I2C_WaitOnFlagUntilTimeout+0x44>
    if (Timeout != HAL_MAX_DELAY)
 8001e84:	f1b4 3fff 	cmp.w	r4, #4294967295
 8001e88:	d0f3      	beq.n	8001e72 <I2C_WaitOnFlagUntilTimeout+0xa>
      if ((Timeout == 0U) || ((HAL_GetTick() - Tickstart) > Timeout))
 8001e8a:	b12c      	cbz	r4, 8001e98 <I2C_WaitOnFlagUntilTimeout+0x30>
 8001e8c:	f7fe feec 	bl	8000c68 <HAL_GetTick>
 8001e90:	9b06      	ldr	r3, [sp, #24]
 8001e92:	1ac0      	subs	r0, r0, r3
 8001e94:	4284      	cmp	r4, r0
 8001e96:	d2ec      	bcs.n	8001e72 <I2C_WaitOnFlagUntilTimeout+0xa>
        hi2c->State = HAL_I2C_STATE_READY;
 8001e98:	2320      	movs	r3, #32
 8001e9a:	f885 3041 	strb.w	r3, [r5, #65]	; 0x41
        hi2c->Mode = HAL_I2C_MODE_NONE;
 8001e9e:	2300      	movs	r3, #0
 8001ea0:	f885 3042 	strb.w	r3, [r5, #66]	; 0x42
        __HAL_UNLOCK(hi2c);
 8001ea4:	f885 3040 	strb.w	r3, [r5, #64]	; 0x40
        return HAL_TIMEOUT;
 8001ea8:	2003      	movs	r0, #3
 8001eaa:	bdf8      	pop	{r3, r4, r5, r6, r7, pc}
  return HAL_OK;
 8001eac:	2000      	movs	r0, #0
}
 8001eae:	bdf8      	pop	{r3, r4, r5, r6, r7, pc}

08001eb0 <I2C_RequestMemoryWrite>:
{
 8001eb0:	b570      	push	{r4, r5, r6, lr}
 8001eb2:	b082      	sub	sp, #8
 8001eb4:	4604      	mov	r4, r0
 8001eb6:	4616      	mov	r6, r2
 8001eb8:	461d      	mov	r5, r3
  I2C_TransferConfig(hi2c, DevAddress, MemAddSize, I2C_RELOAD_MODE, I2C_GENERATE_START_WRITE);
 8001eba:	4b1e      	ldr	r3, [pc, #120]	; (8001f34 <I2C_RequestMemoryWrite+0x84>)
 8001ebc:	9300      	str	r3, [sp, #0]
 8001ebe:	f04f 7380 	mov.w	r3, #16777216	; 0x1000000
 8001ec2:	b2ea      	uxtb	r2, r5
 8001ec4:	f7ff ff4a 	bl	8001d5c <I2C_TransferConfig>
  if (I2C_WaitOnTXISFlagUntilTimeout(hi2c, Timeout, Tickstart) != HAL_OK)
 8001ec8:	9a07      	ldr	r2, [sp, #28]
 8001eca:	9906      	ldr	r1, [sp, #24]
 8001ecc:	4620      	mov	r0, r4
 8001ece:	f7ff ffa1 	bl	8001e14 <I2C_WaitOnTXISFlagUntilTimeout>
 8001ed2:	b140      	cbz	r0, 8001ee6 <I2C_RequestMemoryWrite+0x36>
    if (hi2c->ErrorCode == HAL_I2C_ERROR_AF)
 8001ed4:	6c63      	ldr	r3, [r4, #68]	; 0x44
 8001ed6:	2b04      	cmp	r3, #4
 8001ed8:	d003      	beq.n	8001ee2 <I2C_RequestMemoryWrite+0x32>
      return HAL_TIMEOUT;
 8001eda:	2303      	movs	r3, #3
}
 8001edc:	4618      	mov	r0, r3
 8001ede:	b002      	add	sp, #8
 8001ee0:	bd70      	pop	{r4, r5, r6, pc}
      return HAL_ERROR;
 8001ee2:	2301      	movs	r3, #1
 8001ee4:	e7fa      	b.n	8001edc <I2C_RequestMemoryWrite+0x2c>
  if (MemAddSize == I2C_MEMADD_SIZE_8BIT)
 8001ee6:	2d01      	cmp	r5, #1
 8001ee8:	d00d      	beq.n	8001f06 <I2C_RequestMemoryWrite+0x56>
    hi2c->Instance->TXDR = I2C_MEM_ADD_MSB(MemAddress);
 8001eea:	6823      	ldr	r3, [r4, #0]
 8001eec:	0a32      	lsrs	r2, r6, #8
 8001eee:	629a      	str	r2, [r3, #40]	; 0x28
    if (I2C_WaitOnTXISFlagUntilTimeout(hi2c, Timeout, Tickstart) != HAL_OK)
 8001ef0:	9a07      	ldr	r2, [sp, #28]
 8001ef2:	9906      	ldr	r1, [sp, #24]
 8001ef4:	4620      	mov	r0, r4
 8001ef6:	f7ff ff8d 	bl	8001e14 <I2C_WaitOnTXISFlagUntilTimeout>
 8001efa:	b1b0      	cbz	r0, 8001f2a <I2C_RequestMemoryWrite+0x7a>
      if (hi2c->ErrorCode == HAL_I2C_ERROR_AF)
 8001efc:	6c63      	ldr	r3, [r4, #68]	; 0x44
 8001efe:	2b04      	cmp	r3, #4
 8001f00:	d011      	beq.n	8001f26 <I2C_RequestMemoryWrite+0x76>
        return HAL_TIMEOUT;
 8001f02:	2303      	movs	r3, #3
 8001f04:	e7ea      	b.n	8001edc <I2C_RequestMemoryWrite+0x2c>
    hi2c->Instance->TXDR = I2C_MEM_ADD_LSB(MemAddress);
 8001f06:	6823      	ldr	r3, [r4, #0]
 8001f08:	b2f6      	uxtb	r6, r6
 8001f0a:	629e      	str	r6, [r3, #40]	; 0x28
  if (I2C_WaitOnFlagUntilTimeout(hi2c, I2C_FLAG_TCR, RESET, Timeout, Tickstart) != HAL_OK)
 8001f0c:	9b07      	ldr	r3, [sp, #28]
 8001f0e:	9300      	str	r3, [sp, #0]
 8001f10:	9b06      	ldr	r3, [sp, #24]
 8001f12:	2200      	movs	r2, #0
 8001f14:	2180      	movs	r1, #128	; 0x80
 8001f16:	4620      	mov	r0, r4
 8001f18:	f7ff ffa6 	bl	8001e68 <I2C_WaitOnFlagUntilTimeout>
 8001f1c:	4603      	mov	r3, r0
 8001f1e:	2800      	cmp	r0, #0
 8001f20:	d0dc      	beq.n	8001edc <I2C_RequestMemoryWrite+0x2c>
    return HAL_TIMEOUT;
 8001f22:	2303      	movs	r3, #3
 8001f24:	e7da      	b.n	8001edc <I2C_RequestMemoryWrite+0x2c>
        return HAL_ERROR;
 8001f26:	2301      	movs	r3, #1
 8001f28:	e7d8      	b.n	8001edc <I2C_RequestMemoryWrite+0x2c>
    hi2c->Instance->TXDR = I2C_MEM_ADD_LSB(MemAddress);
 8001f2a:	6823      	ldr	r3, [r4, #0]
 8001f2c:	b2f6      	uxtb	r6, r6
 8001f2e:	629e      	str	r6, [r3, #40]	; 0x28
 8001f30:	e7ec      	b.n	8001f0c <I2C_RequestMemoryWrite+0x5c>
 8001f32:	bf00      	nop
 8001f34:	80002000 	.word	0x80002000

08001f38 <I2C_RequestMemoryRead>:
{
 8001f38:	b570      	push	{r4, r5, r6, lr}
 8001f3a:	b082      	sub	sp, #8
 8001f3c:	4604      	mov	r4, r0
 8001f3e:	4616      	mov	r6, r2
 8001f40:	461d      	mov	r5, r3
  I2C_TransferConfig(hi2c, DevAddress, MemAddSize, I2C_SOFTEND_MODE, I2C_GENERATE_START_WRITE);
 8001f42:	4b1d      	ldr	r3, [pc, #116]	; (8001fb8 <I2C_RequestMemoryRead+0x80>)
 8001f44:	9300      	str	r3, [sp, #0]
 8001f46:	2300      	movs	r3, #0
 8001f48:	b2ea      	uxtb	r2, r5
 8001f4a:	f7ff ff07 	bl	8001d5c <I2C_TransferConfig>
  if (I2C_WaitOnTXISFlagUntilTimeout(hi2c, Timeout, Tickstart) != HAL_OK)
 8001f4e:	9a07      	ldr	r2, [sp, #28]
 8001f50:	9906      	ldr	r1, [sp, #24]
 8001f52:	4620      	mov	r0, r4
 8001f54:	f7ff ff5e 	bl	8001e14 <I2C_WaitOnTXISFlagUntilTimeout>
 8001f58:	b140      	cbz	r0, 8001f6c <I2C_RequestMemoryRead+0x34>
    if (hi2c->ErrorCode == HAL_I2C_ERROR_AF)
 8001f5a:	6c63      	ldr	r3, [r4, #68]	; 0x44
 8001f5c:	2b04      	cmp	r3, #4
 8001f5e:	d003      	beq.n	8001f68 <I2C_RequestMemoryRead+0x30>
      return HAL_TIMEOUT;
 8001f60:	2303      	movs	r3, #3
}
 8001f62:	4618      	mov	r0, r3
 8001f64:	b002      	add	sp, #8
 8001f66:	bd70      	pop	{r4, r5, r6, pc}
      return HAL_ERROR;
 8001f68:	2301      	movs	r3, #1
 8001f6a:	e7fa      	b.n	8001f62 <I2C_RequestMemoryRead+0x2a>
  if (MemAddSize == I2C_MEMADD_SIZE_8BIT)
 8001f6c:	2d01      	cmp	r5, #1
 8001f6e:	d00d      	beq.n	8001f8c <I2C_RequestMemoryRead+0x54>
    hi2c->Instance->TXDR = I2C_MEM_ADD_MSB(MemAddress);
 8001f70:	6823      	ldr	r3, [r4, #0]
 8001f72:	0a32      	lsrs	r2, r6, #8
 8001f74:	629a      	str	r2, [r3, #40]	; 0x28
    if (I2C_WaitOnTXISFlagUntilTimeout(hi2c, Timeout, Tickstart) != HAL_OK)
 8001f76:	9a07      	ldr	r2, [sp, #28]
 8001f78:	9906      	ldr	r1, [sp, #24]
 8001f7a:	4620      	mov	r0, r4
 8001f7c:	f7ff ff4a 	bl	8001e14 <I2C_WaitOnTXISFlagUntilTimeout>
 8001f80:	b1b0      	cbz	r0, 8001fb0 <I2C_RequestMemoryRead+0x78>
      if (hi2c->ErrorCode == HAL_I2C_ERROR_AF)
 8001f82:	6c63      	ldr	r3, [r4, #68]	; 0x44
 8001f84:	2b04      	cmp	r3, #4
 8001f86:	d011      	beq.n	8001fac <I2C_RequestMemoryRead+0x74>
        return HAL_TIMEOUT;
 8001f88:	2303      	movs	r3, #3
 8001f8a:	e7ea      	b.n	8001f62 <I2C_RequestMemoryRead+0x2a>
    hi2c->Instance->TXDR = I2C_MEM_ADD_LSB(MemAddress);
 8001f8c:	6823      	ldr	r3, [r4, #0]
 8001f8e:	b2f6      	uxtb	r6, r6
 8001f90:	629e      	str	r6, [r3, #40]	; 0x28
  if (I2C_WaitOnFlagUntilTimeout(hi2c, I2C_FLAG_TC, RESET, Timeout, Tickstart) != HAL_OK)
 8001f92:	9b07      	ldr	r3, [sp, #28]
 8001f94:	9300      	str	r3, [sp, #0]
 8001f96:	9b06      	ldr	r3, [sp, #24]
 8001f98:	2200      	movs	r2, #0
 8001f9a:	2140      	movs	r1, #64	; 0x40
 8001f9c:	4620      	mov	r0, r4
 8001f9e:	f7ff ff63 	bl	8001e68 <I2C_WaitOnFlagUntilTimeout>
 8001fa2:	4603      	mov	r3, r0
 8001fa4:	2800      	cmp	r0, #0
 8001fa6:	d0dc      	beq.n	8001f62 <I2C_RequestMemoryRead+0x2a>
    return HAL_TIMEOUT;
 8001fa8:	2303      	movs	r3, #3
 8001faa:	e7da      	b.n	8001f62 <I2C_RequestMemoryRead+0x2a>
        return HAL_ERROR;
 8001fac:	2301      	movs	r3, #1
 8001fae:	e7d8      	b.n	8001f62 <I2C_RequestMemoryRead+0x2a>
    hi2c->Instance->TXDR = I2C_MEM_ADD_LSB(MemAddress);
 8001fb0:	6823      	ldr	r3, [r4, #0]
 8001fb2:	b2f6      	uxtb	r6, r6
 8001fb4:	629e      	str	r6, [r3, #40]	; 0x28
 8001fb6:	e7ec      	b.n	8001f92 <I2C_RequestMemoryRead+0x5a>
 8001fb8:	80002000 	.word	0x80002000

08001fbc <I2C_WaitOnSTOPFlagUntilTimeout>:
{
 8001fbc:	b570      	push	{r4, r5, r6, lr}
 8001fbe:	4605      	mov	r5, r0
 8001fc0:	460c      	mov	r4, r1
 8001fc2:	4616      	mov	r6, r2
  while (__HAL_I2C_GET_FLAG(hi2c, I2C_FLAG_STOPF) == RESET)
 8001fc4:	682b      	ldr	r3, [r5, #0]
 8001fc6:	699b      	ldr	r3, [r3, #24]
 8001fc8:	f013 0f20 	tst.w	r3, #32
 8001fcc:	d119      	bne.n	8002002 <I2C_WaitOnSTOPFlagUntilTimeout+0x46>
    if (I2C_IsAcknowledgeFailed(hi2c, Timeout, Tickstart) != HAL_OK)
 8001fce:	4632      	mov	r2, r6
 8001fd0:	4621      	mov	r1, r4
 8001fd2:	4628      	mov	r0, r5
 8001fd4:	f7ff fedd 	bl	8001d92 <I2C_IsAcknowledgeFailed>
 8001fd8:	b9a8      	cbnz	r0, 8002006 <I2C_WaitOnSTOPFlagUntilTimeout+0x4a>
    if ((Timeout == 0U) || ((HAL_GetTick() - Tickstart) > Timeout))
 8001fda:	b124      	cbz	r4, 8001fe6 <I2C_WaitOnSTOPFlagUntilTimeout+0x2a>
 8001fdc:	f7fe fe44 	bl	8000c68 <HAL_GetTick>
 8001fe0:	1b80      	subs	r0, r0, r6
 8001fe2:	4284      	cmp	r4, r0
 8001fe4:	d2ee      	bcs.n	8001fc4 <I2C_WaitOnSTOPFlagUntilTimeout+0x8>
      hi2c->ErrorCode |= HAL_I2C_ERROR_TIMEOUT;
 8001fe6:	6c6b      	ldr	r3, [r5, #68]	; 0x44
 8001fe8:	f043 0320 	orr.w	r3, r3, #32
 8001fec:	646b      	str	r3, [r5, #68]	; 0x44
      hi2c->State = HAL_I2C_STATE_READY;
 8001fee:	2320      	movs	r3, #32
 8001ff0:	f885 3041 	strb.w	r3, [r5, #65]	; 0x41
      hi2c->Mode = HAL_I2C_MODE_NONE;
 8001ff4:	2300      	movs	r3, #0
 8001ff6:	f885 3042 	strb.w	r3, [r5, #66]	; 0x42
      __HAL_UNLOCK(hi2c);
 8001ffa:	f885 3040 	strb.w	r3, [r5, #64]	; 0x40
      return HAL_TIMEOUT;
 8001ffe:	2003      	movs	r0, #3
 8002000:	bd70      	pop	{r4, r5, r6, pc}
  return HAL_OK;
 8002002:	2000      	movs	r0, #0
 8002004:	bd70      	pop	{r4, r5, r6, pc}
      return HAL_ERROR;
 8002006:	2001      	movs	r0, #1
}
 8002008:	bd70      	pop	{r4, r5, r6, pc}

0800200a <I2C_WaitOnRXNEFlagUntilTimeout>:
{
 800200a:	b570      	push	{r4, r5, r6, lr}
 800200c:	4604      	mov	r4, r0
 800200e:	460d      	mov	r5, r1
 8002010:	4616      	mov	r6, r2
  while (__HAL_I2C_GET_FLAG(hi2c, I2C_FLAG_RXNE) == RESET)
 8002012:	6823      	ldr	r3, [r4, #0]
 8002014:	699b      	ldr	r3, [r3, #24]
 8002016:	f013 0f04 	tst.w	r3, #4
 800201a:	d13d      	bne.n	8002098 <I2C_WaitOnRXNEFlagUntilTimeout+0x8e>
    if (I2C_IsAcknowledgeFailed(hi2c, Timeout, Tickstart) != HAL_OK)
 800201c:	4632      	mov	r2, r6
 800201e:	4629      	mov	r1, r5
 8002020:	4620      	mov	r0, r4
 8002022:	f7ff feb6 	bl	8001d92 <I2C_IsAcknowledgeFailed>
 8002026:	4601      	mov	r1, r0
 8002028:	2800      	cmp	r0, #0
 800202a:	d137      	bne.n	800209c <I2C_WaitOnRXNEFlagUntilTimeout+0x92>
    if (__HAL_I2C_GET_FLAG(hi2c, I2C_FLAG_STOPF) == SET)
 800202c:	6823      	ldr	r3, [r4, #0]
 800202e:	699a      	ldr	r2, [r3, #24]
 8002030:	f012 0f20 	tst.w	r2, #32
 8002034:	d112      	bne.n	800205c <I2C_WaitOnRXNEFlagUntilTimeout+0x52>
    if ((Timeout == 0U) || ((HAL_GetTick() - Tickstart) > Timeout))
 8002036:	b125      	cbz	r5, 8002042 <I2C_WaitOnRXNEFlagUntilTimeout+0x38>
 8002038:	f7fe fe16 	bl	8000c68 <HAL_GetTick>
 800203c:	1b80      	subs	r0, r0, r6
 800203e:	4285      	cmp	r5, r0
 8002040:	d2e7      	bcs.n	8002012 <I2C_WaitOnRXNEFlagUntilTimeout+0x8>
      hi2c->ErrorCode |= HAL_I2C_ERROR_TIMEOUT;
 8002042:	6c63      	ldr	r3, [r4, #68]	; 0x44
 8002044:	f043 0320 	orr.w	r3, r3, #32
 8002048:	6463      	str	r3, [r4, #68]	; 0x44
      hi2c->State = HAL_I2C_STATE_READY;
 800204a:	2320      	movs	r3, #32
 800204c:	f884 3041 	strb.w	r3, [r4, #65]	; 0x41
      __HAL_UNLOCK(hi2c);
 8002050:	2300      	movs	r3, #0
 8002052:	f884 3040 	strb.w	r3, [r4, #64]	; 0x40
      return HAL_TIMEOUT;
 8002056:	2103      	movs	r1, #3
}
 8002058:	4608      	mov	r0, r1
 800205a:	bd70      	pop	{r4, r5, r6, pc}
      if ((__HAL_I2C_GET_FLAG(hi2c, I2C_FLAG_RXNE) == SET) && (hi2c->XferSize > 0U))
 800205c:	699a      	ldr	r2, [r3, #24]
 800205e:	f012 0f04 	tst.w	r2, #4
 8002062:	d002      	beq.n	800206a <I2C_WaitOnRXNEFlagUntilTimeout+0x60>
 8002064:	8d22      	ldrh	r2, [r4, #40]	; 0x28
 8002066:	2a00      	cmp	r2, #0
 8002068:	d1f6      	bne.n	8002058 <I2C_WaitOnRXNEFlagUntilTimeout+0x4e>
        __HAL_I2C_CLEAR_FLAG(hi2c, I2C_FLAG_STOPF);
 800206a:	2220      	movs	r2, #32
 800206c:	61da      	str	r2, [r3, #28]
        I2C_RESET_CR2(hi2c);
 800206e:	6821      	ldr	r1, [r4, #0]
 8002070:	684b      	ldr	r3, [r1, #4]
 8002072:	f023 73ff 	bic.w	r3, r3, #33423360	; 0x1fe0000
 8002076:	f423 338b 	bic.w	r3, r3, #71168	; 0x11600
 800207a:	f423 73ff 	bic.w	r3, r3, #510	; 0x1fe
 800207e:	f023 0301 	bic.w	r3, r3, #1
 8002082:	604b      	str	r3, [r1, #4]
        hi2c->ErrorCode = HAL_I2C_ERROR_NONE;
 8002084:	2300      	movs	r3, #0
 8002086:	6463      	str	r3, [r4, #68]	; 0x44
        hi2c->State = HAL_I2C_STATE_READY;
 8002088:	f884 2041 	strb.w	r2, [r4, #65]	; 0x41
        hi2c->Mode = HAL_I2C_MODE_NONE;
 800208c:	f884 3042 	strb.w	r3, [r4, #66]	; 0x42
        __HAL_UNLOCK(hi2c);
 8002090:	f884 3040 	strb.w	r3, [r4, #64]	; 0x40
        return HAL_ERROR;
 8002094:	2101      	movs	r1, #1
 8002096:	e7df      	b.n	8002058 <I2C_WaitOnRXNEFlagUntilTimeout+0x4e>
  return HAL_OK;
 8002098:	2100      	movs	r1, #0
 800209a:	e7dd      	b.n	8002058 <I2C_WaitOnRXNEFlagUntilTimeout+0x4e>
      return HAL_ERROR;
 800209c:	2101      	movs	r1, #1
 800209e:	e7db      	b.n	8002058 <I2C_WaitOnRXNEFlagUntilTimeout+0x4e>

080020a0 <HAL_I2C_Init>:
  if (hi2c == NULL)
 80020a0:	2800      	cmp	r0, #0
 80020a2:	d059      	beq.n	8002158 <HAL_I2C_Init+0xb8>
{
 80020a4:	b510      	push	{r4, lr}
 80020a6:	4604      	mov	r4, r0
  if (hi2c->State == HAL_I2C_STATE_RESET)
 80020a8:	f890 3041 	ldrb.w	r3, [r0, #65]	; 0x41
 80020ac:	2b00      	cmp	r3, #0
 80020ae:	d043      	beq.n	8002138 <HAL_I2C_Init+0x98>
  hi2c->State = HAL_I2C_STATE_BUSY;
 80020b0:	2324      	movs	r3, #36	; 0x24
 80020b2:	f884 3041 	strb.w	r3, [r4, #65]	; 0x41
  __HAL_I2C_DISABLE(hi2c);
 80020b6:	6822      	ldr	r2, [r4, #0]
 80020b8:	6813      	ldr	r3, [r2, #0]
 80020ba:	f023 0301 	bic.w	r3, r3, #1
 80020be:	6013      	str	r3, [r2, #0]
  hi2c->Instance->TIMINGR = hi2c->Init.Timing & TIMING_CLEAR_MASK;
 80020c0:	6822      	ldr	r2, [r4, #0]
 80020c2:	6863      	ldr	r3, [r4, #4]
 80020c4:	f023 6370 	bic.w	r3, r3, #251658240	; 0xf000000
 80020c8:	6113      	str	r3, [r2, #16]
  hi2c->Instance->OAR1 &= ~I2C_OAR1_OA1EN;
 80020ca:	6822      	ldr	r2, [r4, #0]
 80020cc:	6893      	ldr	r3, [r2, #8]
 80020ce:	f423 4300 	bic.w	r3, r3, #32768	; 0x8000
 80020d2:	6093      	str	r3, [r2, #8]
  if (hi2c->Init.AddressingMode == I2C_ADDRESSINGMODE_7BIT)
 80020d4:	68e3      	ldr	r3, [r4, #12]
 80020d6:	2b01      	cmp	r3, #1
 80020d8:	d033      	beq.n	8002142 <HAL_I2C_Init+0xa2>
    hi2c->Instance->OAR1 = (I2C_OAR1_OA1EN | I2C_OAR1_OA1MODE | hi2c->Init.OwnAddress1);
 80020da:	6822      	ldr	r2, [r4, #0]
 80020dc:	68a3      	ldr	r3, [r4, #8]
 80020de:	f443 4304 	orr.w	r3, r3, #33792	; 0x8400
 80020e2:	6093      	str	r3, [r2, #8]
  if (hi2c->Init.AddressingMode == I2C_ADDRESSINGMODE_10BIT)
 80020e4:	68e3      	ldr	r3, [r4, #12]
 80020e6:	2b02      	cmp	r3, #2
 80020e8:	d031      	beq.n	800214e <HAL_I2C_Init+0xae>
  hi2c->Instance->CR2 |= (I2C_CR2_AUTOEND | I2C_CR2_NACK);
 80020ea:	6822      	ldr	r2, [r4, #0]
 80020ec:	6853      	ldr	r3, [r2, #4]
 80020ee:	f043 7300 	orr.w	r3, r3, #33554432	; 0x2000000
 80020f2:	f443 4300 	orr.w	r3, r3, #32768	; 0x8000
 80020f6:	6053      	str	r3, [r2, #4]
  hi2c->Instance->OAR2 &= ~I2C_DUALADDRESS_ENABLE;
 80020f8:	6822      	ldr	r2, [r4, #0]
 80020fa:	68d3      	ldr	r3, [r2, #12]
 80020fc:	f423 4300 	bic.w	r3, r3, #32768	; 0x8000
 8002100:	60d3      	str	r3, [r2, #12]
  hi2c->Instance->OAR2 = (hi2c->Init.DualAddressMode | hi2c->Init.OwnAddress2 | (hi2c->Init.OwnAddress2Masks << 8));
 8002102:	6822      	ldr	r2, [r4, #0]
 8002104:	6923      	ldr	r3, [r4, #16]
 8002106:	6961      	ldr	r1, [r4, #20]
 8002108:	430b      	orrs	r3, r1
 800210a:	69a1      	ldr	r1, [r4, #24]
 800210c:	ea43 2301 	orr.w	r3, r3, r1, lsl #8
 8002110:	60d3      	str	r3, [r2, #12]
  hi2c->Instance->CR1 = (hi2c->Init.GeneralCallMode | hi2c->Init.NoStretchMode);
 8002112:	6822      	ldr	r2, [r4, #0]
 8002114:	69e3      	ldr	r3, [r4, #28]
 8002116:	6a21      	ldr	r1, [r4, #32]
 8002118:	430b      	orrs	r3, r1
 800211a:	6013      	str	r3, [r2, #0]
  __HAL_I2C_ENABLE(hi2c);
 800211c:	6822      	ldr	r2, [r4, #0]
 800211e:	6813      	ldr	r3, [r2, #0]
 8002120:	f043 0301 	orr.w	r3, r3, #1
 8002124:	6013      	str	r3, [r2, #0]
  hi2c->ErrorCode = HAL_I2C_ERROR_NONE;
 8002126:	2000      	movs	r0, #0
 8002128:	6460      	str	r0, [r4, #68]	; 0x44
  hi2c->State = HAL_I2C_STATE_READY;
 800212a:	2320      	movs	r3, #32
 800212c:	f884 3041 	strb.w	r3, [r4, #65]	; 0x41
  hi2c->PreviousState = I2C_STATE_NONE;
 8002130:	6320      	str	r0, [r4, #48]	; 0x30
  hi2c->Mode = HAL_I2C_MODE_NONE;
 8002132:	f884 0042 	strb.w	r0, [r4, #66]	; 0x42
  return HAL_OK;
 8002136:	bd10      	pop	{r4, pc}
    hi2c->Lock = HAL_UNLOCKED;
 8002138:	f880 3040 	strb.w	r3, [r0, #64]	; 0x40
    HAL_I2C_MspInit(hi2c);
 800213c:	f003 ff1e 	bl	8005f7c <HAL_I2C_MspInit>
 8002140:	e7b6      	b.n	80020b0 <HAL_I2C_Init+0x10>
    hi2c->Instance->OAR1 = (I2C_OAR1_OA1EN | hi2c->Init.OwnAddress1);
 8002142:	6822      	ldr	r2, [r4, #0]
 8002144:	68a3      	ldr	r3, [r4, #8]
 8002146:	f443 4300 	orr.w	r3, r3, #32768	; 0x8000
 800214a:	6093      	str	r3, [r2, #8]
 800214c:	e7ca      	b.n	80020e4 <HAL_I2C_Init+0x44>
    hi2c->Instance->CR2 = (I2C_CR2_ADD10);
 800214e:	6823      	ldr	r3, [r4, #0]
 8002150:	f44f 6200 	mov.w	r2, #2048	; 0x800
 8002154:	605a      	str	r2, [r3, #4]
 8002156:	e7c8      	b.n	80020ea <HAL_I2C_Init+0x4a>
    return HAL_ERROR;
 8002158:	2001      	movs	r0, #1
 800215a:	4770      	bx	lr

0800215c <HAL_I2C_Master_Transmit>:
{
 800215c:	e92d 43f0 	stmdb	sp!, {r4, r5, r6, r7, r8, r9, lr}
 8002160:	b083      	sub	sp, #12
  if (hi2c->State == HAL_I2C_STATE_READY)
 8002162:	f890 5041 	ldrb.w	r5, [r0, #65]	; 0x41
 8002166:	b2ed      	uxtb	r5, r5
 8002168:	2d20      	cmp	r5, #32
 800216a:	d004      	beq.n	8002176 <HAL_I2C_Master_Transmit+0x1a>
    return HAL_BUSY;
 800216c:	2302      	movs	r3, #2
}
 800216e:	4618      	mov	r0, r3
 8002170:	b003      	add	sp, #12
 8002172:	e8bd 83f0 	ldmia.w	sp!, {r4, r5, r6, r7, r8, r9, pc}
    __HAL_LOCK(hi2c);
 8002176:	f890 4040 	ldrb.w	r4, [r0, #64]	; 0x40
 800217a:	2c01      	cmp	r4, #1
 800217c:	d101      	bne.n	8002182 <HAL_I2C_Master_Transmit+0x26>
 800217e:	2302      	movs	r3, #2
 8002180:	e7f5      	b.n	800216e <HAL_I2C_Master_Transmit+0x12>
 8002182:	4698      	mov	r8, r3
 8002184:	4617      	mov	r7, r2
 8002186:	460d      	mov	r5, r1
 8002188:	4604      	mov	r4, r0
 800218a:	f04f 0901 	mov.w	r9, #1
 800218e:	f880 9040 	strb.w	r9, [r0, #64]	; 0x40
    tickstart = HAL_GetTick();
 8002192:	f7fe fd69 	bl	8000c68 <HAL_GetTick>
 8002196:	4606      	mov	r6, r0
    if (I2C_WaitOnFlagUntilTimeout(hi2c, I2C_FLAG_BUSY, SET, I2C_TIMEOUT_BUSY, tickstart) != HAL_OK)
 8002198:	9000      	str	r0, [sp, #0]
 800219a:	2319      	movs	r3, #25
 800219c:	464a      	mov	r2, r9
 800219e:	f44f 4100 	mov.w	r1, #32768	; 0x8000
 80021a2:	4620      	mov	r0, r4
 80021a4:	f7ff fe60 	bl	8001e68 <I2C_WaitOnFlagUntilTimeout>
 80021a8:	b108      	cbz	r0, 80021ae <HAL_I2C_Master_Transmit+0x52>
      return HAL_TIMEOUT;
 80021aa:	2303      	movs	r3, #3
 80021ac:	e7df      	b.n	800216e <HAL_I2C_Master_Transmit+0x12>
    hi2c->State     = HAL_I2C_STATE_BUSY_TX;
 80021ae:	2321      	movs	r3, #33	; 0x21
 80021b0:	f884 3041 	strb.w	r3, [r4, #65]	; 0x41
    hi2c->Mode      = HAL_I2C_MODE_MASTER;
 80021b4:	2310      	movs	r3, #16
 80021b6:	f884 3042 	strb.w	r3, [r4, #66]	; 0x42
    hi2c->ErrorCode = HAL_I2C_ERROR_NONE;
 80021ba:	2300      	movs	r3, #0
 80021bc:	6463      	str	r3, [r4, #68]	; 0x44
    hi2c->pBuffPtr  = pData;
 80021be:	6267      	str	r7, [r4, #36]	; 0x24
    hi2c->XferCount = Size;
 80021c0:	f8a4 802a 	strh.w	r8, [r4, #42]	; 0x2a
    hi2c->XferISR   = NULL;
 80021c4:	6363      	str	r3, [r4, #52]	; 0x34
    if (hi2c->XferCount > MAX_NBYTE_SIZE)
 80021c6:	8d63      	ldrh	r3, [r4, #42]	; 0x2a
 80021c8:	b29b      	uxth	r3, r3
 80021ca:	2bff      	cmp	r3, #255	; 0xff
 80021cc:	d90a      	bls.n	80021e4 <HAL_I2C_Master_Transmit+0x88>
      hi2c->XferSize = MAX_NBYTE_SIZE;
 80021ce:	22ff      	movs	r2, #255	; 0xff
 80021d0:	8522      	strh	r2, [r4, #40]	; 0x28
      I2C_TransferConfig(hi2c, DevAddress, hi2c->XferSize, I2C_RELOAD_MODE, I2C_GENERATE_START_WRITE);
 80021d2:	4b43      	ldr	r3, [pc, #268]	; (80022e0 <HAL_I2C_Master_Transmit+0x184>)
 80021d4:	9300      	str	r3, [sp, #0]
 80021d6:	f04f 7380 	mov.w	r3, #16777216	; 0x1000000
 80021da:	4629      	mov	r1, r5
 80021dc:	4620      	mov	r0, r4
 80021de:	f7ff fdbd 	bl	8001d5c <I2C_TransferConfig>
 80021e2:	e01f      	b.n	8002224 <HAL_I2C_Master_Transmit+0xc8>
      hi2c->XferSize = hi2c->XferCount;
 80021e4:	8d62      	ldrh	r2, [r4, #42]	; 0x2a
 80021e6:	b292      	uxth	r2, r2
 80021e8:	8522      	strh	r2, [r4, #40]	; 0x28
      I2C_TransferConfig(hi2c, DevAddress, hi2c->XferSize, I2C_AUTOEND_MODE, I2C_GENERATE_START_WRITE);
 80021ea:	4b3d      	ldr	r3, [pc, #244]	; (80022e0 <HAL_I2C_Master_Transmit+0x184>)
 80021ec:	9300      	str	r3, [sp, #0]
 80021ee:	f04f 7300 	mov.w	r3, #33554432	; 0x2000000
 80021f2:	b2d2      	uxtb	r2, r2
 80021f4:	4629      	mov	r1, r5
 80021f6:	4620      	mov	r0, r4
 80021f8:	f7ff fdb0 	bl	8001d5c <I2C_TransferConfig>
 80021fc:	e012      	b.n	8002224 <HAL_I2C_Master_Transmit+0xc8>
        if (hi2c->ErrorCode == HAL_I2C_ERROR_AF)
 80021fe:	6c63      	ldr	r3, [r4, #68]	; 0x44
 8002200:	2b04      	cmp	r3, #4
 8002202:	d001      	beq.n	8002208 <HAL_I2C_Master_Transmit+0xac>
          return HAL_TIMEOUT;
 8002204:	2303      	movs	r3, #3
 8002206:	e7b2      	b.n	800216e <HAL_I2C_Master_Transmit+0x12>
          return HAL_ERROR;
 8002208:	2301      	movs	r3, #1
 800220a:	e7b0      	b.n	800216e <HAL_I2C_Master_Transmit+0x12>
          hi2c->XferSize = hi2c->XferCount;
 800220c:	8d62      	ldrh	r2, [r4, #42]	; 0x2a
 800220e:	b292      	uxth	r2, r2
 8002210:	8522      	strh	r2, [r4, #40]	; 0x28
          I2C_TransferConfig(hi2c, DevAddress, hi2c->XferSize, I2C_AUTOEND_MODE, I2C_NO_STARTSTOP);
 8002212:	2300      	movs	r3, #0
 8002214:	9300      	str	r3, [sp, #0]
 8002216:	f04f 7300 	mov.w	r3, #33554432	; 0x2000000
 800221a:	b2d2      	uxtb	r2, r2
 800221c:	4629      	mov	r1, r5
 800221e:	4620      	mov	r0, r4
 8002220:	f7ff fd9c 	bl	8001d5c <I2C_TransferConfig>
    while (hi2c->XferCount > 0U)
 8002224:	8d63      	ldrh	r3, [r4, #42]	; 0x2a
 8002226:	b29b      	uxth	r3, r3
 8002228:	2b00      	cmp	r3, #0
 800222a:	d032      	beq.n	8002292 <HAL_I2C_Master_Transmit+0x136>
      if (I2C_WaitOnTXISFlagUntilTimeout(hi2c, Timeout, tickstart) != HAL_OK)
 800222c:	4632      	mov	r2, r6
 800222e:	990a      	ldr	r1, [sp, #40]	; 0x28
 8002230:	4620      	mov	r0, r4
 8002232:	f7ff fdef 	bl	8001e14 <I2C_WaitOnTXISFlagUntilTimeout>
 8002236:	2800      	cmp	r0, #0
 8002238:	d1e1      	bne.n	80021fe <HAL_I2C_Master_Transmit+0xa2>
      hi2c->Instance->TXDR = (*hi2c->pBuffPtr++);
 800223a:	6822      	ldr	r2, [r4, #0]
 800223c:	6a63      	ldr	r3, [r4, #36]	; 0x24
 800223e:	1c59      	adds	r1, r3, #1
 8002240:	6261      	str	r1, [r4, #36]	; 0x24
 8002242:	781b      	ldrb	r3, [r3, #0]
 8002244:	6293      	str	r3, [r2, #40]	; 0x28
      hi2c->XferCount--;
 8002246:	8d63      	ldrh	r3, [r4, #42]	; 0x2a
 8002248:	b29b      	uxth	r3, r3
 800224a:	3b01      	subs	r3, #1
 800224c:	b29b      	uxth	r3, r3
 800224e:	8563      	strh	r3, [r4, #42]	; 0x2a
      hi2c->XferSize--;
 8002250:	8d23      	ldrh	r3, [r4, #40]	; 0x28
 8002252:	3b01      	subs	r3, #1
 8002254:	b29b      	uxth	r3, r3
 8002256:	8523      	strh	r3, [r4, #40]	; 0x28
      if ((hi2c->XferSize == 0U) && (hi2c->XferCount != 0U))
 8002258:	2b00      	cmp	r3, #0
 800225a:	d1e3      	bne.n	8002224 <HAL_I2C_Master_Transmit+0xc8>
 800225c:	8d63      	ldrh	r3, [r4, #42]	; 0x2a
 800225e:	b29b      	uxth	r3, r3
 8002260:	2b00      	cmp	r3, #0
 8002262:	d0df      	beq.n	8002224 <HAL_I2C_Master_Transmit+0xc8>
        if (I2C_WaitOnFlagUntilTimeout(hi2c, I2C_FLAG_TCR, RESET, Timeout, tickstart) != HAL_OK)
 8002264:	9600      	str	r6, [sp, #0]
 8002266:	9b0a      	ldr	r3, [sp, #40]	; 0x28
 8002268:	2200      	movs	r2, #0
 800226a:	2180      	movs	r1, #128	; 0x80
 800226c:	4620      	mov	r0, r4
 800226e:	f7ff fdfb 	bl	8001e68 <I2C_WaitOnFlagUntilTimeout>
 8002272:	bb90      	cbnz	r0, 80022da <HAL_I2C_Master_Transmit+0x17e>
        if (hi2c->XferCount > MAX_NBYTE_SIZE)
 8002274:	8d63      	ldrh	r3, [r4, #42]	; 0x2a
 8002276:	b29b      	uxth	r3, r3
 8002278:	2bff      	cmp	r3, #255	; 0xff
 800227a:	d9c7      	bls.n	800220c <HAL_I2C_Master_Transmit+0xb0>
          hi2c->XferSize = MAX_NBYTE_SIZE;
 800227c:	22ff      	movs	r2, #255	; 0xff
 800227e:	8522      	strh	r2, [r4, #40]	; 0x28
          I2C_TransferConfig(hi2c, DevAddress, hi2c->XferSize, I2C_RELOAD_MODE, I2C_NO_STARTSTOP);
 8002280:	2300      	movs	r3, #0
 8002282:	9300      	str	r3, [sp, #0]
 8002284:	f04f 7380 	mov.w	r3, #16777216	; 0x1000000
 8002288:	4629      	mov	r1, r5
 800228a:	4620      	mov	r0, r4
 800228c:	f7ff fd66 	bl	8001d5c <I2C_TransferConfig>
 8002290:	e7c8      	b.n	8002224 <HAL_I2C_Master_Transmit+0xc8>
    if (I2C_WaitOnSTOPFlagUntilTimeout(hi2c, Timeout, tickstart) != HAL_OK)
 8002292:	4632      	mov	r2, r6
 8002294:	990a      	ldr	r1, [sp, #40]	; 0x28
 8002296:	4620      	mov	r0, r4
 8002298:	f7ff fe90 	bl	8001fbc <I2C_WaitOnSTOPFlagUntilTimeout>
 800229c:	4603      	mov	r3, r0
 800229e:	b130      	cbz	r0, 80022ae <HAL_I2C_Master_Transmit+0x152>
      if (hi2c->ErrorCode == HAL_I2C_ERROR_AF)
 80022a0:	6c63      	ldr	r3, [r4, #68]	; 0x44
 80022a2:	2b04      	cmp	r3, #4
 80022a4:	d001      	beq.n	80022aa <HAL_I2C_Master_Transmit+0x14e>
        return HAL_TIMEOUT;
 80022a6:	2303      	movs	r3, #3
 80022a8:	e761      	b.n	800216e <HAL_I2C_Master_Transmit+0x12>
        return HAL_ERROR;
 80022aa:	2301      	movs	r3, #1
 80022ac:	e75f      	b.n	800216e <HAL_I2C_Master_Transmit+0x12>
    __HAL_I2C_CLEAR_FLAG(hi2c, I2C_FLAG_STOPF);
 80022ae:	6822      	ldr	r2, [r4, #0]
 80022b0:	2120      	movs	r1, #32
 80022b2:	61d1      	str	r1, [r2, #28]
    I2C_RESET_CR2(hi2c);
 80022b4:	6820      	ldr	r0, [r4, #0]
 80022b6:	6842      	ldr	r2, [r0, #4]
 80022b8:	f022 72ff 	bic.w	r2, r2, #33423360	; 0x1fe0000
 80022bc:	f422 328b 	bic.w	r2, r2, #71168	; 0x11600
 80022c0:	f422 72ff 	bic.w	r2, r2, #510	; 0x1fe
 80022c4:	f022 0201 	bic.w	r2, r2, #1
 80022c8:	6042      	str	r2, [r0, #4]
    hi2c->State = HAL_I2C_STATE_READY;
 80022ca:	f884 1041 	strb.w	r1, [r4, #65]	; 0x41
    hi2c->Mode  = HAL_I2C_MODE_NONE;
 80022ce:	2200      	movs	r2, #0
 80022d0:	f884 2042 	strb.w	r2, [r4, #66]	; 0x42
    __HAL_UNLOCK(hi2c);
 80022d4:	f884 2040 	strb.w	r2, [r4, #64]	; 0x40
    return HAL_OK;
 80022d8:	e749      	b.n	800216e <HAL_I2C_Master_Transmit+0x12>
          return HAL_TIMEOUT;
 80022da:	2303      	movs	r3, #3
 80022dc:	e747      	b.n	800216e <HAL_I2C_Master_Transmit+0x12>
 80022de:	bf00      	nop
 80022e0:	80002000 	.word	0x80002000

080022e4 <HAL_I2C_Master_Receive>:
{
 80022e4:	e92d 43f0 	stmdb	sp!, {r4, r5, r6, r7, r8, r9, lr}
 80022e8:	b083      	sub	sp, #12
  if (hi2c->State == HAL_I2C_STATE_READY)
 80022ea:	f890 5041 	ldrb.w	r5, [r0, #65]	; 0x41
 80022ee:	b2ed      	uxtb	r5, r5
 80022f0:	2d20      	cmp	r5, #32
 80022f2:	d004      	beq.n	80022fe <HAL_I2C_Master_Receive+0x1a>
    return HAL_BUSY;
 80022f4:	2302      	movs	r3, #2
}
 80022f6:	4618      	mov	r0, r3
 80022f8:	b003      	add	sp, #12
 80022fa:	e8bd 83f0 	ldmia.w	sp!, {r4, r5, r6, r7, r8, r9, pc}
    __HAL_LOCK(hi2c);
 80022fe:	f890 4040 	ldrb.w	r4, [r0, #64]	; 0x40
 8002302:	2c01      	cmp	r4, #1
 8002304:	d101      	bne.n	800230a <HAL_I2C_Master_Receive+0x26>
 8002306:	2302      	movs	r3, #2
 8002308:	e7f5      	b.n	80022f6 <HAL_I2C_Master_Receive+0x12>
 800230a:	4698      	mov	r8, r3
 800230c:	4617      	mov	r7, r2
 800230e:	460d      	mov	r5, r1
 8002310:	4604      	mov	r4, r0
 8002312:	f04f 0901 	mov.w	r9, #1
 8002316:	f880 9040 	strb.w	r9, [r0, #64]	; 0x40
    tickstart = HAL_GetTick();
 800231a:	f7fe fca5 	bl	8000c68 <HAL_GetTick>
 800231e:	4606      	mov	r6, r0
    if (I2C_WaitOnFlagUntilTimeout(hi2c, I2C_FLAG_BUSY, SET, I2C_TIMEOUT_BUSY, tickstart) != HAL_OK)
 8002320:	9000      	str	r0, [sp, #0]
 8002322:	2319      	movs	r3, #25
 8002324:	464a      	mov	r2, r9
 8002326:	f44f 4100 	mov.w	r1, #32768	; 0x8000
 800232a:	4620      	mov	r0, r4
 800232c:	f7ff fd9c 	bl	8001e68 <I2C_WaitOnFlagUntilTimeout>
 8002330:	b108      	cbz	r0, 8002336 <HAL_I2C_Master_Receive+0x52>
      return HAL_TIMEOUT;
 8002332:	2303      	movs	r3, #3
 8002334:	e7df      	b.n	80022f6 <HAL_I2C_Master_Receive+0x12>
    hi2c->State     = HAL_I2C_STATE_BUSY_RX;
 8002336:	2322      	movs	r3, #34	; 0x22
 8002338:	f884 3041 	strb.w	r3, [r4, #65]	; 0x41
    hi2c->Mode      = HAL_I2C_MODE_MASTER;
 800233c:	2310      	movs	r3, #16
 800233e:	f884 3042 	strb.w	r3, [r4, #66]	; 0x42
    hi2c->ErrorCode = HAL_I2C_ERROR_NONE;
 8002342:	2300      	movs	r3, #0
 8002344:	6463      	str	r3, [r4, #68]	; 0x44
    hi2c->pBuffPtr  = pData;
 8002346:	6267      	str	r7, [r4, #36]	; 0x24
    hi2c->XferCount = Size;
 8002348:	f8a4 802a 	strh.w	r8, [r4, #42]	; 0x2a
    hi2c->XferISR   = NULL;
 800234c:	6363      	str	r3, [r4, #52]	; 0x34
    if (hi2c->XferCount > MAX_NBYTE_SIZE)
 800234e:	8d63      	ldrh	r3, [r4, #42]	; 0x2a
 8002350:	b29b      	uxth	r3, r3
 8002352:	2bff      	cmp	r3, #255	; 0xff
 8002354:	d90a      	bls.n	800236c <HAL_I2C_Master_Receive+0x88>
      hi2c->XferSize = MAX_NBYTE_SIZE;
 8002356:	22ff      	movs	r2, #255	; 0xff
 8002358:	8522      	strh	r2, [r4, #40]	; 0x28
      I2C_TransferConfig(hi2c, DevAddress, hi2c->XferSize, I2C_RELOAD_MODE, I2C_GENERATE_START_READ);
 800235a:	4b42      	ldr	r3, [pc, #264]	; (8002464 <HAL_I2C_Master_Receive+0x180>)
 800235c:	9300      	str	r3, [sp, #0]
 800235e:	f04f 7380 	mov.w	r3, #16777216	; 0x1000000
 8002362:	4629      	mov	r1, r5
 8002364:	4620      	mov	r0, r4
 8002366:	f7ff fcf9 	bl	8001d5c <I2C_TransferConfig>
 800236a:	e01f      	b.n	80023ac <HAL_I2C_Master_Receive+0xc8>
      hi2c->XferSize = hi2c->XferCount;
 800236c:	8d62      	ldrh	r2, [r4, #42]	; 0x2a
 800236e:	b292      	uxth	r2, r2
 8002370:	8522      	strh	r2, [r4, #40]	; 0x28
      I2C_TransferConfig(hi2c, DevAddress, hi2c->XferSize, I2C_AUTOEND_MODE, I2C_GENERATE_START_READ);
 8002372:	4b3c      	ldr	r3, [pc, #240]	; (8002464 <HAL_I2C_Master_Receive+0x180>)
 8002374:	9300      	str	r3, [sp, #0]
 8002376:	f04f 7300 	mov.w	r3, #33554432	; 0x2000000
 800237a:	b2d2      	uxtb	r2, r2
 800237c:	4629      	mov	r1, r5
 800237e:	4620      	mov	r0, r4
 8002380:	f7ff fcec 	bl	8001d5c <I2C_TransferConfig>
 8002384:	e012      	b.n	80023ac <HAL_I2C_Master_Receive+0xc8>
        if (hi2c->ErrorCode == HAL_I2C_ERROR_AF)
 8002386:	6c63      	ldr	r3, [r4, #68]	; 0x44
 8002388:	2b04      	cmp	r3, #4
 800238a:	d001      	beq.n	8002390 <HAL_I2C_Master_Receive+0xac>
          return HAL_TIMEOUT;
 800238c:	2303      	movs	r3, #3
 800238e:	e7b2      	b.n	80022f6 <HAL_I2C_Master_Receive+0x12>
          return HAL_ERROR;
 8002390:	2301      	movs	r3, #1
 8002392:	e7b0      	b.n	80022f6 <HAL_I2C_Master_Receive+0x12>
          hi2c->XferSize = hi2c->XferCount;
 8002394:	8d62      	ldrh	r2, [r4, #42]	; 0x2a
 8002396:	b292      	uxth	r2, r2
 8002398:	8522      	strh	r2, [r4, #40]	; 0x28
          I2C_TransferConfig(hi2c, DevAddress, hi2c->XferSize, I2C_AUTOEND_MODE, I2C_NO_STARTSTOP);
 800239a:	2300      	movs	r3, #0
 800239c:	9300      	str	r3, [sp, #0]
 800239e:	f04f 7300 	mov.w	r3, #33554432	; 0x2000000
 80023a2:	b2d2      	uxtb	r2, r2
 80023a4:	4629      	mov	r1, r5
 80023a6:	4620      	mov	r0, r4
 80023a8:	f7ff fcd8 	bl	8001d5c <I2C_TransferConfig>
    while (hi2c->XferCount > 0U)
 80023ac:	8d63      	ldrh	r3, [r4, #42]	; 0x2a
 80023ae:	b29b      	uxth	r3, r3
 80023b0:	2b00      	cmp	r3, #0
 80023b2:	d031      	beq.n	8002418 <HAL_I2C_Master_Receive+0x134>
      if (I2C_WaitOnRXNEFlagUntilTimeout(hi2c, Timeout, tickstart) != HAL_OK)
 80023b4:	4632      	mov	r2, r6
 80023b6:	990a      	ldr	r1, [sp, #40]	; 0x28
 80023b8:	4620      	mov	r0, r4
 80023ba:	f7ff fe26 	bl	800200a <I2C_WaitOnRXNEFlagUntilTimeout>
 80023be:	2800      	cmp	r0, #0
 80023c0:	d1e1      	bne.n	8002386 <HAL_I2C_Master_Receive+0xa2>
      (*hi2c->pBuffPtr++) = hi2c->Instance->RXDR;
 80023c2:	6a63      	ldr	r3, [r4, #36]	; 0x24
 80023c4:	1c5a      	adds	r2, r3, #1
 80023c6:	6262      	str	r2, [r4, #36]	; 0x24
 80023c8:	6822      	ldr	r2, [r4, #0]
 80023ca:	6a52      	ldr	r2, [r2, #36]	; 0x24
 80023cc:	701a      	strb	r2, [r3, #0]
      hi2c->XferSize--;
 80023ce:	8d22      	ldrh	r2, [r4, #40]	; 0x28
 80023d0:	3a01      	subs	r2, #1
 80023d2:	b292      	uxth	r2, r2
 80023d4:	8522      	strh	r2, [r4, #40]	; 0x28
      hi2c->XferCount--;
 80023d6:	8d63      	ldrh	r3, [r4, #42]	; 0x2a
 80023d8:	b29b      	uxth	r3, r3
 80023da:	3b01      	subs	r3, #1
 80023dc:	b29b      	uxth	r3, r3
 80023de:	8563      	strh	r3, [r4, #42]	; 0x2a
      if ((hi2c->XferSize == 0U) && (hi2c->XferCount != 0U))
 80023e0:	2a00      	cmp	r2, #0
 80023e2:	d1e3      	bne.n	80023ac <HAL_I2C_Master_Receive+0xc8>
 80023e4:	8d63      	ldrh	r3, [r4, #42]	; 0x2a
 80023e6:	b29b      	uxth	r3, r3
 80023e8:	2b00      	cmp	r3, #0
 80023ea:	d0df      	beq.n	80023ac <HAL_I2C_Master_Receive+0xc8>
        if (I2C_WaitOnFlagUntilTimeout(hi2c, I2C_FLAG_TCR, RESET, Timeout, tickstart) != HAL_OK)
 80023ec:	9600      	str	r6, [sp, #0]
 80023ee:	9b0a      	ldr	r3, [sp, #40]	; 0x28
 80023f0:	2180      	movs	r1, #128	; 0x80
 80023f2:	4620      	mov	r0, r4
 80023f4:	f7ff fd38 	bl	8001e68 <I2C_WaitOnFlagUntilTimeout>
 80023f8:	bb90      	cbnz	r0, 8002460 <HAL_I2C_Master_Receive+0x17c>
        if (hi2c->XferCount > MAX_NBYTE_SIZE)
 80023fa:	8d63      	ldrh	r3, [r4, #42]	; 0x2a
 80023fc:	b29b      	uxth	r3, r3
 80023fe:	2bff      	cmp	r3, #255	; 0xff
 8002400:	d9c8      	bls.n	8002394 <HAL_I2C_Master_Receive+0xb0>
          hi2c->XferSize = MAX_NBYTE_SIZE;
 8002402:	22ff      	movs	r2, #255	; 0xff
 8002404:	8522      	strh	r2, [r4, #40]	; 0x28
          I2C_TransferConfig(hi2c, DevAddress, hi2c->XferSize, I2C_RELOAD_MODE, I2C_NO_STARTSTOP);
 8002406:	2300      	movs	r3, #0
 8002408:	9300      	str	r3, [sp, #0]
 800240a:	f04f 7380 	mov.w	r3, #16777216	; 0x1000000
 800240e:	4629      	mov	r1, r5
 8002410:	4620      	mov	r0, r4
 8002412:	f7ff fca3 	bl	8001d5c <I2C_TransferConfig>
 8002416:	e7c9      	b.n	80023ac <HAL_I2C_Master_Receive+0xc8>
    if (I2C_WaitOnSTOPFlagUntilTimeout(hi2c, Timeout, tickstart) != HAL_OK)
 8002418:	4632      	mov	r2, r6
 800241a:	990a      	ldr	r1, [sp, #40]	; 0x28
 800241c:	4620      	mov	r0, r4
 800241e:	f7ff fdcd 	bl	8001fbc <I2C_WaitOnSTOPFlagUntilTimeout>
 8002422:	4603      	mov	r3, r0
 8002424:	b130      	cbz	r0, 8002434 <HAL_I2C_Master_Receive+0x150>
      if (hi2c->ErrorCode == HAL_I2C_ERROR_AF)
 8002426:	6c63      	ldr	r3, [r4, #68]	; 0x44
 8002428:	2b04      	cmp	r3, #4
 800242a:	d001      	beq.n	8002430 <HAL_I2C_Master_Receive+0x14c>
        return HAL_TIMEOUT;
 800242c:	2303      	movs	r3, #3
 800242e:	e762      	b.n	80022f6 <HAL_I2C_Master_Receive+0x12>
        return HAL_ERROR;
 8002430:	2301      	movs	r3, #1
 8002432:	e760      	b.n	80022f6 <HAL_I2C_Master_Receive+0x12>
    __HAL_I2C_CLEAR_FLAG(hi2c, I2C_FLAG_STOPF);
 8002434:	6822      	ldr	r2, [r4, #0]
 8002436:	2120      	movs	r1, #32
 8002438:	61d1      	str	r1, [r2, #28]
    I2C_RESET_CR2(hi2c);
 800243a:	6820      	ldr	r0, [r4, #0]
 800243c:	6842      	ldr	r2, [r0, #4]
 800243e:	f022 72ff 	bic.w	r2, r2, #33423360	; 0x1fe0000
 8002442:	f422 328b 	bic.w	r2, r2, #71168	; 0x11600
 8002446:	f422 72ff 	bic.w	r2, r2, #510	; 0x1fe
 800244a:	f022 0201 	bic.w	r2, r2, #1
 800244e:	6042      	str	r2, [r0, #4]
    hi2c->State = HAL_I2C_STATE_READY;
 8002450:	f884 1041 	strb.w	r1, [r4, #65]	; 0x41
    hi2c->Mode  = HAL_I2C_MODE_NONE;
 8002454:	2200      	movs	r2, #0
 8002456:	f884 2042 	strb.w	r2, [r4, #66]	; 0x42
    __HAL_UNLOCK(hi2c);
 800245a:	f884 2040 	strb.w	r2, [r4, #64]	; 0x40
    return HAL_OK;
 800245e:	e74a      	b.n	80022f6 <HAL_I2C_Master_Receive+0x12>
          return HAL_TIMEOUT;
 8002460:	2303      	movs	r3, #3
 8002462:	e748      	b.n	80022f6 <HAL_I2C_Master_Receive+0x12>
 8002464:	80002400 	.word	0x80002400

08002468 <HAL_I2C_Mem_Write>:
{
 8002468:	e92d 47f0 	stmdb	sp!, {r4, r5, r6, r7, r8, r9, sl, lr}
 800246c:	b082      	sub	sp, #8
 800246e:	f8bd 502c 	ldrh.w	r5, [sp, #44]	; 0x2c
  if (hi2c->State == HAL_I2C_STATE_READY)
 8002472:	f890 4041 	ldrb.w	r4, [r0, #65]	; 0x41
 8002476:	b2e4      	uxtb	r4, r4
 8002478:	2c20      	cmp	r4, #32
 800247a:	d004      	beq.n	8002486 <HAL_I2C_Mem_Write+0x1e>
    return HAL_BUSY;
 800247c:	2302      	movs	r3, #2
}
 800247e:	4618      	mov	r0, r3
 8002480:	b002      	add	sp, #8
 8002482:	e8bd 87f0 	ldmia.w	sp!, {r4, r5, r6, r7, r8, r9, sl, pc}
    if ((pData == NULL) || (Size == 0U))
 8002486:	9c0a      	ldr	r4, [sp, #40]	; 0x28
 8002488:	2c00      	cmp	r4, #0
 800248a:	f000 80cd 	beq.w	8002628 <HAL_I2C_Mem_Write+0x1c0>
 800248e:	2d00      	cmp	r5, #0
 8002490:	f000 80cc 	beq.w	800262c <HAL_I2C_Mem_Write+0x1c4>
    __HAL_LOCK(hi2c);
 8002494:	f890 4040 	ldrb.w	r4, [r0, #64]	; 0x40
 8002498:	2c01      	cmp	r4, #1
 800249a:	d101      	bne.n	80024a0 <HAL_I2C_Mem_Write+0x38>
 800249c:	2302      	movs	r3, #2
 800249e:	e7ee      	b.n	800247e <HAL_I2C_Mem_Write+0x16>
 80024a0:	4698      	mov	r8, r3
 80024a2:	4691      	mov	r9, r2
 80024a4:	460e      	mov	r6, r1
 80024a6:	4604      	mov	r4, r0
 80024a8:	f04f 0a01 	mov.w	sl, #1
 80024ac:	f880 a040 	strb.w	sl, [r0, #64]	; 0x40
    tickstart = HAL_GetTick();
 80024b0:	f7fe fbda 	bl	8000c68 <HAL_GetTick>
 80024b4:	4607      	mov	r7, r0
    if (I2C_WaitOnFlagUntilTimeout(hi2c, I2C_FLAG_BUSY, SET, I2C_TIMEOUT_BUSY, tickstart) != HAL_OK)
 80024b6:	9000      	str	r0, [sp, #0]
 80024b8:	2319      	movs	r3, #25
 80024ba:	4652      	mov	r2, sl
 80024bc:	f44f 4100 	mov.w	r1, #32768	; 0x8000
 80024c0:	4620      	mov	r0, r4
 80024c2:	f7ff fcd1 	bl	8001e68 <I2C_WaitOnFlagUntilTimeout>
 80024c6:	b108      	cbz	r0, 80024cc <HAL_I2C_Mem_Write+0x64>
      return HAL_TIMEOUT;
 80024c8:	2303      	movs	r3, #3
 80024ca:	e7d8      	b.n	800247e <HAL_I2C_Mem_Write+0x16>
    hi2c->State     = HAL_I2C_STATE_BUSY_TX;
 80024cc:	2321      	movs	r3, #33	; 0x21
 80024ce:	f884 3041 	strb.w	r3, [r4, #65]	; 0x41
    hi2c->Mode      = HAL_I2C_MODE_MEM;
 80024d2:	2340      	movs	r3, #64	; 0x40
 80024d4:	f884 3042 	strb.w	r3, [r4, #66]	; 0x42
    hi2c->ErrorCode = HAL_I2C_ERROR_NONE;
 80024d8:	2300      	movs	r3, #0
 80024da:	6463      	str	r3, [r4, #68]	; 0x44
    hi2c->pBuffPtr  = pData;
 80024dc:	9a0a      	ldr	r2, [sp, #40]	; 0x28
 80024de:	6262      	str	r2, [r4, #36]	; 0x24
    hi2c->XferCount = Size;
 80024e0:	8565      	strh	r5, [r4, #42]	; 0x2a
    hi2c->XferISR   = NULL;
 80024e2:	6363      	str	r3, [r4, #52]	; 0x34
    if (I2C_RequestMemoryWrite(hi2c, DevAddress, MemAddress, MemAddSize, Timeout, tickstart) != HAL_OK)
 80024e4:	9701      	str	r7, [sp, #4]
 80024e6:	9b0c      	ldr	r3, [sp, #48]	; 0x30
 80024e8:	9300      	str	r3, [sp, #0]
 80024ea:	4643      	mov	r3, r8
 80024ec:	464a      	mov	r2, r9
 80024ee:	4631      	mov	r1, r6
 80024f0:	4620      	mov	r0, r4
 80024f2:	f7ff fcdd 	bl	8001eb0 <I2C_RequestMemoryWrite>
 80024f6:	b160      	cbz	r0, 8002512 <HAL_I2C_Mem_Write+0xaa>
      if (hi2c->ErrorCode == HAL_I2C_ERROR_AF)
 80024f8:	6c63      	ldr	r3, [r4, #68]	; 0x44
 80024fa:	2b04      	cmp	r3, #4
 80024fc:	d004      	beq.n	8002508 <HAL_I2C_Mem_Write+0xa0>
        __HAL_UNLOCK(hi2c);
 80024fe:	2300      	movs	r3, #0
 8002500:	f884 3040 	strb.w	r3, [r4, #64]	; 0x40
        return HAL_TIMEOUT;
 8002504:	2303      	movs	r3, #3
 8002506:	e7ba      	b.n	800247e <HAL_I2C_Mem_Write+0x16>
